:020000040800F2
:10000000B00A002045630008F5630008F9630008A2
:10001000FD6300080164000805640008000000009A
:10002000000000000000000000000000096400085B
:100030000D64000800000000116400081564000849
:1000400095600008196400081D6400082164000818
:1000500025640008296400082D6400083164000844
:1000600035640008396400083D64000841640008F4
:1000700045640008496400084D64000851640008A4
:10008000556400089B4B0008596400085D64000833
:1000900061640008656400086964000801784078BC
:1000A00051EA002080B270470178427851EA02217B
:1000B000827851EA0241C07851EA00607047C17805
:1000C000827851EA0221427851EA0241007851EAED
:1000D00000607047017089B20A0A4270704701706F
:1000E0000A0A42700A0C82700A0EC2707047C17010
:1000F0000A0A82700A0C42700A0E02707047FF20D2
:10010000704730B40200002000238B420DD29C5C6B
:1001100080B2E4B24440E4B2DFF80C5D35F814403C
:1001200080B294EA10205B1CEFE780B230BC7047CD
:10013000F8B504000D0016001F0010220021DFF8A2
:10014000F40B02F0D3F9DFF8EC0B49210170002E1B
:1001500001D0012000E00020DFF8D81B4871DFF853
:10016000D40BC7732100DFF8D00BFFF7B8FF2900CD
:10017000DFF8B80CFFF7B3FFF1BD2DE9F04704003D
:100180000D0016001F00DDF82080DDF824904B469E
:100190003A0031002800FFF7CBFF10222100DFF8E2
:1001A000900C02F0AEF94A4692B24146022002F0AB
:1001B00017FA824619EB0800FFF781FF824501D14B
:1001C000012000E00020C0B2BDE8F0872DE9F8432F
:1001D00004000D0016001F00DDF82080DDF82490DB
:1001E0004B463A0031002800FFF7A2FF1022210001
:1001F000DFF83C0C02F085F94A4692B241460220F3
:1002000002F0EEF9010019EB0800FFF770FFBDE8FE
:10021000F18338B504000D00DFF8140C02F066FE1F
:100220002A0092B221000A2002F0DAF9010028190E
:10023000FFF75DFF31BD70B504000D00DFF8F00B76
:1002400002F054FE2A0092B221000A2002F0C8F9FE
:1002500006002819FFF733FF864201D1012000E094
:100260000020C0B270BD38B504000D00DFF8C00B2F
:1002700002F03CFE2A0092B22100002002F0B0F908
:1002800031BD2DE9F84304000D0016001F00DDF814
:100290002080DDF82490B9F1010F2ADB1022002123
:1002A000DFF8900A02F022F90120DFF8881AC873FB
:1002B000DFF8801A0870002F01D0012000E0002034
:1002C000DFF8701A48712900DFF86C0AFFF707FFA2
:1002D0003100DFF8580BFFF702FF10222100DFF892
:1002E000500B02F00EF94A4692B24146042002F049
:1002F00077F9BDE8F183F8B504000D0016001F0082
:1003000010220021300002F0F1F8012030700622A6
:100310002900701C02F0F5F8210089B2F01DFFF7EA
:10032000D9FE10223100380002F0EBF802203870BC
:10033000DFF8FC0A02F0DAFD10223100002002F0A2
:100340004FF9DFF8EC0A02F0D1FD1022390000204D
:1003500002F046F9F1BD38B50400200080B202F089
:1003600021FE0500200080B202F01FFEEDB2032145
:10037000DFF8C02A01FB0521405C8D3832BD2DE934
:10038000F04704000F00200080B202F00EFE0500CE
:10039000200080B202F006FE0600F6B2002E0AD15E
:1003A000FFB217F10A005FF4802148434CF250314C
:1003B00090FBF1F060E0B01DC0B25FEA8008F6B2D9
:1003C000052E01DB082000E00020B8EB000920002A
:1003D00080B202F0EEFD002802D05FF0000A01E0DA
:1003E0005FF0100A200080B202F0E7FD002801D083
:1003F000142000E00020FFB25FFA88F8D8EBC701B4
:100400001AEB01011C31B1EB000ABAF1010F13DB49
:100410005FFA89F919EB0A00401E5FFA89F990FB2F
:10042000F9FA200080B202F0CCFD401D00FB0AF07A
:1004300082461AF1080A01E0082082465FEA8A0033
:1004400010F1310A701C401B804643F609505FFAD8
:1004500088F8B8F1050F04DBB8F104010841042164
:1004600088461AFA08F14FF40042022390FBF3F396
:1004700002FB013191FBF0F0BDE8F08770B402009F
:10048000D2B2002A0AD1DFF8B049B4F97C4020008A
:10049000DFF8A449B4F97E4023000FE0DFF8984963
:1004A000B4F97C40D2B25443E4112000DFF888490B
:1004B000B4F97E40D2B25443E41123000524DFF89E
:1004C0007859B5F98050DFF8706996F8F96006FB45
:1004D0000533C9B2DFF8645955F8215093FBF5F59F
:1004E0006D1DDFF85469B574E4B2083CC9B2DFF899
:1004F0004C5955F8211001FB040070BC704770B5D1
:1005000004000D00EDB2002D18D0DFF82C090021F9
:10051000A0F87C10DFF820090021A0F88010DFF897
:100520001809002180F8F910DFF80C0990F8600133
:1005300050F00C00DFF8001981F86001DFF8FC08CA
:10054000C668E4B24FF4004240F2E7300021E2FB1B
:1005500004014FF47A72002302F04EFD90FBF6F096
:10056000401DDFF8D41881F85101DFF8CC08D0F82D
:100570005C0110F58000DFF8C01891F851110839BE
:1005800006FB1100DFF8B018C1F8540170BDF8B5D2
:10059000040010220021DFF8980801F0A7FF0822CC
:1005A0000021DFF89C0801F0A1FFDFF88C08D0F8EB
:1005B0006411DFF89008FFF792FDDFF87C08D0F8AF
:1005C000DC10DFF88408FFF78AFD1022DFF87418CA
:1005D000002002F005F86578DFF86808FFF75EFD97
:1005E00040F6FF71D5F10702114111EA0006DFF86C
:1005F0004808D0F85C711E2000FB06F04FF4004163
:1006000081FB00014FF47A72002302F0F5FCC0195F
:10061000DFF83818081860600020A070676821783B
:100620000120A840801CC0B2FFF728FF381AA06044
:10063000DFF80408807CE070F1BD2DE9F041040092
:100640000D00A068401B002801D4012029E0A078FB
:100650000600C0B2802801DB002022E0012094F9CE
:10066000011010FA01F7BE19A6703000C0B2802840
:1006700001DB002015E06068F6B2DFF8D41701FB5B
:1006800006F110EBE1182178B819801CC0B2FFF711
:10069000F5FEB8EB0000A060DFF89C07807CE070FE
:1006A000CFE7BDE8F08138B5040003F034F8050069
:1006B000EDB203F030F850EA052189B20800B0F538
:1006C000004F07DD89B24FF4004291FBF2F303FBC8
:1006D00012131800E4B2002C0AD00A00D2B2E4B21D
:1006E00092FBF4F304FB13224FF4004303FB0200DC
:1006F00032BD38B504000D002800C0B2FFF7D3FFAB
:1007000000190400DFF8300790F86B00002805D0CE
:10071000DFF82407C06E201A01280CDBDFF8180769
:10072000C466DFF81407B0F8740050F48070DFF886
:100730000817A1F8740031BDDFF8FC2682F87810A4
:10074000704710B452B212F1800F03D0DFF8E836D0
:1007500083F87720DFF8E03683F87810DFF8D836B2
:10076000B3F8743053F40063DFF8CC46A4F8743067
:1007700010BC704710B50400DFF8BC0614F0070188
:1007800080F8FD10DFF8B006B0F8740050F4806017
:10079000DFF8A416A1F87400DFF89C0690F8740046
:1007A0000321084208D1DFF8900690F8FA000028EB
:1007B00002D1002001F036FA10BD38B50400DFF890
:1007C00078063F21A0F86810E4B2002C01D0002583
:1007D00000E006250020C0B2062814DAC0B2DFF817
:1007E000581611EB8001EDB2DFF8582C52F8252095
:1007F0000A64C0B2DFF840164118502281F8602028
:10080000401C6D1CE7E7E4B2002C04D1DFF8280699
:10081000702180F86510DFF820064FF47A710184AA
:10082000DFF814060E2180F82210DFF80C06642190
:100830000185DFF804060E2180F82A10DFF8F8059C
:100840000A210186DFF8F0051B2180F8321002F042
:10085000B2FFDFF8E4154863DFF8DC15C862DFF8A3
:10086000D815486231BD10B50400601EFFF71CFCAE
:10087000000A64214843DFF8701C884205D3DFF882
:100880006C1C884201D20021080010BD10B4030086
:10089000DBB2082B01DB00202EE0DFF8540C814294
:1008A00006D3DFF8500C814202D251F0020111E070
:1008B000DFF8440C814203D3DFF8400C814207D3B8
:1008C000DFF83C0C814205D3DFF8200C814201D2D5
:1008D00051F00101DBB2DFF8600510EB8300016429
:1008E000002A01D5502000E01000DBB2DFF84845B7
:1008F0001C1984F86000012010BC704710B402007D
:10090000D2B2002A03D14FF47F40014201D000202F
:100910001BE00020C0B2082812DA012383400C003B
:10092000A4B21C420AD0C0B2DFF80C3513EB80032E
:100930001B6C002B02D1012383409943401CE9E743
:10094000DFF8F404A0F86810012010BC704738B537
:100950000400DFF8E40490F86A00DFF8DC1411EB1F
:100960008000056CDFF8D00490F80F11DFF8C804A0
:10097000008AFFF704FD15F00301DFF8BC2412EB39
:10098000C1012031DFF8B024AB089B00D360DFF851
:10099000A8248B78D3740A8802FB00424A600022A4
:1009A000D2B2042A10DAD2B2DFF88C3413EBC203CD
:1009B0005B6A1B1B002B05D5D2B2DFF87C3413EB2E
:1009C000C2035C62521CEBE7DFF86C2492F86B20E8
:1009D000002A09D0DFF8602492F96B2010FA02F2A5
:1009E0001219DFF85434DA6631BD2DE9F84F0600EC
:1009F000DFF8280D871900240020C0B204281EDA71
:100A0000C0B2DFF8341411EBC00120310A88002A8B
:100A100013D04A68B21A002A09D464B2002C01D556
:100A2000002400E064B2012181400C4305E04A68E3
:100A3000BA1A012A01DB49680F00401CDDE764B2E5
:100A4000002C01D138007AE000200500C0B28146B8
:100A50008046012082461FFA8AFABAF1000F43D07D
:100A6000DFF8D403B0F868001FFA8AFA50453BD388
:100A7000DFF8C403B0F868101AEA010F2FD064B28F
:100A80005FFA88F8DFF8B00310EB880090F84000B8
:100A900010F0030054FA00F0C00720D55FFA88F880
:100AA000DFF8940318EB000090F860B01BF00F0122
:100AB000DFF8840390F8780002F00CFF00280ED1D4
:100AC0005FFA8BFB5FEA1B11DFF86C0390F878008C
:100AD00002F009FF002802D15AEA09096D1C5FEAF9
:100AE0004A0A18F10108B6E7EDB2002D01D138002D
:100AF00025E002F010FE83465FFA8BFB02F00BFE4E
:100B000050EA0B2080B2EDB290FBF5F105FB110528
:100B10000120824600208046484680B210EA0A0F33
:100B200008D0EDB2002D04D1C34880F86A803000AF
:100B300005E06D1E5FEA4A0A18F10108ECE7BDE81E
:100B4000F28F80B5BC48002180F80F11BA4890F8A8
:100B50005001B94911EB8000006C80088000B64953
:100B6000C860032002F0C8FE012180B202F0CFFE6F
:100B7000182180B202F0D2FEAF49088201BD80B5D3
:100B800002F0C9FD032190FBF1F201FB1200AA491A
:100B900081F86A00A8480E2180F87710052100200E
:100BA000FFF7CAFD0120FFF708FEA348B0F8740064
:100BB000000501D503F00DF89F48406A9E49086082
:100BC00001BD80B59C48B0F874004FF2FF71084039
:100BD0009949A1F874009848406A97490860964876
:100BE00090F86A00032807DA934890F86A00C01C5E
:100BF000914981F86A0042E08F4890F87800002817
:100C000025D105210120FFF797FD02F084FD032186
:100C100090FBF1F201FB1200874981F86A008648D7
:100C200090F80C01052806DA834890F80C01401C66
:100C3000814981F80C0104207F4991F90C11884009
:100C4000401EC0B2FFF72FFD50F0010019E07A48B6
:100C500090F86A00052801D1002003E0764890F85A
:100C60006A00801E744981F86A00734890F8780021
:100C700003F02EF80100C9B20120FFF75DFD5FF41B
:100C8000C03002BD10B5040001F04AFA10BD10B525
:100C900004002000C0B202F042F901F041FA10BD98
:100CA00000206549C1F8E4006349C1F8E0006248EA
:100CB000002180F87A1000205F4981F8ED005E493C
:100CC00081F8EC005C4981F8EA005B4981F8E800B2
:100CD0000020594981F8F000574981F8F100564940
:100CE00081F8F800544981F8EF005348002180F85A
:100CF000FB105148002180F876104F487FF00B011F
:100D000080F8E9104C48032180F8F2104A48DFF8D7
:100D1000CC1AC0F8F4104848052180F85011464814
:100D2000DFF8B81AC0F808114348032180F8FC1016
:100D3000704700006C0200207202002070B53E482F
:100D400090F80F01182801D002F043FF3D4C14F138
:100D50000D00FFF7A3F905000D212000FFF7D1F9E1
:100D6000ADB2854201D000205CE0201DFFF79CF968
:100D700005022D0A3048006F854202D05FF0FF3037
:100D800050E02D4890F8600110F0FC002A4981F8ED
:100D900060010222DFF8481ADFF8480A01F0B1FBCF
:100DA00025484068DFF8401A08182349C1F85C015B
:100DB00014F10900FFF778F91F49C1F864011E48D2
:100DC00090F8600150F001001B4981F8600114F1B6
:100DD0001600FFF763F9060016212000FFF791F9CE
:100DE000B6B2864201D001201CE014F10F00FFF7DB
:100DF0005BF900121049C1F86C0114F11200FFF701
:100E000053F900120C49C1F870010B48E17B80F8DE
:100E10006811094890F8600150F00200064981F815
:100E20006001022070BD0000945D00087602002081
:100E3000BC01002058620008480000202062000821
:100E400060010020580100205C0100205C0F0100BF
:100E5000A3703D002DE9F04F8DB0DFF8AC8C98F811
:100E600000008DF809009DF8090010F0E0008DF8F1
:100E70000800DFF8A80D90F80F01099009980C28D8
:100E80000CDB9DF809000321084207D19DF80800FA
:100E900060280AD09DF80800A02806D0DFF87C0D55
:100EA000002180F80F1100206EE298F805000690EE
:100EB00018F10100FFF7F8F80B9018F10600FFF7A2
:100EC000EDF80400069810F00F0008900698C0F3A3
:100ED000401010F001000A90089810F108050998D8
:100EE000001F03900B98DFF8341DD1F8DC10884206
:100EF000D4D10398A842D1DB5FF0FF3004900020EA
:100F000007900398854203DA15F8080004906D1CD9
:100F1000DFF8080DD0F8E000DFF8001DD1F8E01090
:100F2000611A09B20C1803980190CDF800800123D2
:100F30002200DFF8E80CD0F8DC10DFF8E40CFFF753
:100F40001CF90028AAD0DFF8D40CD0F8E0008442C5
:100F50001AD2DFF8C80CD0F8E000A0429EDBDFF820
:100F6000BC0CD0F8E000401E844209D1DFF8AC0C84
:100F700090F8E800002803D09DF80800A02800D0D1
:100F80008CE7012007900FE0DFF8900C611CC0F89F
:100F9000E0109DF80800A02801D1202000E00020EA
:100FA000DFF8781C81F8E800DFF8700C90F8E800B2
:100FB000002802D10698C00609D5DFF8600CB0F809
:100FC000740050F01000DFF8541CA1F87400DFF832
:100FD0004C0C002180F8EA10DFF8400C7FF00B0188
:100FE00080F8E910DFF8340C90F90800B0F1400601
:100FF000DFF8280C008AFFF7AEF9301A0590059843
:10100000002801D5002005E00598FF2801DBFE201F
:1010100000E00598DFF8041C81F8EB0018F10806E1
:1010200000270898874280F25881B85D022812D0C4
:10103000032812D0042800F0AF80052871D00628BC
:1010400068D0072800F0BD80112800F0E280122847
:1010500000F0F28041E1FF1CE3E7B81990F801903D
:10106000B819801CFFF71AF88246B819007910F0F9
:10107000F0008DF80100B819007910F00F008DF81C
:1010800000007F1DDFF8940B872180F8EC1051469B
:1010900089B29DF80100FFF731FC002809D1DFF883
:1010A0007C0B90F8EC0010F0FE00DFF8701B81F86C
:1010B000EC005FFA89F95FEA191B5846C0B202F0EA
:1010C00011FE00280ED1DFF8540B90F8EC0010F060
:1010D000FD00DFF8481B81F8EC00DFF8400B90F8CA
:1010E00078008346DFF8340B9DF8001080F8761006
:1010F0005FFA89F919F00F00DFF8541C425659467F
:10110000C9B20420FFF71DFBDFF8100B012180F8A6
:10111000EA1086E7DFF8040B012180F8ED107F1C50
:101120007FE7B819407810F00F09B819801CFFF755
:101130009AFB82467F1DDFF8E40A802180F8F810D0
:101140004846C0B202F0CEFD002809D0DFF8CC0A34
:1011500090F8F80050F00200DFF8C01A81F8F800AB
:10116000BAF1000F09D0DFF8B40A90F8F80050F097
:101170000100DFF8A81A81F8F800DFF8A00A90F85B
:10118000F800832807D1DFF8940A80F8F290DFF89E
:101190008C0AC0F8F4A044E7B81990F80190BF1C7D
:1011A000DFF8780A19F00F0180F86B1002F003FBEA
:1011B000DFF8681AC866DFF8640A012180F8F010C9
:1011C0002FE7B81990F80190B819801CFFF74BFB76
:1011D0008246B81990F805B0DFF8400A802180F8FF
:1011E000F110BAF1000F13D05FFA8BFB5A4651464B
:1011F0004846C0B2FFF74AFB002809D0DFF81C0AB6
:1012000090F8F10050F00300DFF8101A81F8F100B7
:10121000BF1DB819401CFFF726FB3F1D8021002889
:1012200005D051F00101DFF8F429C2F80801DFF818
:10123000EC2982F8FB10F4E6DFF8E00990F874007E
:10124000800748D4B819C078DFF8D01981F8500168
:10125000DFF8C809B0F8740050F00200DFF8BC19DC
:10126000A1F87400DFF8B40990F8FA00002801D161
:1012700002F0AFFCDFF8A40990F80F11DFF89C0929
:10128000008AFFF77CF88146B819401CFEF706FF7C
:10129000DFF888194968B1EB090980B20A2148438F
:1012A0004FF4004181FB00014FF47A72002301F0FA
:1012B000A3FE10EB0900DFF8541C0818DFF85C19D6
:1012C000C1F85C01DFF85409002180F860110121A8
:1012D0000A20FFF714F93F1DA3E6079800281CD148
:1012E0000498002819D40398401B012815DB0498A2
:1012F000012802DADFF8280901E0DFF8140C03996D
:10130000491B019115EB0801009101232200DFF830
:101310000C19D1F8DC10FEF7B4FFDFF8000990F8E3
:101320000C0100280ED00A98002801D0802000E08F
:101330004020DFF8E81891F80D110843DFF8DC18B9
:1013400081F80D010498002813D5DFF8D00890F833
:101350000D0150F02000DFF8C41881F80D010020C5
:10136000DFF8B81881F80F01DFF8B01881F80E0126
:1013700009E0DFF8A80880F80E510398401BDFF859
:101380009C1881F80F0101200DB0BDE8F08F80B5E9
:10139000DFF83C0D022180F80D11DFF8340D90F8D4
:1013A000F20002F0A9FADFF8281D0882DFF8200D0C
:1013B000DFF81C1DD1F8F410C160DFF8140D002116
:1013C00080F80F11022002F0CBF901BD38B50400FE
:1013D0000D00DFF8FC0C00682018DFF8F41C91F811
:1013E000F210DFF8302B52F82110032202FB01002B
:1013F000DFF8DC1C48602A00DFF8D40C4068B0F14C
:101400004101DFF8040D02F016FA31BD10B50400F9
:10141000DFF8BC0C012180F80D110121DFF8B00CC0
:10142000008A02F074FADFF8A81C0882DFF8A00C2A
:10143000002180F80F11DFF8980CC461022002F03F
:101440008FF910BD7C61000870B504000D00DFF855
:10145000CC07867CDFF8C407B0F8740040F2026164
:10146000084040F2024188420DD1DFF8800CFFF7BE
:101470008EF8DFF8A807B0F8740050F40070DFF8B9
:101480009C17A1F87400DFF89407807C07280CD122
:10149000DFF8880700682018401FDFF880174860D1
:1014A000DFF878070821817412E0DFF87007006820
:1014B0002018F6B2DFF85C1A51F82610032202FB5E
:1014C0000100DFF858174860DFF8500705218174E4
:1014D0002A00DFF848074068B0F14101DFF8280C26
:1014E00002F0A9F970BD0000C05570338125DB33CF
:1014F000C0FDD13351CED53300A1BC33C1C8C533F3
:10150000A091D63310B504000820FFF7C0FB10BD32
:101510002DE9F041DFF8040790F80D01012807D10B
:10152000DFF8F80690F80F01002801D102F051FB16
:10153000DFF8E80690F87400000601D402F049FBD9
:10154000DFF8D80690F80F0100284BD1DFF8CC0661
:1015500090F87400400726D4DFF8C00690F87400B5
:10156000800601D402F035FBDFF8B006B0F8740055
:101570004FF65F710840DFF8A416A1F87400DFF899
:101580009C0690F87A000A2808DADFF8900690F8AE
:101590007A00401CDFF8841681F87A000920FFF7F2
:1015A00076FB0120B8E0DFF87406B0F874004FF65F
:1015B0007F710840DFF86416A1F87400FFF701FBA3
:1015C0000400E00702D5DFF8445B01E0DFF8405B90
:1015D00002F0F1F82A002118DFF82C0B02F02BF9A9
:1015E000012099E0DFF8340690F81041DFF82C066E
:1015F00090F80F51EDB2DFF82406281810F5867028
:10160000FEF752FD0600EDB2112D02D0EDB2212DF4
:1016100004D1E4B214F0E300202800D096E7EDB244
:10162000691EDFF8F00AFEF71EFEEDB2291FDFF893
:10163000D804FEF700FE0028F0D0DFF8DC0AFEF741
:1016400033FD0700DFF8D405C0F8DC70DFF8CC0A02
:10165000FEF72AFD000ADFF8C41508670020FFF72F
:10166000ACF8EDB2122D1BDB0E2005005FF0030875
:101670005FFA88F8B8F1080F12DAEDB2DFF89C05CE
:10168000281800F20F10FEF70FFD5FF0FF32010A7D
:101690004046C0B2FFF7FAF818F10108ED1CE7E781
:1016A000DFF86C38DFF87825DFF8681ADFF86C05AA
:1016B000B0F8BA00401E80B2FEF71DFEDFF85C05F0
:1016C00090F874002421084201D102F082FADFF878
:1016D0004C0590F8740080060DD5DFF8400590F8B1
:1016E0007A10DFF8380590F8780002F009FBDFF88F
:1016F0002C1581F87800DFF82405B0F874004FF657
:1017000059510840DFF81415A1F87400FFF7C8FA22
:101710000620FFF7BCFA0120BDE8F081000050462A
:1017200010B50400DFF8F40490F80F01002804D18C
:10173000DFF8E804002180F80D11FFF7E9FE10BD85
:1017400010B50400DFF8C00CFFF760FE10BD10B547
:101750000400DFF8B81C5FF42030FFF775FE10BD01
:1017600010B50400DFF8B40490F80F01002804D18C
:10177000DFF8A804002180F80D1100F0EBFA10BD8D
:1017800010B50400DFF89404DFF8841CC161FFF792
:10179000FEFD10BD10B50400DFF8800490F80F01C5
:1017A000002803D000F0D6FA002805D1DFF8641C29
:1017B0005FF48030FFF70AFE10BD10B50400DFF8BB
:1017C000580CFFF723FE10BD10B50400DFF84C1CC9
:1017D0004FF40040FFF738FE10BD000008E6D33399
:1017E00050000020A001002047E8FFFFF0B583B0C3
:1017F000DFF8280490F8740010F01800102801D0C9
:10180000012400E00024E4B2002C04D0DFF80C0432
:1018100090F8845000E000250826DFF80004B0F8B6
:10182000740040F20241084040F20241884215D162
:10183000DFF8E8033018102180F81011DFF8DC031E
:1018400090F8FC00DFF8D41391F8FD1050EA011075
:10185000DFF8C813711881F81101B61CDFF8BC035A
:1018600090F8F00000280BD0DFF8B0033018042106
:1018700080F81011761CDFF8A403002180F8F01026
:10188000DFF8980390F8F800002816D0DFF88C03F2
:101890003018052180F81011DFF880033018DFF8C8
:1018A0007C1391F8F81011F0030180F81111B61CA7
:1018B000DFF86803002180F8F810DFF8600390F883
:1018C000ED0000281AD0DFF854033018062180F804
:1018D0001011DFF848033018DFF8401391F8EB10CF
:1018E00080F81111FEF70BFCDFF83013711881F846
:1018F0001201F61CC948002180F8ED10C74890F885
:10190000EC00002812D0C5483018032180F81011CF
:10191000C2483018C14991F8EC1011F0070180F865
:101920001111B61CBD48002180F8EC10BB4890F89E
:10193000FA00002805D0B9483018122180F810119B
:10194000761CB64890F8EA00002810D0B34890F909
:10195000E900002801D5002002E0B04890F9E90034
:10196000AE4981F8E900AD48002180F8EA10AB48A3
:1019700090F8FB00002812D0A8483018112180F8F8
:101980001011A6483018A54991F8FB1011F001017B
:1019900080F81111B61CA148002180F8FB109F4867
:1019A00090F8F100002810D09C483018072180F8EA
:1019B00010119A483018994991F8F11080F81111D6
:1019C000B61C9648002180F8F110192E01DB02F0B8
:1019D00000F9E4B2002C02D0EDB2681D00E0042052
:1019E0008719FFB2412F03DB00200400301D0700E0
:1019F0008A48402180F81011884890F9E9000028B1
:101A000001D4402000E00020844991F8E810834A86
:101A100092F8EE20114308433100083908437F490A
:101A200081F815017D48D0F8DC10DFF8E806FEF7F4
:101A300056FB7A4890F80C01002806D17748D0F878
:101A4000E400401C7549C1F8E4007448D0F8E40093
:101A5000411E89B2DFF84C0AFEF73CFB6F480021BB
:101A600080F8E810E4B2002C3AD06C4890F883007B
:101A700000280AD06948802180F81011674890F842
:101A80000C01401C654981F80C0164483018634919
:101A900091F8821080F81011EDB22A00DFF8081AD0
:101AA0005E48301800F2111000F02BFD5B4890F8F2
:101AB0008200002801D15A4801E0DFF85404EDB259
:101AC00001955649711801F21111009100235349F3
:101AD000D1F8E4104A1E5149D1F8DC10FEF7D1FBD1
:101AE000FFB2381F01900848009000234B48D0F8FF
:101AF000E400421E4948D0F8DC104948FEF766FB76
:101B0000464880F80F71F7BD5801002010B5040059
:101B1000002001F025FEDFF8F00501F05FFE3F48F0
:101B200090F80F0100280CD13C48B0F874004FF633
:101B3000FC7108403949A1F874000120FFF7A7F8AB
:101B40002CE0FFF7FBF8012810DA3448002180F878
:101B50000F11032001F004FEDFF850292F48D0F8C0
:101B60005C11DFF8A40501F066FE17E001210D20ED
:101B7000FEF7C5FC2948B0F874004FF6FE71084026
:101B80002649A1F874002548B0F8740050F002000E
:101B90002249A1F874000220FFF779F810BD80B542
:101BA0001E48D0F8DC00002804D01C4890F87400CF
:101BB000400701D502F00DF8184890F8740040066F
:101BC0002AD40020154981F86001144981F8E80001
:101BD000124981F80C011148B0F874004FF67F717A
:101BE000084050F001000D49A1F87400FEF7A9FF6C
:101BF00001F0E1FD10F581000849C1F85C010749D9
:101C00004860DFF8A82805484168DFF8FC0401F0C7
:101C100012FE032001F0A4FD01BD000048000020D9
:101C20000401002010B50400DFF8840890F8740067
:101C30004321084201D000200AE0DFF8740880F850
:101C4000FA402000C0B2002801D1FFF7A8FF012010
:101C500010BD38B50400DFF85C582C70681C01F02A
:101C600035F915F1090001F039F9DFF84408B0F849
:101C7000BA1015F11100FEF72DFA13212800FEF716
:101C8000C8FADFF82C08172180F80F11DFF82008B8
:101C9000B0F8BA00401CDFF81818A1F8BA0031BD3E
:101CA00010B504000520FEF7F2FF10BD80B5DFF887
:101CB0002004D0F8DC00002830D1DFF8140490F8BC
:101CC00074009021084201D001F083FFDFF8000486
:101CD000B0F874004EF2DE710840DFF8F413A1F89A
:101CE00074000020DFF8E81381F80C01DFF8E0133E
:101CF00081F87A00FEF743FFDFF8D403B0F87400F0
:101D000050F00400DFF8C813A1F87400DFF8A8173A
:101D1000DFF8F40301F079FD012000E0002002BDAE
:101D200010B50400DFF8880790F80F0100280CD0E8
:101D3000DFF87C07042180F80D11FFF78BF80028ED
:101D400003D00D20FEF7A3FF01E000F0E9F910BD7C
:101D50001463000880B5DFF8580790F87400000697
:101D600001D401F036FFDFF8480790F80F01002892
:101D700040F0B180DFF8380790F80C01002820D03F
:101D8000DFF82C0790F80C01092814DA0321DFF89A
:101D900020074068FEF7ADFCDFF81407B0F87400C8
:101DA0004FF67F710840DFF80817A1F8740000F0C3
:101DB000B7F90120A8E0DFF8F806602180F80D11DE
:101DC00004E0DFF8EC06202180F80D11DFF8E006D2
:101DD00090F8E900401CDFF8D81681F8E9000020EF
:101DE000DFF8CC1681F80F01DFF8C41681F80E0178
:101DF000DFF8BC06B0F874004FF677710840DFF8E2
:101E0000B016A1F87400DFF8A80690F80D010721BC
:101E1000084213D0DFF89806B0F87400C0040DD55E
:101E2000DFF88C06B0F874004EF6FF710840DFF85A
:101E30008016A1F874000F20FEF729FF0A20FEF794
:101E400026FFDFF86C0690F9E9000D281EDBDFF8AD
:101E5000600690F8780001F03BFF7FF07F02010000
:101E6000C9B20320FEF76DFCDFF84406062180F8B6
:101E7000E910DFF83C06B0F8740050F48150DFF848
:101E80003016A1F874000E20FEF701FFDFF82006DF
:101E900090F8FA0000281CD0DFF8140690F87400BF
:101EA000800708D50220FEF7F2FEDFF804060021C5
:101EB00080F8FA100DE0DFF8F80590F8FA00401EFF
:101EC000DFF8EC1581F8FA00C0B2002801D1FFF765
:101ED00066FE012018E0FEF7BDFF002808D1DFF8FC
:101EE000D00590F80D01C00701D500200CE041E7B6
:101EF000DFF8BC057FF00B0180F8E910DFF8B005D2
:101F0000002180F87A1073E702BD0000A400C0FF32
:101F100014010020206200082DE9F04104006C4803
:101F2000D0F85C516A4890F86061694890F80F01F8
:101F3000002868D0FEF702FF012864DB04200700B8
:101F40000320064204D100210D20FEF7D8FAB0E0AC
:101F50005F48D0F85C01404215EB00085C4890F8FF
:101F6000F900002811D05A48B0F87C000FFA88F820
:101F70005749B1F97C10B8EB0101554A92F8F920A4
:101F8000521C91FBF2F111EB0008514890F86001EE
:101F900040071DD44E48B0F87C00B0EB080000B2FA
:101FA000002801D500B240424949A1F87E004849C5
:101FB000B1F9801000B2814202DA4549A1F88000EF
:101FC000434991F8601111F0F701414A82F860111C
:101FD0003F48A0F87C8000203D4981F87A003C49C8
:101FE00081F8F9003A4890F8600110F0FB00384998
:101FF00081F86001364890F860010321084246D11B
:1020000001F0E7FD43E0032007003148D0F85C0110
:1020100010F580002E49B1F97C10401A2C49C1F806
:102020005C012B48D0F8640180302949C1F8640173
:10203000274890F8F900401C254981F8F90004214F
:102040002348D0F85C01DFF874241018FEF751FB28
:102050001F4890F8F900152807DB1D48B0F87400F8
:1020600050F020001A49A1F87400194890F8510165
:1020700065280CDB1648B0F874004FF6DD110840F7
:102080001349A1F874000B20FEF701FE1EE00321A6
:102090000020FEF7F3F90E49D1F85C1111F580012B
:1020A000081A0B49C1F8540109480949897C80F88C
:1020B00051110748B0F87400800503D5DFF800041B
:1020C000FEF765FA3800C0B2FEF7E1FDBDE8F08129
:1020D0004800002010B50400DFF8D403DFF8E41353
:1020E000C161022001F03CFB10BD00004401002052
:1020F00010B50400DFF8B803DFF8CC13C16102208B
:1021000001F02EFB10BD00005C000020051500084A
:10211000850C0008590100205F0100205B010020B0
:102120002DE9F843DFF8880390F87400C1210842D4
:1021300040F06881DFF87803D0F8DC00002808D18F
:10214000DFF86C0390F87400400702D4FFF7AEFD8F
:1021500058E101F030FB040000250026DFF85003B1
:1021600090F87400800710D514F14100DFF8401397
:10217000D1F85411401A012801DB01F02AFDDFF8E3
:102180003003D0F8540141380500DFF8240390F8FB
:1021900074003C21084200F0CA80DFF8140390F874
:1021A00074002421084201D0012700E00027DFF855
:1021B0000003B0F87400000512D52000FEF715FCEE
:1021C000DFF8EC1208600600DFF8E402B0F87400F3
:1021D0004FF2FF710840DFF8D812A1F8740003E055
:1021E000DFF8CC0200680600DFF8C40290F86B004C
:1021F000002805D1DFF8B802B0F87400C00509D591
:10220000DFF8AC02C06E301A002803D5DFF8A00258
:10221000C06E0600DFF8980290F87400800714D5AD
:10222000FFB2002F02D05FF4902001E05FF4403055
:102230008019401B012808DB1021DFF880024019BB
:10224000FEF757FA0020060076E0301B41380028E0
:1022500064D5DFF85C0290F87880FFB2002F1DD0C3
:10226000DFF84C0290F8740080060BD5DFF84002CE
:1022700090F87A104046C0B201F042FD8046C0207E
:10228000814601E0002081464846C0B2FFF7E1FCEC
:10229000DFF81C02DFF83412C1611EE08448D0F878
:1022A000E40010F1010F09D181480021C0F8DC10D1
:1022B000FFF7FCFC0C20FEF7EAFCA3E0FFF796FA20
:1022C0007B4890F80C018249415C4046C0B201F065
:1022D00017FD804676487F49C1614046C0B201F093
:1022E00021FD734991F8791080B201F023FD704906
:1022F00008826F4880F812806D48B0F874004FF67D
:10230000EF61084050F408606949A1F8740030009A
:10231000FEF71DFB012001F023FA73E0644890F8FA
:102320007400800768D5002E06D1761C04E0604852
:1023300090F87400800765D55D48B0F8740080059A
:1023400039D514F141015E48FEF777F9002832D003
:10235000002E05D05648D0F80401301A00284BD47E
:102360005348534991F8FF10817451485049D1F8AE
:10237000041141604E484E49D1F80811C1604C48E3
:1023800090F8FC0001F0B8FA494908824848002159
:1023900080F80F1146484068001B4130002801D5E5
:1023A00001F017FC4C4A42484068B0F141014B48EB
:1023B00001F041FA26E0002E02D0701B00281BD449
:1023C000FEF7BFFB3A483A4991F8511181743848F9
:1023D0003749D1F854114160601B002806D43448B5
:1023E0003849C161022001F0BBF90BE03C4A2900E9
:1023F0003A4801F020FA05E03A4AB6F1410137487F
:1024000001F019FABDE8F18321170008411700080F
:10241000611700088117000895170008BB1700080E
:1024200010B5002001F09CF92C4801F0D7F94FF4C9
:10243000BA7200211E4800F059F81D480021C0F86A
:10244000DC1001F068F90400E4B201F064F950EA2C
:1024500004201749A1F8BA0015480021A0F874100B
:102460001348002180F879101148802180F8EE107F
:102470000F48032180F8F2100D481B49C0F8F410F2
:1024800010BD0B484021A0F87410704780B5084873
:10249000B0F8740050F010000549A1F87400FFF77F
:1024A0003FFE01BD5E010020CD0000200D1B000895
:1024B0004800002058010020A11C00085C0F01000A
:1024C00044010020191F0008211D00084F170008B3
:1024D000A8630008C9170008F12000085C0000206C
:1024E000D5200008850C000808E6D33370B5040039
:1024F0000D0016002A003100200001F023FC20000E
:1025000070BD70B504000D001600320029002000D7
:1025100001F04CFC200070BD10B400221000042813
:1025200020DADFF8882952F82020DFF8803953F8C4
:10253000203013F47F431B0253EA0262DFF86C3948
:1025400053F820301B0A13F47F431A43DFF85C3939
:1025500053F8203052EA1362DFF8503943F8202054
:10256000401CDCE7DFF84429D26811002C2835DA5A
:10257000042290FBF2F303FB1203002B21D10A0C7F
:10258000D2B2DFF82C39D25C0B0ADBB2DFF820497B
:102590001B5D1B0493EA02620B00DBB2DFF81049FB
:1025A0001B5D92EA0322090EDFF80439C95C514031
:1025B000021F042392FBF3F2DFF8F83853F82220CD
:1025C0005140DFF8E82812EB800252F8102C5140FD
:1025D000DFF8D82842F82010401CC7E710BC70472D
:1025E0002DE9F84F04000D001600FFF795FF2007B6
:1025F0000DD50020DFF8C018C860DFF8BC1888606F
:10260000DFF8B4184860DFF8B018086067E0DFF85A
:10261000A8080068DFF8A018096811F47F410902D2
:1026200051EA0060DFF890180968090A11F47F4147
:102630000843DFF88418096850EA1160DFF8781859
:102640000860DFF874084068DFF86C18496811F416
:102650007F41090251EA0060DFF85C184968090A05
:1026600011F47F410843DFF85018496850EA1160BF
:10267000DFF844184860DFF840088068DFF8381851
:10268000896811F47F41090251EA0060DFF82818D7
:102690008968090A11F47F410843DFF81C1889682A
:1026A00050EA1160DFF810188860DFF80C08C06885
:1026B000DFF80418C96811F47F41090251EA00608B
:1026C000DFF8F417C968090A11F47F410843DFF8FD
:1026D000E817C96850EA1160DFF8DC17C8603000FD
:1026E00040B20128C0F2DD835FEA447C04D414F0D8
:1026F0000A0CBCF1020F14D1DFF8BCC7DCF800C033
:102700006046DFF8B4C7DCF804C06146DFF8A8C74C
:10271000DCF808C06246DFF8A0C7DCF80CC06346EE
:1027200053E05FEA847C13D5B6B2112E10DA5FF065
:10273000000C6346624661466046B6B2102E02D176
:102740005FF0010C01E05FF0020C54EA0C143CE075
:102750005FF0000CE246BAF1100F1BD2B6B2B245E0
:1027600002D21AF805C007E0B6B2B24502D15FF056
:10277000800C01E05FF0000C5CEA09291AF0030C00
:10278000BCF1030F03D1080011001A004B461AF1E7
:10279000010AE0E75FEA847C17D5DFF81CC7DCF8A4
:1027A00000C09CEA0000DFF810C7DCF804C09CEA17
:1027B0000101DFF804C7DCF808C09CEA0202DFF878
:1027C000F8C6DCF80CC09CEA0303DFF8E0C6E0467C
:1027D00018F1800BCDF800B0D8F800C09CEA0000DA
:1027E000D8F804C09CEA0101D8F808C09CEA0202AB
:1027F000D8F80CC09CEA0303D8F814C0E146D8F816
:1028000018C06746D8F81CC0E646D8F810C0E246A3
:1028100084465FFA8CFCDFF8A4B65BF82CC09CEA17
:1028200009095FEA102C5FFA8CFCDFF894B65BF8BC
:102830002CC09CEA07075FEA104C5FFA8CFCDFF8BB
:1028400084B65BF82CC09CEA0E0E5FEA106CDFF8D1
:1028500078B65BF82CC09CEA0A0A8C465FFA8CFCBE
:10286000DFF858B65BF82CC09CEA07075FEA112C2A
:102870005FFA8CFCDFF848B65BF82CC09CEA0E0EC1
:102880005FEA114C5FFA8CFCDFF838B65BF82CC0BD
:102890009CEA0A0A5FEA116CDFF82CB65BF82CC0E0
:1028A0009CEA090994465FFA8CFCDFF810B65BF8E5
:1028B0002CC09CEA0E0E5FEA122C5FFA8CFCDFF84B
:1028C00000B65BF82CC09CEA0A0A5FEA124C5FFA79
:1028D0008CFCDFF8F0B55BF82CC09CEA09095FEAD4
:1028E000126CDFF8E4B55BF82CC09CEA07079C4645
:1028F0005FFA8CFCDFF8C4B55BF82CC09CEA0A0ACE
:102900005FEA132C5FFA8CFCDFF8B4B55BF82CC0DF
:102910009CEA09095FEA134C5FFA8CFCDFF8A4B566
:102920005BF82CC09CEA07075FEA136CDFF898B5E8
:102930005BF82CC09CEA0E0ED8F824C06146D8F88B
:1029400028C06246D8F82CC06346D8F820C060463C
:10295000D4465FFA8CFCDFF864B55BF82CC09CEAC7
:1029600001015FEA1A2C5FFA8CFCDFF854B55BF8C2
:102970002CC09CEA02025FEA1A4C5FFA8CFCDFF87A
:1029800044B55BF82CC09CEA03035FEA1A6CDFF8DD
:1029900038B55BF82CC09CEA0000CC465FFA8CFC92
:1029A000DFF818B55BF82CC09CEA02025FEA192C2C
:1029B0005FFA8CFCDFF808B55BF82CC09CEA0303D7
:1029C0005FEA194C5FFA8CFCDFF8F8B45BF82CC0B6
:1029D0009CEA00005FEA196CDFF8ECB45BF82CC0ED
:1029E0009CEA0101BC465FFA8CFCDFF8D0B45BF8CE
:1029F0002CC09CEA03035FEA172C5FFA8CFCDFF81B
:102A0000C0B45BF82CC09CEA00005FEA174C5FFA88
:102A10008CFCDFF8B0B45BF82CC09CEA01015FEAE3
:102A2000176CDFF8A4B45BF82CC09CEA0202F446F1
:102A30005FFA8CFCDFF884B45BF82CC09CEA0000E1
:102A40005FEA1E2C5FFA8CFCDFF874B45BF82CC0D4
:102A50009CEA01015FEA1E4C5FFA8CFCDFF864B46B
:102A60005BF82CC09CEA02025FEA1E6CDFF858B4E7
:102A70005BF82CC09CEA030318F12008DDF800C0C5
:102A8000E045FFF4B9AED8F814C0E146D8F818C054
:102A90006746D8F81CC0E646D8F810C0E24684461F
:102AA0005FFA8CFCDFF814B45BF82CC09CEA0909CF
:102AB0005FEA102C5FFA8CFCDFF804B45BF82CC0E2
:102AC0009CEA07075FEA104C5FFA8CFCDFF8F4B36E
:102AD0005BF82CC09CEA0E0E5FEA106CDFF8E8B3DE
:102AE0005BF82CC09CEA0A0A8C465FFA8CFCDFF883
:102AF000CCB35BF82CC09CEA07075FEA112C5FFAA5
:102B00008CFCDFF8BCB35BF82CC09CEA0E0E5FEACD
:102B1000114C5FFA8CFCDFF8ACB35BF82CC09CEA7C
:102B20000A0A5FEA116CDFF8A0B35BF82CC09CEADC
:102B3000090994465FFA8CFCDFF880B35BF82CC07F
:102B40009CEA0E0E5FEA122C5FFA8CFCDFF870B381
:102B50005BF82CC09CEA0A0A5FEA124C5FFA8CFC14
:102B6000DFF860B35BF82CC09CEA09095FEA126CDD
:102B7000DFF854B35BF82CC09CEA07079C465FFA69
:102B80008CFCDFF838B35BF82CC09CEA0A0A5FEAD9
:102B9000132C5FFA8CFCDFF828B35BF82CC09CEA9E
:102BA00009095FEA134C5FFA8CFCDFF818B35BF895
:102BB0002CC09CEA07075FEA136CDFF80CB35BF8E4
:102BC0002CC09CEA0E0ED8F820C060465FEA1A6C52
:102BD000DFF8DCB21CF80BC090EA0C605FEA194C1D
:102BE0005FFA8CFCDFF8C8B21CF80BC090EA0C400E
:102BF0005FEA172C5FFA8CFCDFF8B4B21CF80BC04C
:102C000090EA0C20F4465FFA8CFCDFF8A4B21CF8C2
:102C10000BC09CEA0000D8F824C061465FEA196C3A
:102C2000DFF88CB21CF80BC091EA0C615FEA174C1C
:102C30005FFA8CFCDFF878B21CF80BC091EA0C410B
:102C40005FEA1E2C5FFA8CFCDFF864B21CF80BC044
:102C500091EA0C21D4465FFA8CFCDFF854B21CF8E0
:102C60000BC09CEA0101D8F828C062465FEA176CE5
:102C7000DFF83CB21CF80BC092EA0C625FEA1E4C13
:102C80005FFA8CFCDFF828B21CF80BC092EA0C4209
:102C90005FEA1A2C5FFA8CFCDFF814B21CF80BC048
:102CA00092EA0C22CC465FFA8CFCDFF804B21CF8E6
:102CB0000BC09CEA0202D8F82CC063465FEA1E6C87
:102CC000DFF8ECB11CF80BC093EA0C635FEA1A4C16
:102CD0005FFA8CFCDFF8D8B11CF80BC093EA0C4308
:102CE0005FEA192C5FFA8CFCDFF8C4B11CF80BC04A
:102CF00093EA0C23BC465FFA8CFCDFF8B4B11CF8F5
:102D00000BC09CEA03035FEA847C5DD5C4F3011C1D
:102D10005FFA8CFCE146BCF1000F44D05FEAD07C46
:102D2000E2465FEAD17C5CEA40005FEAD27C5CEA82
:102D300041015FEAD37C5CEA42025B00BAF1000F1A
:102D400001D093F08703B9F10109B9F1000FE5D182
:102D5000DFF864C1DCF800C090EA0C0CDFF858B171
:102D6000CBF800C0DFF850C1DCF804C091EA0C0CCD
:102D7000DFF844B1CBF804C0DFF83CC1DCF808C090
:102D800092EA0C0CDFF830B1CBF808C0DFF828C1AC
:102D9000DCF80CC093EA0C0CDFF81CB1CBF80CC0CB
:102DA00014F0CF04D4E4DFF810C1CCF80000DFF851
:102DB00008C1CCF80410DFF800C1CCF80820DFF817
:102DC000F8C0CCF80C3062E05FEA447C2BD5B6B298
:102DD000112E02DB5FF0100A01E0B6B2B2465FF0DE
:102DE000000CE146D14513D219F805C05FEA106B1B
:102DF0009BEA0C0C09F805C0000219F0030CBCF1A9
:102E0000030F02D1080011001A0019F10109E9E7C6
:102E1000DFF8A4C0DCF80CC01CF1010CDFF898B09E
:102E2000CBF80CC033E05FEA106C85F800C05FEAB5
:102E3000104C85F801C05FEA102C85F802C0E870DC
:102E40005FEA116C85F804C05FEA114C85F805C093
:102E50005FEA112C85F806C0E9715FEA126C85F80B
:102E600008C05FEA124C85F809C05FEA122C85F8A9
:102E70000AC0EA725FEA136C85F80CC05FEA134C73
:102E800085F80DC05FEA132C85F80EC0EB7314F0C3
:102E90000A0CBCF1020F01D01035103E54F00804AA
:102EA0001DE405480068BDE8F28F0000BC01002069
:102EB000945F0008AC6100086C020020945900087F
:102EC0009455000894510008944D000810B5040072
:102ED00008222E492000FFF714FB10BD10B5040096
:102EE00008222B492000FFF70CFB10BD10B5040091
:102EF000102228492000FFF704FB10BD10B5040084
:102F0000FFF78EFAFEF7D2FE10BDE0B500F046FCEA
:102F1000214900A800F079FC00F0ACFC07BD10B519
:102F20000400E4B2200000F0A4FEE4B22000022875
:102F30000BD0062802D00D280AD026E00120FDF78C
:102F400019FC164800F08AFE1FE0FFF79FFA1CE00C
:102F5000134890F80F1189B2114890F80E01104AE9
:102F6000801810F5887000F062FE0D4890F80F018F
:102F700001280AD10A4890F80E010949401890F832
:102F8000100110F0010000F038FE10BDE0630008F1
:102F9000E863000834630008FD2E0008246300087D
:102FA0004800002010F007007047C0F3C100C0B215
:102FB0007047C0F3C01080B2704780B2000A80B280
:102FC0007047C0F34110C0B2704710B450F8041BF2
:102FD00081B102681218001D50F8043BDC0744BFA1
:102FE000A9F10104E31852F8044B43F8044B091FFC
:102FF000F9D1EBE710BC704713F0004C03D55B42EE
:10300000524263F100039CEA210C00F0178010B5D6
:10301000644603D34942404261F1000100F00EF8DA
:10302000640004D34942404261F10001244203D5C7
:103030005B42524263F1000310BD00001B4213D1FA
:10304000094236D12AB18446B0FBF2F002FB10C22D
:10305000704700F0E7BEFCD30022002370470B004E
:103060000200002100207047904271EB030CF6D360
:1030700070B5B1FA81F4B3FA83F52C1BA340C4F107
:10308000200532FA05F63343A2405FF00046E640E1
:1030900002E05B085FEA3202841A71EB030524BF89
:1030A000204629467641F4D302000B00300000216F
:1030B00070BD012ACFD970B5140C20D0B1FA81F4BB
:1030C000B2FA82F5C4F120046419B4F12006D6D313
:1030D000B2405FF00044F440002502E052085FEA8D
:1030E0003303C61A71EB020E24BF304671466441A9
:1030F0006D41F3D302000B002000290070BD0C4687
:10310000B1FBF2F102FB11452D0445EA1045B5FB78
:10311000F2F402FB145580B240EA0545B5FBF2F02B
:1031200002FB105240EA044070BD50F8041B61B12C
:1031300050F8042BD30744BFA9F101039A180023C8
:1031400042F8043B091FFAD1EFE7704738B5040095
:103150000D00002000F072FC54F08000C0B200F0BE
:10316000B9FC2800C0B200F0B5FC012000F066FCFC
:1031700031BD38B50400002000F060FC14F07F0081
:1031800000F0A8FC002000F0A5FC0500012000F0E4
:1031900055FC2800C0B232BDF8B504000D00160081
:1031A000002000F04BFC54F08000C0B200F092FC14
:1031B0000027FFB2F6B2B74205D2FFB2785D00F049
:1031C00089FC7F1CF5E7012000F038FCF1BD10B54B
:1031D00004000120FFF7CDFF10F0F80054EA0001D1
:1031E000C9B20120FFF7B2FF10BD10B58024210045
:1031F000C9B20120FFF7AAFF10BD10B500242100BD
:10320000C9B20120FFF7A2FF10BD38B5DFF83C05B9
:10321000008AFFF7C7FE0400DFF83005008AFFF7D9
:10322000C4FE8501DFF82405008AFFF7CAFE0028E6
:1032300005D0022809D005D3032809D00AE055F0AB
:10324000080507E055F0100504E055F0180501E009
:1032500055F02005E4B2052C02D0E4B2062C01D1D1
:1032600055F00105DFF8E404008AFFF7A2FE00280C
:1032700001D155F00205DFF8D404008AFFF79DFE66
:1032800000280BD055F00405DFF8C004008AFFF7D2
:1032900094FE0100C9B22220FFF758FF2900C9B2ED
:1032A0001D20FFF753FF2001603050F00401C9B228
:1032B0001E20FFF74BFF31BD38B5DFF89004C06822
:1032C0000021C90441EA5031C004DFF884240023FE
:1032D000FFF7B4FE04000D00210CC9B20620FFF771
:1032E00035FF200080B2010AC9B20720FFF72EFF88
:1032F0002100C9B20820FFF729FF31BD10B5DFF862
:103300004C0490F9134064B2122C02DB112004002B
:1033100004E064B2022C01DA02200400A01E50F086
:103320008001C9B20920FFF711FF10BD80B510213F
:103330000120FFF70BFF0120FFF71BFF102801D032
:1033400000F047FC0120FFF742FF02210220FFF7B7
:10335000FDFE80210320FFF7F9FE01210420FFF785
:10336000F5FE99210520FFF7F1FE00212520FFF74A
:10337000EDFE05212620FFF7E9FE12212720FFF7A9
:10338000E5FED0213020FFF7E1FE40213120FFF79C
:10339000DDFEC1212820FFF7D9FE94212920FFF767
:1033A000D5FEC1212A20FFF7D1FEFFF785FFFFF7E9
:1033B000A5FF34214020FFF7C9FEDFF8900390F805
:1033C0000F01411CC9B23220FFF7C0FEDFF87C03B9
:1033D00090F80F110020FFF7B9FEDFF8700390F8A6
:1033E0000F21DFF870130020FFF7D6FE012000F058
:1033F0001AFB0320FFF7EBFE01BD80B5FFF7F5FEDA
:103400000120FFF7B6FE000601D400F0E2FB012028
:10341000FFF7DDFEFFF7F9FEFFF74EFF0A20FFF78B
:10342000A8FE10F0F00050F00801C9B20A20FFF722
:103430008DFEFFF763FF34213920FFF787FEF0216F
:103440004020FFF783FEFF211220FFF77FFEF721C8
:103450001120FFF77BFE00210E20FFF777FE0021F1
:103460000D20FFF773FEDFF8E40290F80F11222021
:10347000FFF76CFEDFF8D40290F80F21DFF8D412CA
:103480000020FFF789FE012000F0CDFA0320FFF7AE
:103490009EFE01BD80B50120FFF76BFE07210842AB
:1034A00001D000F096FBDFF8A402008AFFF77AFD56
:1034B000002802D1FFF73AFF01E0FFF79EFF01BDB0
:1034C00010B50400FFF791FE0120FFF752FE000641
:1034D00001D400F07EFB0120FFF779FEE4B2022C5C
:1034E00008D10A211D20FFF731FE74211E20FFF7AD
:1034F0002DFE03E0FFF789FEFFF7DEFE23210C20FF
:10350000FFF724FE40212320FFF720FE3320FFF7A2
:1035100030FE50F04001C9B23320FFF717FE8B4850
:10352000817C1F20FFF712FE34213920FFF70EFEA9
:10353000C0214020FFF70AFEFF211220FFF706FE00
:10354000E4B28548205CC143C9B21120FFF7FEFDFB
:10355000002000F068FAE4B2002C07D17B484068F4
:1035600000F0FCFA0620FFF732FE02E00520FFF72C
:103570002EFE10BD10B50400E4B2002C01D000F006
:1035800028FBFFF73AFE0120FFF7F3FD000601D507
:1035900000F01FFB0120FFF71AFEFFF78DFE23212D
:1035A0000C20FFF7D3FD1E210D20FFF7CFFD0B21CF
:1035B0001220FFF7CBFD12211320FFF7C7FDAA2130
:1035C0001F20FFF7C3FD12212720FFF7BFFDD821E1
:1035D0003020FFF7BBFD40213120FFF7B7FDC121AF
:1035E0002820FFF7B3FD94212920FFF7AFFDC1216B
:1035F0002A20FFF7ABFDFF212120FFF7A7FD0221C5
:103600000220FFF7A3FD80210320FFF79FFD01218A
:103610000420FFF79BFD99210520FFF797FD382136
:103620004020FFF793FD002000F0FDF94748406877
:1036300000F094FA0520FFF7CAFD10BD10B5040094
:103640000120FFF796FD0721084201D000F0C1FAE2
:103650003E48008AFFF7A6FC002804D12000C0B233
:10366000FFF788FF03E02000C0B2FFF729FF10BD7D
:103670002DE9F04100F085FA012000F0E8F900F0B2
:103680009AF8203000F06AFA022000F0E0F900F029
:1036900092F8A33000F062FA0020FFF798FD422074
:1036A000FFF767FD0400E4B2222C01D000F091FA8C
:1036B0000220FFF705FF0120FFF75BFD10F0070078
:1036C0000528F8D10125102D1BDA0026082E16DA60
:1036D0002C20FFF74EFD10F0010847465FFA88F8EE
:1036E0002C20FFF746FD10F001008045F0D01B486C
:1036F000285C57EA400019496854761CE6E76D1CBF
:10370000E1E71648102101700020FFF760FD00F08E
:103710003FFABDE8F08110B510480478E4B2002CFF
:1037200001D100F056FAE4B2102C06D110220B4958
:103730000020FEF755FF00200400E4B20748205C9B
:10374000641C06490C70C0B210BD00004800002087
:103750000048E80158010020F06300087C020020C6
:1037600010B5040000F00DFAE4B2002C05D0022CD4
:103770000AD006D3032C0BD00DE00020FFF727FD65
:1037800009E0FFF787FE06E00020FFF757FF02E0A1
:103790000120FFF753FF00F0FBF910BD80B50822B0
:1037A00000214A48FEF7A2FE00F000FAFFF760FF92
:1037B000FEF767FE01BD80B500F0B0F902BD020062
:1037C0001068002808D01068884203D1086810608B
:1037D000012002E01268F3E70020704710B50400F2
:1037E00000F0CFF921003948FFF7E9FF002805D1A3
:1037F00021003748FFF7E3FF002801D0012000E057
:103800000020C0B200F0C4F910BD70B504000D0076
:1038100000F0B7F92000FFF7E1FFA560002020606D
:103820002B4806003068002801D03668FAE734607B
:1038300000F0AEF970BDF8B504000D00160000F000
:10384000A0F92000FFF7CAFF6560A6600020206095
:103850001E4807003868002808D03868406885424C
:1038600002DA3868206001E03F68F3E73C6000F06E
:103870008FF9F1BD10B5002400F083F913484068BA
:10388000002806D0114840680400104821684160B3
:1038900013E00E48006800280DD00C48006840680E
:1038A00000F064F9002806D00848006804000748C2
:1038B0002168016001E000F074F900F069F9002C62
:1038C000D9D02000A1688847D5E7000094020020E5
:1038D00098020020C0B2C9B2884201D2012000E0A3
:1038E0000020C0B27047C9B2C0B2814201D20120EB
:1038F00000E00020C0B2704710B504002000C0B244
:1039000000F010FA012180B200F001F810BD4FF66E
:103910007F72104050EAC11080B27047C0B250EAC6
:10392000012080B27047000080B500F082FA01BD2E
:103930007047C0B2062803DA102901D2012200E044
:103940000022D2B2C0B22422DFF8443302FB00329C
:1039500001238B4053617047C0B2062803DA102957
:1039600001D2012200E00022D2B2C0B22422C84B10
:1039700002FB003201238B4013617047C54909687F
:103980000143C44A1160704770B504000D00160071
:10399000F6B2002E05D029002000C0B2FFF7DCFFF0
:1039A00004E029002000C0B2FFF7C3FF70BD80B55E
:1039B000FFF7BEFF0121B84800F08CFC0121B74899
:1039C00000F088FC002301220D21022000F034FFCA
:1039D000002301220521022000F02EFF00230122F6
:1039E0000C21012000F028FF002301220C210220DD
:1039F00000F022FF002301220721022000F01CFF1B
:103A0000002301220621022000F016FF01230522D7
:103A10000421032000F010FF0023052208210320C9
:103A200000F00AFF01BD10B50400E4B2012C04D07F
:103A3000E4B2002C01D000F0CCF810BD10B50400A9
:103A40002200D2B203210320FFF79EFF10BD704772
:103A500000B587B000A89249182200F0B7F90121FB
:103A60008E4800F037FC01218E4800F033FC012124
:103A7000894800F02FFC002304220021032000F0DD
:103A8000DBFE002302220121032000F0D5FE0023EB
:103A900004220221032000F0CFFE0123042203218F
:103AA000032000F0C9FE804800F09AFF0020ADF826
:103AB00010007E4801907E48029001208DF80E0093
:103AC00000A9794800F04BFF7A4840F20B110160E1
:103AD00007B000BD10B504002100C9B2724800F063
:103AE000BBFF714800F0B2FF10BD80B5724840685E
:103AF000401C714948600220FFF740FF012000F0A0
:103B0000CFFF01BD80B5FFF70FFF0121022001F0BB
:103B100012F86A49012001F052F801BD38B500F0F1
:103B200030F8654844686648056800F031F8ADB281
:103B300055EA044032BD10B50400FFF7EFFF010065
:103B4000621A012A01DA002007E01014002802D0CE
:103B50004FF6FF7001E0100080B210BD10B50400F8
:103B60002000FFF7E8FF0028FAD110BD10B50400CF
:103B70002000FFF7E0FF052801DA012000E0002027
:103B800010BD72B64C480068401C4B490860704735
:103B900049480068401E48490860002800D162B6C4
:103BA000704780B5002001F0A9F801BD80B508225A
:103BB00000214148FEF79AFCFFF7E3FFFFF7F7FE0D
:103BC000FFF746FFFFF79EFF00F009F8FFF7E0FF61
:103BD00001BD80B5FFF7D5FFFFF7E3FFFEE780B536
:103BE000002304220C21002000F026FE002000F01B
:103BF00004F8344800F032F801BD10B5040022008A
:103C0000D2B20C210020FFF7BFFE10BD704710B5E7
:103C10000400E4B220112C49405CFFF7F7FFE4B246
:103C200014F00F002849405CFFF7F0FF10BD38B5D5
:103C300004000D002800451E80B2002807D020781F
:103C4000FFF7E5FF641C2020FFF7E0FFF2E70D20FF
:103C5000FFF7DCFF0A20FFF7D9FF31BD10B50400E4
:103C60002078002804D02078FFF7D0FF641CF7E705
:103C700010BD10B50400154850F82400FFF7EEFF02
:103C80000D20FFF7C3FF0A20FFF7C0FF10BD0000A3
:103C9000006000401C000840006202001081020029
:103CA000406200080032020000C400400048E80101
:103CB00000350C0054C400408C020020EB3A000890
:103CC000040008404C610008B062000800000020B9
:103CD000C0B20349415CFF2900D0401EC0B270470A
:103CE0009C630008C0B2054940184078FF2801D005
:103CF000012000E00020C0B2704700BF9C630008B4
:103D000038B504000D002800451EC0B2002805D0BB
:103D10002000C0B2FFF7DCFF0400F4E72000C0B2CF
:103D200032BD0000C0B202494018407880B27047EE
:103D30009C6300084FF69F721040C9B250EA4110D0
:103D400080B2704762F30F2262F31F42401810F0F6
:103D5000030308D0C91A1FD3DB0748BF00F8012DA1
:103D600028BF20F8022D130030B414461546103930
:103D700028BF20E93C00FAD8490728BF20E90C00F9
:103D800048BF40F8042D890028BF20F8022D48BF05
:103D900000F8012D30BC7047C91818BF00F8012D7C
:103DA000CB0728BF00F8012D7047000062B38B07D6
:103DB00008D0521E11F8013B00F8013B00F02480AE
:103DC0008B07F6D1830740F0208000BF103A07D35D
:103DD00030B4B1E83810103AA0E83810F9D230BC4D
:103DE000530724BFB1E80810A0E8081044BF51F8F9
:103DF000043B40F8043BD20724BF31F8022B20F8E3
:103E0000022B44BF0B7803707047083A07D3B1E820
:103E10000810083A40F8043B40F804CBF7D25307A7
:103E2000E4E700007047000037480068000EC0B2A9
:103E3000704710B500F00AF804003448006810F02C
:103E40000F00C44032480460200010BD10B5314856
:103E5000006810F47050B0F5006F0DD0B0F5805FC1
:103E600006D0B0F5005F0BD12B48006804003EE09F
:103E70004FF4004004003AE028480068040036E0AF
:103E80002748006810F4E060002824D0B0F5807F57
:103E900017D0B0F5007F11D0B0F5407F0BD0B0F552
:103EA000806F05D0B0F5A06F1FD11E4804001EE042
:103EB0001D4804001BE01D48040018E01C480400D5
:103EC00015E0FFF7B1FF132802DB1A48040001E0F8
:103ED000194804000BE0FFF7A7FF132802DB17487F
:103EE000040001E01648040001E000200400200066
:103EF00010BD70474FF4004070474FF47A70704720
:103F00000548006870470000FC81E00F04800C4009
:103F1000A40200202C800C4044000020400000201F
:103F20000C800C40003FAB01406F4001809FD500EA
:103F3000C0D8A70040B56400C0CF6A00804F12000F
:103F400040420F008B0013EB401313F184431A60BF
:103F50007047DFF8BC170968080010F00701002956
:103F6000012903D9891E012904D906E0012161F341
:103F7000020002E0032161F30200DFF894170860F9
:103F800070470100002904D0B1F5004F01D801228B
:103F900000E00022D2B2B1FA81F2D2F11F02100089
:103FA0007047DFF86C2712681100DFF8682790422D
:103FB0000FD3DFF8642790420BD211F00702921E54
:103FC000012A03D8032262F3020102E0012262F314
:103FD0000201DFF8402790420AD211F00702921E38
:103FE000012A03D8022262F3020101E0C908C900D4
:103FF000DFF81C2711607047DFF82017096811F4FB
:10400000E06100291BD0B1F5807F14D0B1F5007FAD
:104010000DD0B1F5407F06D0B1F5C06F17D0B1F526
:10402000E06F10D017E0DFF8F816080015E0DFF8B1
:10403000F416080011E0DFF8F01608000DE0DFF8D4
:104040008817080009E0DFF88417080005E0DFF8AA
:104050008417080001E000210800704738B5DFF838
:10406000780700F020FA0500EDB22800072805D0F7
:10407000082807D1FFF7EAFE040005E0FFF7BCFFC0
:10408000040001E000200400200032BD38B5040027
:10409000002C01D0012C01D1012000E00020C0B291
:1040A000DFF8380700682100C9B24900C84010F0A5
:1040B0000300002812D0022807D002D3032808D01A
:1040C0001BE0FFF717FF050019E0FFF719FF0500D8
:1040D00015E0FFF7AEFE4008050010E0DFF8FC0633
:1040E0000068A1001031C840002803D0FFF705FF89
:1040F000050001E00020050001E000200500280087
:1041000032BDDFF8CC160968C90704D4DFF8D01631
:1041100009680142FAD170472DE9F04104000D0011
:10412000C4F303100700012F08D0C0F0D180032F83
:1041300038D01AD3042F00F0AF80C9E0002D04D08E
:10414000B5F5007F01D8012000E00020C0B22800B2
:10415000FFF717FF0500DFF894060068000900016B
:104160002843DFF888160860B2E0B5F5007F01D873
:10417000012000E00020C0B2FFF7EBFE2800FFF7AF
:1041800000FF0500DFF86806006800090001284309
:10419000DFF85C160860FFF74CFE06003000FFF702
:1041A00000FF95E02000DFF84C1688420CD0DFF8C5
:1041B0004816884221D0DFF84416884236D0DFF80E
:1041C0004016884250D066E0B5F5004F01D8012076
:1041D00000E00020C0B20420FFF793FF2800FFF7A3
:1041E000D0FE0500DFF81C06006830F0F00050EA51
:1041F0000510DFF8101608604DE0B5F5004F01D846
:10420000012000E00020C0B20420FFF77AFF280060
:10421000FFF7B7FE0500DFF8EC05006830F47060CA
:1042200050EA0520DFF8DC15086034E0102D03D3D8
:10423000812D01D2012000E00020C0B20420FFF750
:1042400060FF2800FFF79DFE0500DFF8B805006855
:1042500030F440581020FFF794FE281A58EA003036
:10426000DFF8A015086016E0092D01D2012000E05A
:104270000020C0B20420FFF744FF2800FFF781FEB2
:104280000500DFF880050068800880002843DFF81B
:1042900074150860FFE71BE0DFF86C05844216D157
:1042A000092D01D2012000E00020C0B24020FFF71C
:1042B00028FF2800FFF765FE0500DFF850050068BD
:1042C000800880002843DFF844150860FFE7FFE717
:1042D000BDE8F0812DE9F04104000D005FF0000819
:1042E000C4F30320C0B2012809D024D303280ED080
:1042F00009D3052815D00ED3062818D01BE0DFF807
:10430000EC04060018E0DFF80805060014E0DFF80A
:104310000405060010E0DFF80005060001208046D5
:104320000AE0DFF8F80406001020804604E0DFF819
:10433000F004060000E00EE0C4F304300700B8F11A
:10434000000F02D04046FFF7DCFEEDB22A00390034
:104350003000FFF7F7FDBDE8F08170B5040014F4FC
:104360007810002824D0B0F5003F25D0B0F5802F7C
:104370002CD0B0F5C02F2DD0B0F5002F2FD0B0F538
:10438000202F37D0B0F5402F40D0B0F5602F4FD060
:10439000B0F5801F60D0B0F5901F68D0B0F5A01FB9
:1043A0006AD0B0F5C01F72D0B0F5D01F73D076E0E0
:1043B000FFF74CFD050074E0FFF748FD0500DFF84E
:1043C0002C04006810F00F00C5406AE0FFF731FDD3
:1043D000050066E00020FFF759FE050061E00020BF
:1043E000FFF754FE0500DFF81C040068C0F303105B
:1043F000C54056E00020FFF749FE0500DFF8040441
:104400000068000A10F00F00C5404AE00020FFF7E6
:104410003DFE0500DFF8EC030068000B10F003061A
:104420001020FFF7AEFD801935FA00F0050038E0E6
:104430000020FFF72BFE0500DFF8C8030068000B23
:1044400010F00300C540DFF8DC03006810F007003F
:10445000401CB5FBF0F524E00020FFF717FE050037
:10446000DFF8A003006810F00300C54019E0012048
:10447000FFF70CFE050014E00120FFF707FE050022
:10448000DFF88803006810F00300C54009E0FFF77B
:10449000E5FD050005E0FFF7AFFD050001E00020A8
:1044A0000500280070BD0100012011F00F031A0063
:1044B000012A06D06CD3032A3BD01CD3042A56D041
:1044C00066E0DFF824331B6813F47053B3F5006F14
:1044D0000BD0B3F5805F05D0B3F5005F08D10223A0
:1044E000180007E00323180004E00423180001E08B
:1044F000052318004EE0DFF8E4321B6813F00303D5
:10450000012B04D00CD3032B07D003D308E00323E3
:1045100018000DE0022318000AE00623180007E047
:10452000DFF8B8321B68DB0302D509231800FFE768
:1045300030E0DFF8A8321B6813F00C03042B04D022
:10454000082B05D00C2B06D008E0032318000DE043
:10455000022318000AE00623180007E0DFF87C3287
:104560001B68DB0202D509231800FFE712E0DFF821
:10457000B8321B6813F08053002B03D0B3F1805F77
:1045800003D004E00723180001E00823180001E02D
:1045900000231800C0B270472DE9F84F04000D0049
:1045A000032603275FF0000A14F00F008146B9F1DB
:1045B000010F0AD0C0F0A980B9F1030F3CD03BD362
:1045C000B9F1040F00F086809FE0EDB228000228C8
:1045D00008D003280BD004280ED0052811D00928B4
:1045E00014D014E0042006000020070010E003208F
:1045F0000600012007000BE0022006000220070051
:1046000006E0012006000320070001E000E07CE056
:10461000012201213800C0B200F088F8FFF799FCB0
:10462000DFF8C001066000F098FBFFF702FC80464F
:104630004046FFF7B6FC68E0EDB22800012808D03C
:10464000022809D003280FD0062815D009281CD02D
:1046500020E0002083461EE001220121002000F01E
:1046600065F80220834616E001220121012000F0B6
:104670005DF8012083460EE001220221DFF894015B
:10468000FFF760FC0320834605E0002083460120FD
:10469000824600E039E0B9F1020F0DD1DFF83C01AC
:1046A0000068DFF8881108405BEA000050EA0A4021
:1046B000DFF8281108600CE0DFF820010068DFF85F
:1046C0007011084050EA8B0050EA0A50DFF80C11D4
:1046D00008601AE0EDB22800072802D0082809D0A7
:1046E00011E0DFF84401006830F08050DFF8381145
:1046F000086009E0DFF83001006850F08050DFF812
:104700002811086000E000E0FFE7BDE8F18F00003D
:1047100004000C400124F4000148E80114800C401E
:1047200040420F00C0CF6A00C0D8A7002DE9F8436F
:1047300004000D001600E4B2002C24D0022C0DD091
:104740001AD3042C11D002D3052C26D026E0012048
:104750008046022081460220070020E00420804697
:10476000082081460820070019E0102080462020FC
:1047700081462020070012E04020804680208146AC
:10478000802007000BE04FF4807080464FF40070EB
:1047900081464FF40070070001E013E012E0EDB233
:1047A000002D0AD02348C0F80080F6B2002E07D0B2
:1047B0000D480068384203D1FAE71E48C0F800905F
:1047C00000F0CBFABDE8F183809FD500406F400137
:1047D00054800C40003FAB010400180028800C40BE
:1047E00050800C4024800C402C800C4008800C40F1
:1047F00004800C403014080030240A0030000C0003
:104800003004100068800C404005140070800C409B
:1048100044800C4040800C4058800C4060800C402C
:1048200078800C407C800C4000800C40FCFFFEFF38
:10483000F3FFEFFF20800C4070B4C0B2062803DA0B
:10484000102901D2012400E00024E4B2D2B2002AEF
:1048500012D0002B08D0C0B224242F4D04FB0054EA
:1048600001258D40256107E0C0B224242A4D04FBB8
:10487000005401258D406561082919D2C0B2242455
:10488000254D04FB005464680F250E00F6B2B600F7
:10489000B540AC43D2B20D00EDB2AD0012FA05F551
:1048A0002C43C0B224251C4E05FB00656C601AE049
:1048B000C0B22424184D04FB0054A4680F250E0038
:1048C000083EF6B2B600B540AC43D2B20D00083D8A
:1048D000EDB2AD0012FA05F52C43C0B224250E4E00
:1048E00005FB0065AC60D2B2002A12D1002B08D0C3
:1048F000C0B22424084D04FB005401258D402561DD
:1049000007E0C0B22424044D04FB005401258D406F
:10491000656170BC7047000000600040F8B504009D
:104920000D001600002D03D14348FFF716FD0500CA
:1049300068000700701EC719B7FBF6F73F1F40203D
:104940004743C0373F0A3F023C48874201D201201B
:1049500000E00020C0B23A4807406761F1BD38B5B9
:1049600004000D003748844202D03748844201D108
:10497000012000E00020C0B2200000F031F8A87B48
:10498000002802D04FF4806000E000202168B5F9D3
:104990001020104350F0010008432060A87C00283C
:1049A00001D0102000E00020297D002902D05FF016
:1049B000005100E000212268084310432060287B5A
:1049C00050F480506060AA6869682000FFF7A6FF75
:1049D000687B002801D01020E0602878E06031BDBD
:1049E0001849884202D01849884201D1012100E0CB
:1049F0000021C9B240F6AA61C1600021016041F204
:104A00000501416000218160002141610021C164F4
:104A100041F6F9718164002141650A49884201D15A
:104A200000210165002181650749884201D10021EB
:104A3000C16570470000000010810200C1FF1F0027
:104A4000C0FF1F0000C0004000C40040016909060B
:104A5000FCD5C069C0B2704702695206FCD5C9B224
:104A6000416370478B0013EB401313F184431A60CA
:104A70007047022804D211F07F4F01D1012300E0DA
:104A80000023DBB2002802D0012803D005E0134B3D
:104A90001A0003E0124B1A0000E000E011607047BA
:104AA00010B50400E4B2220000210E48FFF7DAFF3F
:104AB00010BD0278002A02D00122110001E000227C
:104AC00011004278002A01D051F002018278002AB8
:104AD00001D051F00401034A1160704708000840FA
:104AE0000C0008400000084010B440B24109464A9A
:104AF000012310F01F04A34042F8213010BC70477E
:104B000010B440B24109414A012310F01F04A340F0
:104B100042F8213010BC70473D49086070473D495C
:104B2000096881433B4A116070473A49096801436B
:104B3000384A1160704738B504000D00364801212D
:104B4000017001213548FFF7C5FB2100C9B2344887
:104B5000FFF722FD29003348FFF7DEFA3148FFF75F
:104B6000FCFB3149086001212E48FFF7B3FB002010
:104B70008DF8000000208DF8010000208DF8020063
:104B800000A8FFF796FF0720FFF7C9FF1120FFF7E6
:104B9000B7FF1120FFF7A8FF31BD80B50020FFF758
:104BA0007FFF0220FFF7B8FF0220FFF7B8FF1F4882
:104BB0000068002802D01D480068804701BD38B554
:104BC00004000D000020FFF76BFF13480078002859
:104BD00003D120210320FFF7AEFF14480560022017
:104BE000FFF79AFF1048006860434FF47A71B0FBFA
:104BF000F1F10020FFF73DFF0120FFF751FF0220F8
:104C0000FFF793FF31BD000000E100E080E200E02B
:104C1000180008401C000840AA02002000230400DD
:104C20000200060030140800A00200209C020020B0
:104C300080B5FFF7FEF801BD4A48002101607047CA
:104C4000484845F60E010160704710B545480068B8
:104C500010F001000400FFF7F3FF4348008810F450
:104C6000AA70424908604048008810F47050B0F5BE
:104C7000006F16D0B0F5805F03D0B0F5005F08D0AC
:104C800017E03B4800680006FBD53A480321016065
:104C90000FE0374800688005FBD5364804210160E5
:104CA00007E0334800680007FBD532480221016065
:104CB000FFE72D480078C00702D42C48022101608C
:104CC000002C01D0FFF7B8FF10BD2B49096811F087
:104CD0003F01090208002949096811F0F001084361
:104CE00027490968C1F30311084380B2B0F5817FF9
:104CF00001DC012000E00020C0B2704730B583B075
:104D0000040019481A49096801801E48006850F0DB
:104D100004001C490860FFF7D8FF0500EDB2002D24
:104D200007D01948006819490840009018480099B0
:104D3000016030BFEDB2002D02D013480099016030
:104D4000E4B2002C02D0FFF780FF05E0064800889F
:104D5000400501D4FFF76CFF37BD034804490968DB
:104D60000180704784800C40A802002020800C4005
:104D70002C800C4024800C40E0FF0FE0E8FF0FE0A7
:104D8000ECFF0FE010ED00E000E100E0DC1CE4FFD0
:104D900080E100E0A56363C6847C7CF8997777EEB8
:104DA0008D7B7BF60DF2F2FFBD6B6BD6B16F6FDEC4
:104DB00054C5C5915030306003010102A96767CE28
:104DC0007D2B2B5619FEFEE762D7D7B5E6ABAB4D70
:104DD0009A7676EC45CACA8F9D82821F40C9C989DE
:104DE000877D7DFA15FAFAEFEB5959B2C947478E1C
:104DF0000BF0F0FBECADAD4167D4D4B3FDA2A25FE4
:104E0000EAAFAF45BF9C9C23F7A4A453967272E40B
:104E10005BC0C09BC2B7B7751CFDFDE1AE93933D6F
:104E20006A26264C5A36366C413F3F7E02F7F7F52C
:104E30004FCCCC835C343468F4A5A55134E5E5D17E
:104E400008F1F1F9937171E273D8D8AB5331316243
:104E50003F15152A0C04040852C7C795652323463D
:104E60005EC3C39D28181830A19696370F05050A12
:104E7000B59A9A2F0907070E361212249B80801BC1
:104E80003DE2E2DF26EBEBCD6927274ECDB2B27FC4
:104E90009F7575EA1B0909129E83831D742C2C587B
:104EA0002E1A1A342D1B1B36B26E6EDCEE5A5AB413
:104EB000FBA0A05BF65252A44D3B3B7661D6D6B721
:104EC000CEB3B37D7B2929523EE3E3DD712F2F5E04
:104ED00097848413F55353A668D1D1B9000000001C
:104EE0002CEDEDC1602020401FFCFCE3C8B1B1797E
:104EF000ED5B5BB6BE6A6AD446CBCB8DD9BEBE67CE
:104F00004B393972DE4A4A94D44C4C98E85858B020
:104F10004ACFCF856BD0D0BB2AEFEFC5E5AAAA4F09
:104F200016FBFBEDC5434386D74D4D9A553333668B
:104F300094858511CF45458A10F9F9E906020204E6
:104F4000817F7FFEF05050A0443C3C78BA9F9F2563
:104F5000E3A8A84BF35151A2FEA3A35DC04040803B
:104F60008A8F8F05AD92923FBC9D9D214838387045
:104F700004F5F5F1DFBCBC63C1B6B67775DADAAF1C
:104F800063212142301010201AFFFFE50EF3F3FDDC
:104F90006DD2D2BF4CCDCD81140C0C183513132615
:104FA0002FECECC3E15F5FBEA2979735CC444488F9
:104FB0003917172E57C4C493F2A7A755827E7EFCDB
:104FC000473D3D7AAC6464C8E75D5DBA2B19193280
:104FD000957373E6A06060C098818119D14F4F9E90
:104FE0007FDCDCA3662222447E2A2A54AB90903BCD
:104FF0008388880BCA46468C29EEEEC7D3B8B86BB7
:105000003C14142879DEDEA7E25E5EBC1D0B0B1695
:1050100076DBDBAD3BE0E0DB563232644E3A3A748D
:105020001E0A0A14DB4949920A06060C6C2424481D
:10503000E45C5CB85DC2C29F6ED3D3BDEFACAC4341
:10504000A66262C4A8919139A495953137E4E4D35E
:105050008B7979F232E7E7D543C8C88B5937376E79
:10506000B76D6DDA8C8D8D0164D5D5B1D24E4E9C65
:10507000E0A9A949B46C6CD8FA5656AC07F4F4F31D
:1050800025EAEACFAF6565CA8E7A7AF4E9AEAE4713
:1050900018080810D5BABA6F887878F06F25254AB5
:1050A000722E2E5C241C1C38F1A6A657C7B4B4730C
:1050B00051C6C69723E8E8CB7CDDDDA19C7474E87B
:1050C000211F1F3EDD4B4B96DCBDBD61868B8B0DDA
:1050D000858A8A0F907070E0423E3E7CC4B5B571FF
:1050E000AA6666CCD84848900503030601F6F6F791
:1050F000120E0E1CA36161C25F35356AF95757AEB7
:10510000D0B9B9699186861758C1C199271D1D3A32
:10511000B99E9E2738E1E1D913F8F8EBB398982BA4
:1051200033111122BB6969D270D9D9A9898E8E0732
:10513000A7949433B69B9B2D221E1E3C9287871505
:1051400020E9E9C949CECE87FF5555AA78282850CD
:105150007ADFDFA58F8C8C03F8A1A159808989099A
:10516000170D0D1ADABFBF6531E6E6D7C642428495
:10517000B86868D0C3414182B0999929772D2D5ADA
:10518000110F0F1ECBB0B07BFC5454A8D6BBBB6D27
:105190003A16162C6363C6A57C7CF8847777EE9963
:1051A0007B7BF68DF2F2FF0D6B6BD6BD6F6FDEB1C0
:1051B000C5C5915430306050010102036767CEA924
:1051C0002B2B567DFEFEE719D7D7B562ABAB4DE66C
:1051D0007676EC9ACACA8F4582821F9DC9C98940DA
:1051E0007D7DFA87FAFAEF155959B2EB47478EC918
:1051F000F0F0FB0BADAD41ECD4D4B367A2A25FFDE0
:10520000AFAF45EA9C9C23BFA4A453F77272E49607
:10521000C0C09B5BB7B775C2FDFDE11C93933DAE6B
:1052200026264C6A36366C5A3F3F7E41F7F7F50228
:10523000CCCC834F3434685CA5A551F4E5E5D1347A
:10524000F1F1F9087171E293D8D8AB73313162533F
:1052500015152A3F0404080CC7C795522323466539
:10526000C3C39D5E18183028969637A105050A0F0E
:105270009A9A2FB507070E091212243680801B9BBD
:10528000E2E2DF3DEBEBCD2627274E69B2B27FCDC0
:105290007575EA9F0909121B83831D9E2C2C587477
:1052A0001A1A342E1B1B362D6E6EDCB25A5AB4EE0F
:1052B000A0A05BFB5252A4F63B3B764DD6D6B7611D
:1052C000B3B37DCE2929527BE3E3DD3E2F2F5E7100
:1052D000848413975353A6F5D1D1B9680000000018
:1052E000EDEDC12C20204060FCFCE31FB1B179C87A
:1052F0005B5BB6ED6A6AD4BECBCB8D46BEBE67D9CA
:105300003939724B4A4A94DE4C4C98D45858B0E81C
:10531000CFCF854AD0D0BB6BEFEFC52AAAAA4FE505
:10532000FBFBED16434386C54D4D9AD73333665587
:105330008585119445458ACFF9F9E91002020406E2
:105340007F7FFE815050A0F03C3C78449F9F25BA5F
:10535000A8A84BE35151A2F3A3A35DFE404080C037
:105360008F8F058A92923FAD9D9D21BC3838704841
:10537000F5F5F104BCBC63DFB6B677C1DADAAF7518
:105380002121426310102030FFFFE51AF3F3FD0ED8
:10539000D2D2BF6DCDCD814C0C0C18141313263511
:1053A000ECECC32F5F5FBEE1979735A2444488CCF5
:1053B00017172E39C4C49357A7A755F27E7EFC82D7
:1053C0003D3D7A476464C8AC5D5DBAE71919322B7C
:1053D0007373E6956060C0A0818119984F4F9ED18C
:1053E000DCDCA37F222244662A2A547E90903BABC9
:1053F00088880B8346468CCAEEEEC729B8B86BD3B3
:105400001414283CDEDEA7795E5EBCE20B0B161D91
:10541000DBDBAD76E0E0DB3B323264563A3A744E89
:105420000A0A141E494992DB06060C0A2424486C19
:105430005C5CB8E4C2C29F5DD3D3BD6EACAC43EF3D
:105440006262C4A6919139A8959531A4E4E4D3375A
:105450007979F28BE7E7D532C8C88B4337376E5975
:105460006D6DDAB78D8D018CD5D5B1644E4E9CD261
:10547000A9A949E06C6CD8B45656ACFAF4F4F30719
:10548000EAEACF256565CAAF7A7AF48EAEAE47E90F
:1054900008081018BABA6FD57878F08825254A6FB1
:1054A0002E2E5C721C1C3824A6A657F1B4B473C708
:1054B000C6C69751E8E8CB23DDDDA17C7474E89C77
:1054C0001F1F3E214B4B96DDBDBD61DC8B8B0D86D6
:1054D0008A8A0F857070E0903E3E7C42B5B571C4FB
:1054E0006666CCAA484890D803030605F6F6F7018D
:1054F0000E0E1C126161C2A335356A5F5757AEF9B3
:10550000B9B969D086861791C1C199581D1D3A272E
:105510009E9E27B9E1E1D938F8F8EB1398982BB3A0
:10552000111122336969D2BBD9D9A9708E8E07892E
:10553000949433A79B9B2DB61E1E3C228787159201
:10554000E9E9C920CECE87495555AAFF28285078C9
:10555000DFDFA57A8C8C038FA1A159F88989098096
:105560000D0D1A17BFBF65DAE6E6D731424284C691
:105570006868D0B8414182C3999929B02D2D5A77D6
:105580000F0F1E11B0B07BCB5454A8FCBBBB6DD623
:1055900016162C3A63C6A5637CF8847C77EE99775F
:1055A0007BF68D7BF2FF0DF26BD6BD6B6FDEB16FBC
:1055B000C59154C5306050300102030167CEA96720
:1055C0002B567D2BFEE719FED7B562D7AB4DE6AB68
:1055D00076EC9A76CA8F45CA821F9D82C98940C9D6
:1055E0007DFA877DFAEF15FA59B2EB59478EC94714
:1055F000F0FB0BF0AD41ECADD4B367D4A25FFDA2DC
:10560000AF45EAAF9C23BF9CA453F7A472E4967203
:10561000C09B5BC0B775C2B7FDE11CFD933DAE9367
:10562000264C6A26366C5A363F7E413FF7F502F724
:10563000CC834FCC34685C34A551F4A5E5D134E576
:10564000F1F908F171E29371D8AB73D8316253313B
:10565000152A3F1504080C04C79552C72346652335
:10566000C39D5EC3183028189637A196050A0F050A
:105670009A2FB59A070E090712243612801B9B80B9
:10568000E2DF3DE2EBCD26EB274E6927B27FCDB2BC
:1056900075EA9F7509121B09831D9E832C58742C73
:1056A0001A342E1A1B362D1B6EDCB26E5AB4EE5A0B
:1056B000A05BFBA052A4F6523B764D3BD6B761D619
:1056C000B37DCEB329527B29E3DD3EE32F5E712FFC
:1056D0008413978453A6F553D1B968D10000000014
:1056E000EDC12CED20406020FCE31FFCB179C8B176
:1056F0005BB6ED5B6AD4BE6ACB8D46CBBE67D9BEC6
:1057000039724B394A94DE4A4C98D44C58B0E85818
:10571000CF854ACFD0BB6BD0EFC52AEFAA4FE5AA01
:10572000FBED16FB4386C5434D9AD74D3366553383
:1057300085119485458ACF45F9E910F902040602DE
:105740007FFE817F50A0F0503C78443C9F25BA9F5B
:10575000A84BE3A851A2F351A35DFEA34080C04033
:105760008F058A8F923FAD929D21BC9D387048383D
:10577000F5F104F5BC63DFBCB677C1B6DAAF75DA14
:105780002142632110203010FFE51AFFF3FD0EF3D4
:10579000D2BF6DD2CD814CCD0C18140C132635130D
:1057A000ECC32FEC5FBEE15F9735A2974488CC44F1
:1057B000172E3917C49357C4A755F2A77EFC827ED3
:1057C0003D7A473D64C8AC645DBAE75D19322B1978
:1057D00073E6957360C0A060811998814F9ED14F88
:1057E000DCA37FDC224466222A547E2A903BAB90C5
:1057F000880B8388468CCA46EEC729EEB86BD3B8AF
:1058000014283C14DEA779DE5EBCE25E0B161D0B8D
:10581000DBAD76DBE0DB3BE0326456323A744E3A85
:105820000A141E0A4992DB49060C0A0624486C2415
:105830005CB8E45CC29F5DC2D3BD6ED3AC43EFAC39
:1058400062C4A6629139A8919531A495E4D337E456
:1058500079F28B79E7D532E7C88B43C8376E593771
:105860006DDAB76D8D018C8DD5B164D54E9CD24E5D
:10587000A949E0A96CD8B46C56ACFA56F4F307F415
:10588000EACF25EA65CAAF657AF48E7AAE47E9AE0B
:1058900008101808BA6FD5BA78F08878254A6F25AD
:1058A0002E5C722E1C38241CA657F1A6B473C7B404
:1058B000C69751C6E8CB23E8DDA17CDD74E89C7473
:1058C0001F3E211F4B96DD4BBD61DCBD8B0D868BD2
:1058D0008A0F858A70E090703E7C423EB571C4B5F7
:1058E00066CCAA664890D84803060503F6F701F689
:1058F0000E1C120E61C2A361356A5F3557AEF957AF
:10590000B969D0B986179186C19958C11D3A271D2A
:105910009E27B99EE1D938E1F8EB13F8982BB3989C
:105920001122331169D2BB69D9A970D98E07898E2A
:105930009433A7949B2DB69B1E3C221E87159287FD
:10594000E9C920E9CE8749CE55AAFF5528507828C5
:10595000DFA57ADF8C038F8CA159F8A18909808992
:105960000D1A170DBF65DABFE6D731E64284C6428D
:1059700068D0B8684182C3419929B0992D5A772DD2
:105980000F1E110FB07BCBB054A8FC54BB6DD6BB1F
:10599000162C3A16C6A56363F8847C7CEE9977775B
:1059A000F68D7B7BFF0DF2F2D6BD6B6BDEB16F6FB8
:1059B0009154C5C56050303002030101CEA967671C
:1059C000567D2B2BE719FEFEB562D7D74DE6ABAB64
:1059D000EC9A76768F45CACA1F9D82828940C9C9D2
:1059E000FA877D7DEF15FAFAB2EB59598EC9474710
:1059F000FB0BF0F041ECADADB367D4D45FFDA2A2D8
:105A000045EAAFAF23BF9C9C53F7A4A4E4967272FF
:105A10009B5BC0C075C2B7B7E11CFDFD3DAE939363
:105A20004C6A26266C5A36367E413F3FF502F7F720
:105A3000834FCCCC685C343451F4A5A5D134E5E572
:105A4000F908F1F1E2937171AB73D8D86253313137
:105A50002A3F1515080C04049552C7C74665232331
:105A60009D5EC3C33028181837A196960A0F050506
:105A70002FB59A9A0E090707243612121B9B8080B5
:105A8000DF3DE2E2CD26EBEB4E6927277FCDB2B2B8
:105A9000EA9F7575121B09091D9E838358742C2C6F
:105AA000342E1A1A362D1B1BDCB26E6EB4EE5A5A07
:105AB0005BFBA0A0A4F65252764D3B3BB761D6D615
:105AC0007DCEB3B3527B2929DD3EE3E35E712F2FF8
:105AD00013978484A6F55353B968D1D10000000010
