:020000040800F2
:10000000980900206D110008A5110008A911000829
:10001000AD110008B1110008B51100080000000082
:10002000000000000000000000000000B9110008FE
:10003000BD11000800000000C1110008C511000832
:10004000C9110008CD110008D1110008D511000810
:10005000D9110008DD110008050400080D0400088E
:10006000150400081D04000825040008E11100081B
:10007000E5110008E9110008ED110008F111000870
:10008000F5110008F9110008FD110008011200081F
:1000900005120008091200080D1200082D040008BE
:1000A00011120008D10500081512000819120008E5
:1000B0001D1200082112000825120008291200084C
:1000C0002D120008311200083512000839120008FC
:1000D0003D120008411200084512000849120008AC
:1000E000350400084D12000851120008551200088E
:1000F00059120008F0B4C9B24B00C9B2CC1010EBD1
:100100008404C9B2CD1010EB85052D6A0F2611F0BD
:100110000707FFB2BF00BE40B54392B212F00F0610
:1001200011F00707FFB2BF00BE40354325620468E7
:1001300003259D40AC43C2F30115ADB29D402C4355
:100140000460846803259D40AC43C2F38115ADB2C1
:100150009D402C438460848801258D40AC43C2F3CC
:100160000025ADB28D402C438480C46803259D409A
:10017000AC43C2F34125ADB29D402C43C460F0BCFA
:1001800070472DE9F041DFF8A8351B6853F00103F3
:10019000DFF89C452360C9B211F003039B000F24D4
:1001A0009C40C9B28D10DFF88C6556F82550A543E8
:1001B000C0B210FA03F63543C9B28E10DFF8747579
:1001C00047F8265001258D40DFF86C653668AE4350
:1001D000DFF864753E60DFF864653668AE43DFF8CB
:1001E0005C753E60D2B212F03806F6B2202E09D00D
:1001F000282E0ED1DFF8406536682E43DFF83875BB
:100200003E6006E0DFF8346536682E43DFF82C7573
:100210003E60DFF82C6536682E43DFF824753E60BB
:10022000C9B2052901DA8E1D05E0C9B20A2901DA31
:10023000172600E02826F6B2DFF808755FF0700C8C
:1002400006F807C0F6B27711DFF8FCC45FF0010EC4
:1002500016F01F081EFA08FE4CF827E0BDE8F081F2
:1002600010B4838A01248C40A343D2B212F001045B
:100270008C402343838210BC704738B5DFF8CC0430
:10028000006850F00700DFF8C41408600024E4B2EE
:10029000062C26D24FF43472E4B2DFF8B4042018EE
:1002A0004178E4B2DFF8A804205C4FF48063DFF803
:1002B000A45403FB0050FFF71DFF0022E4B2DFF857
:1002C000900420184178E4B2DFF88404205C4FF4F5
:1002D0008063DFF8805403FB0050FFF7C1FFA41CCC
:1002E000D5E70024E4B2062C20D24FF4E072E4B249
:1002F000DFF8640420184178E4B2DFF85C04205C85
:100300004FF48063DFF84C5403FB0050FFF7F2FE1C
:100310002822E4B2DFF8400420184178E4B2DFF884
:100320003804205CFFF72DFFA41CDBE731BD10B5BE
:100330000400E4B2012C04D0E4B2002C01D000F09F
:1003400085F9E4B2E243D2B20D21DFF81004FFF7E1
:1003500087FF2200D2B20421DFF8F803FFF780FF05
:1003600010BD10B504002200D2B20021DFF8F00366
:10037000FFF776FF10BD10B50400E4B2002C02D0E8
:10038000E4B2012C0ED14FF434720221DFF8C40321
:10039000FFF7B0FE2200D2B20221DFF8B803FFF768
:1003A0005FFF06E04FF4E0720221DFF8A803FFF7D9
:1003B000A1FE10BD80B5DFF8AC030068800706D54C
:1003C000DFF8A00302210160002000F076FBDFF8D7
:1003D00094030068400507D5DFF888034FF4806177
:1003E0000160012000F069FBDFF878030068000578
:1003F00007D5DFF870034FF400610160022000F0C0
:100400005CFB01BD80B5FFF7D5FF01BD80B5FFF7EF
:10041000D1FF01BD80B5FFF7CDFF01BD80B5FFF76E
:10042000C9FF01BD80B5FFF7C5FF01BD80B5FFF76E
:10043000C1FF01BD80B5FFF7BDFF01BD80B5DFF88D
:10044000F002006850F48050DFF8E412086040F2D7
:10045000E5420521DFF8FC02FFF74CFE40F2E542E1
:100460000621DFF8F002FFF745FE40F2E5420721E2
:10047000B848FFF73FFEDFF8F0024FF451710180FA
:1004800001BD0100DFF8E402C9B20180B84800886C
:10049000C007FBD5B5480088C0B27047B5480068B2
:1004A00050F48070B3490860B348006850F480701D
:1004B000B1490860B04800688005FBD59C480068D9
:1004C00050F004009A490860AC48006850F00400FD
:1004D000AA490860AA48006850F00400A8490860CA
:1004E000A748006830F00400A5490860A5484FF40B
:1004F00080410180A4487021017093485FF0007131
:100500000160A248008850F00100A0490880A0487E
:1005100001210180704738B500F06DF89D484468AE
:100520009D4805689D480088C00703D59A48006823
:100530000500641C00F066F8ADB255EA044032BD17
:1005400010B50400FFF7E7FF0100621A012A01DA83
:10055000002007E01014002802D04FF6FF7001E0E1
:10056000100080B210BD10B504002000FFF7E8FFB6
:100570000028FAD110BD38B50400884800884FF62D
:10058000FB710840854908802000FFF7D9FF05006E
:1005900080B2052808DA7D4800884FF6FB710840D4
:1005A0007A490880012012E07B480068ADB2281823
:1005B0007B4908607548008850F004007349088042
:1005C0007848008850F0100076490880002032BD3D
:1005D00072480088C00704D56E484068401C6D49C9
:1005E00048606E480088400701D5684800886B481D
:1005F00000210180704772B666480068401C65495A
:100600000860704763480068401E6249086000281F
:1006100000D162B670475748006850F00100554954
:10062000086030BF704780B508220021594800F0AB
:10063000E3FAFFF7E0FFFFF720FEFFF7FFFEFFF70B
:100640002DFF00F009F8FFF7DDFF01BD80B5FFF7D2
:10065000D2FFFFF7E0FFFEE780B54FF434720821C8
:100660003C48FFF747FD002000F018F830480068CC
:1006700050F480402E49086040F2E72209213548B5
:10068000FFF738FD484840F215110180474842F213
:1006900008010180464800F030F801BD10B50400A3
:1006A0002200D2B208212B48FFF7DAFD10BD4149E4
:1006B00009880906FBD54049C0B20880704710B5CB
:1006C0000400E4B220113D49405CFFF7F0FFE4B2C2
:1006D00014F00F003949405CFFF7E9FF10BD38B551
:1006E000040018256DB2002D06D434FA05F0C0B20E
:1006F000FFF7E5FF083DF5E731BD10B504002078B0
:10070000002804D02078FFF7D2FF641CF7E710BD63
:1007100038B504000D002000FFF7EFFF2800FFF7B9
:10072000DEFF0D20FFF7C3FF0A20FFF7C0FF31BD3A
:100730002038024008000140080401400C04014038
:100740000004014000E400E000E100E01C38024049
:1007500088110008000002409011000800080240C3
:100760000004024014040140003001400C300140FC
:100770000830014000700040343802402C380240FC
:10078000143802400808014019E400E00C08014058
:1007900000080140840100202408014010080140A5
:1007A0003808014020080140083801400C38014059
:1007B000901000080038014004380140381100084A
:1007C00038B504000D000020FFF7CBFD54F0800089
:1007D000C0B2FFF756FE2800C0B2FFF752FE01205C
:1007E000FFF7BFFD31BD38B504000020FFF7B9FDAC
:1007F00014F07F00FFF745FE0020FFF742FE0500E2
:100800000120FFF7AEFD2800C0B232BDF8B50400EC
:100810000D0016000020FFF7A4FD14F07F00FFF785
:1008200030FE0027FFB2F6B2B74206D20020FFF733
:1008300028FEFFB278557F1CF4E70120FFF791FDF9
:10084000F1BD10B504000120FFF7CDFF10F0F80056
:1008500054EA0001C9B20120FFF7B2FF10BD10B584
:1008600080242100C9B20120FFF7AAFF10BD38B5CE
:10087000DFF86803008A00F0CAF90400DFF85C03BF
:10088000008A00F0C7F98501DFF85003008A00F004
:10089000C5F9002805D0022809D005D3032809D0BE
:1008A0000AE055F0080507E055F0100504E055F0A2
:1008B000180501E055F02005E4B2052C02D0E4B2A1
:1008C000062C01D155F00105DFF81003008A00F075
:1008D000A9F9002801D155F00205DFF80003008ACC
:1008E00000F0A4F900280BD055F00405DFF8EC0265
:1008F000008A00F09BF90100C9B22220FFF760FFD7
:100900002900C9B21D20FFF75BFF2001603050F0C5
:100910000401C9B21E20FFF753FF31BD38B5DFF81F
:10092000BC02C0680021C90441EA5031C004DFF8AC
:10093000B022002300F07EF904000D00210CC9B2A2
:100940000620FFF73DFF200080B2010AC9B2072050
:10095000FFF736FF2100C9B20820FFF731FF31BD94
:1009600010B50400FFF77BFF0120FFF73CFF0006F6
:1009700001D4FFF76BFE0120FFF763FFE4B2022C06
:1009800008D10A211D20FFF71BFF74211E20FFF74D
:1009900017FF03E0FFF76BFFFFF7C0FF23210C20D9
:1009A000FFF70EFF40212320FFF70AFF3320FFF758
:1009B0001AFF50F04001C9B23320FFF701FF87480A
:1009C000817C1F20FFF7FCFE34213920FFF7F8FE61
:1009D000C0214020FFF7F4FEFF211220FFF7F0FEB8
:1009E000E4B28148205CC143C9B21120FFF7E8FEA0
:1009F0000020FFF79CFCE4B2002C07D17748406848
:100A0000FFF7B1FD0620FFF71CFF02E00520FFF70E
:100A100018FF10BD2DE9F041FFF7EDFD0120FFF7B4
:100A2000AAFC00F09CF92030FFF79DFD0220FFF7A3
:100A3000A2FC00F094F9A330FFF795FD0020FFF72A
:100A400000FF4220FFF7CFFE0400E4B2222C01D0C9
:100A5000FFF7FCFD0220FFF783FF0120FFF7C3FE35
:100A600010F007000528F8D10125102D1BDA00260B
:100A7000082E16DA2C20FFF7B6FE10F001084746C4
:100A80005FFA88F82C20FFF7AEFE10F001008045D9
:100A9000F0D05648285C57EA400054496854761C08
:100AA000E6E76D1CE1E75148102101700020FFF7D7
:100AB000C8FEFFF7A7FDBDE8F081F8B5040000F01F
:100AC0004EF905000120FFF78EFE00064ED51220DC
:100AD000FFF789FE0600300703D5681E3F4908600E
:100AE0003BE0700633D53D48008A00F090F840495D
:100AF00031F81000281A394948601D20FFF773FEAD
:100B0000400703D52220FFF76EFE02E01320FFF717
:100B10006AFE324981F80F011020FFF764FE0100E0
:100B2000C9B20D20FFF74CFE2C4890F80F212D493B
:100B30000020FFF76BFE1920FFF755FE274948728A
:100B40001A20FFF750FE3D382449087205E03006B0
:100B500003D52248002180F80F11FF211120FFF753
:100B60002FFEFF211220FFF72BFE2CE03E20FFF787
:100B70003AFE06003F20FFF736FE0700380702D591
:100B8000164805601FE0780715D5144845603220E7
:100B9000FFF729FE114981F80F01104890F80F2145
:100BA00010490020FFF732FE0C48002141720B482B
:100BB0000021017207E0700704D50848002180F881
:100BC0000F1100E0FEE70020FFF73BFE0348C1697C
:100BD000084800F0EEF8F1BD000000000000002021
:100BE0000048E80110010020A01100087401002055
:100BF0005C1100081400002070B504000D00160000
:100C00002A003100200000F039F9200070BD10F0FA
:100C100007007047C0F3C100C0B27047C0F3411075
:100C2000C0B27047C0F3C01080B2704780B2000AF3
:100C300080B270471B4213D1094236D12AB1844693
:100C4000B0FBF2F002FB10C2704700F04BB9FCD3CE
:100C50000022002370470B00020000210020704793
:100C6000904271EB030CF6D370B5B1FA81F4B3FA8C
:100C700083F52C1BA340C4F1200532FA05F633435B
:100C8000A2405FF00046E64002E05B085FEA320205
:100C9000841A71EB030524BF204629467641F4D31C
:100CA00002000B003000002170BD012ACFD970B5C1
:100CB000140C20D0B1FA81F4B2FA82F5C4F1200408
:100CC0006419B4F12006D6D3B2405FF00044F4407A
:100CD000002502E052085FEA3303C61A71EB020EE8
:100CE00024BF3046714664416D41F3D302000B00CE
:100CF0002000290070BD0C46B1FBF2F102FB11454A
:100D00002D0445EA1045B5FBF2F402FB145580B200
:100D100040EA0545B5FBF2F002FB105240EA044000
:100D200070BD50F8041B61B150F8042BD30744BFC9
:100D3000A9F101039A18002342F8043B091FFAD1D4
:100D4000EFE7704780B5082200214A48FFF754FFBB
:100D5000FFF769FCFFF75EFE00F0C6F801BD80B545
:100D6000FFF7D9FB02BD02001068002808D0106808
:100D7000884203D108681060012002E01268F3E79E
:100D80000020704710B50400FFF735FC21003948FA
:100D9000FFF7E9FF002805D121003748FFF7E3FFFF
:100DA000002801D0012000E00020C0B2FFF72AFC9B
:100DB00010BD70B504000D00FFF71DFC2000FFF70B
:100DC000E1FFA560002020602B4806003068002865
:100DD00001D03668FAE73460FFF714FC70BDF8B54F
:100DE00004000D001600FFF706FC2000FFF7CAFF05
:100DF0006560A660002020601E4807003868002853
:100E000008D038684068854202DA3868206001E01E
:100E10003F68F3E73C60FFF7F5FBF1BD10B5002438
:100E2000FFF7E9FB13484068002806D011484068E6
:100E3000040010482168416013E00E480068002853
:100E40000DD00C4800684068FFF795FB002806D0DD
:100E500008480068040007482168016001E0FFF7C6
:100E6000DAFBFFF7CFFB002CD9D02000A168884720
:100E7000D5E700008C0100209001002062F30F22D2
:100E800062F31F42401810F0030308D0C91A1FD3A1
:100E9000DB0748BF00F8012D28BF20F8022D130002
:100EA00030B414461546103928BF20E93C00FAD862
:100EB000490728BF20E90C0048BF40F8042D8900ED
:100EC00028BF20F8022D48BF00F8012D30BC704724
:100ED000C91818BF00F8012DCB0728BF00F8012D55
:100EE000704700007047000002484021A0F87410CD
:100EF000704700000000002080B54348006850F4AF
:100F000080704149086041480068414908403F49B4
:100F100008603D4800683F4908403B4908603A483E
:100F2000006830F48020384908603848006830F4A0
:100F30007D003649086038480021016000F004F85F
:100F400036483749016001BD2F48006850F0010064
:100F50002D4908602C4800688007FBD5314800689F
:100F600050F004002F4908602E48006850F002003D
:100F70002C4908602B48006850F00100294908609E
:100F80002948006850F080502749086027484FF4EE
:100F90000061016026480068C006FBD41B481B495D
:100FA000096801601948194909680160174817491B
:100FB000096801601548006830F47D001349086035
:100FC0001248006850F40800104908600E48006894
:100FD00050F080700C4908600B4800688001FBD518
:100FE0000A480068800880000849086007480068CF
:100FF00050F00300054908600448006810F00C0038
:101000000C28F9D17047000000380240083802402F
:101010000CC0FF88FEFFFEEE0C38024008ED00E039
:1010200000000008003C02402438024000700040EC
:101030000470004010B504001148FFF75EFB114832
:1010400001681148FFF764FB0E480068401C0D4919
:10105000086010F00100FFF721FBFFF780FE0B4A4C
:1010600010F500412000FFF7BAFE10BDE0B5FFF714
:1010700069FE064900A8FFF79CFEFFF7CFFE07BDFB
:101080004C11000894010020981100083510000848
:101090000D0A3D3D3D3D3D3D3D3D3D3D3D3D3D3DE3
:1010A0002044454255472053544152544544203D25
:1010B0003D3D3D3D3D3D3D3D3D3D3D3D3D0D0A0000
:1010C00010B5074979441831064C7C44163404E0C5
:1010D0000A68081D511888470146A142F8D110BD81
:1010E00008000000140000003BFCFFFF9801000016
:1010F000000000200000000000F009F8002801D0E6
:10110000FFF7DEFF0020FFF7B1FF00F002F801203B
:10111000704700F001B800000746384600F002F8BA
:10112000FBE7000080B5C046C046024A1100182007
:10113000ABBEFBE7260002003031323334353637A0
:1011400038394142434445460000000048656C6C14
:101150006F20576F726C64210D0A000000000000C0
:1011600036006A00E600BE01FE0300000148804729
:1011700001480047F90E00087D110008C046C0462E
:10118000C046C046FFF7B8FF01000004020D000092
:101190000101010A010B0000636E74203D20000074
:1011A000C0400000FFF7FEBFFFF7FEBFFFF7FEBF26
:1011B000FFF7FEBFFFF7FEBFFFF7FEBFFFF7FEBF63
:1011C000FFF7FEBFFFF7FEBFFFF7FEBFFFF7FEBF53
:1011D000FFF7FEBFFFF7FEBFFFF7FEBFFFF7FEBF43
:1011E000FFF7FEBFFFF7FEBFFFF7FEBFFFF7FEBF33
:1011F000FFF7FEBFFFF7FEBFFFF7FEBFFFF7FEBF23
:10120000FFF7FEBFFFF7FEBFFFF7FEBFFFF7FEBF12
:10121000FFF7FEBFFFF7FEBFFFF7FEBFFFF7FEBF02
:10122000FFF7FEBFFFF7FEBFFFF7FEBFFFF7FEBFF2
:10123000FFF7FEBFFFF7FEBFFFF7FEBFFFF7FEBFE2
:10124000FFF7FEBFFFF7FEBFFFF7FEBFFFF7FEBFD2
:0C125000FFF7FEBFFFF7FEBFFFF7FEBF79
:040000050800117D61
:00000001FF
