:020000040800F2
:10000000D0090020A9110008E1110008E51100083D
:10001000E9110008ED110008F111000800000000CE
:10002000000000000000000000000000F5110008C2
:10003000F911000800000000FD110008011200087D
:1000400005120008091200080D120008111200081C
:100050001512000819120008B5060008BD060008B0
:10006000C5060008CD060008D50600081D120008C8
:100070002112000825120008291200082D1200087C
:100080003112000835120008391200083D1200082C
:10009000411200084512000849120008DD06000858
:1000A0004D1200087508000851120008551200088A
:1000B000591200085D12000861120008651200085C
:1000C000691200086D12000871120008751200080C
:1000D000791200087D1200088112000885120008BC
:1000E000E5060008891200088D1200089112000828
:1000F0009512000838B504000D00002000F093FAB6
:1001000054F08000C0B200F00FFB2800C0B200F035
:100110000BFB012000F087FA31BD38B50400002048
:1001200000F081FA14F07F0000F0FEFA002000F0E9
:10013000FBFA0500012000F076FA2800C0B232BDBB
:10014000F8B504000D001600002000F06CFA14F061
:100150007F0000F0E9FA0027FFB2F6B2B74206D2FC
:10016000002000F0E1FAFFB278557F1CF4E701208F
:1001700000F059FAF1BD10B504000120FFF7CDFFE2
:1001800010F0F80054EA0001C9B20120FFF7B2FFF5
:1001900010BD10B580242100C9B20120FFF7AAFFCD
:1001A00010BD38B5DFF88003C08900F0DDFB040026
:1001B000DFF87403C08900F0DAFB8501DFF868031B
:1001C000C08900F0D8FB002805D0022809D005D34B
:1001D000032809D00AE055F0080507E055F010059E
:1001E00004E055F0180501E055F02005E4B2052CB7
:1001F00002D0E4B2062C08D1DFF82C03C08900F04D
:10020000B6FB002801D155F00105DFF81C03C089B9
:1002100000F0B5FB002801D155F00205DFF8080316
:10022000C08900F0B0FB00280BD055F00405DFF8C2
:10023000F802C08900F0A7FB0100C9B22220FFF735
:1002400059FF2900C9B21D20FFF754FF200160307B
:1002500050F00401C9B21E20FFF74CFF31BD38B584
:10026000DFF8C40280680021C90441EA5031C004AB
:10027000DFF8B822002300F09BFB04000D00210CE6
:10028000C9B20620FFF736FF200080B2010AC9B2CA
:100290000720FFF72FFF2100C9B20820FFF72AFF30
:1002A00031BD10B50400FFF774FF0120FFF735FFE3
:1002B000000601D400F052FB0120FFF75CFFE4B21E
:1002C000022C08D10A211D20FFF714FF74211E20E3
:1002D000FFF710FF03E0FFF764FFFFF7C0FF2321E4
:1002E0000C20FFF707FF40212320FFF703FF3320F7
:1002F000FFF713FF50F04001C9B23320FFF7FAFEB9
:10030000DFF82402017C1F20FFF7F4FE342139209E
:10031000FFF7F0FEC0214020FFF7ECFEFF21122086
:10032000FFF7E8FE8348E4B2205CC143C9B2112064
:10033000FFF7E0FE002000F05EF9E4B2002C07D1E8
:100340007948406800F061FA0620FFF714FF02E0E8
:100350000520FFF710FF10BDF8B500F09EFA012050
:1003600000F06AF900F0ACFB203000F04EFA0220F9
:1003700000F062F900F0A4FBA33000F046FA002080
:10038000FFF7F9FE4220FFF7C8FE0400E4B2222C7A
:1003900001D000F0E3FA0220FFF783FF0120FFF70E
:1003A000BCFE10F007000528F8D10125102D1ADA3F
:1003B0000026082E15DA2C20FFF7AFFE10F0010002
:1003C0000700FFB22C20FFF7A8FE10F001008742C3
:1003D000F1D05948285C57EA400057496854761CC8
:1003E000E7E76D1CE2E71020534908700020FFF793
:1003F000C2FE00F059FAF1BDF8B5040000F060FB50
:1004000005000120FFF789FE000655D51220FFF7F1
:1004100084FE0600300703D5681E4349086042E0A9
:1004200070063AD54048C08900F0A1FA002808D1EA
:100430003D48C08900F098FA404931F81000281A68
:100440000500394845601D20FFF767FE400703D5CA
:100450002220FFF762FE02E01320FFF75EFE324922
:1004600081F847011020FFF758FE0100C9B20D20A6
:10047000FFF740FE2C4890F847212D490020FFF758
:100480005FFE1920FFF749FE274948731A20FFF73E
:1004900044FE3D382449087305E0300603D50020AA
:1004A000214981F84701FF211120FFF723FEFF2199
:1004B0001220FFF71FFE2CE03E20FFF72EFE060065
:1004C0003F20FFF72AFE0700380702D516480560CF
:1004D0001FE0780715D5144845603220FFF71DFE50
:1004E000114981F84701104890F847211049002030
:1004F000FFF726FE00200C49487300200A490873C4
:1005000007E0700704D50020074981F8470100E0A3
:10051000FEE70020FFF72FFE0348C169084800F0FE
:10052000F9FAF1BD00000000000000200048E801D9
:1005300048010020DC110008A801002098110008E3
:100540001400002038B5DFF8B003006850F0070051
:10055000DFF8A41308600024E4B2062C26D24FF47E
:100560003472DFF89803E4B220184178DFF88C0386
:10057000E4B2205C4FF48063DFF8845303FB005047
:1005800000F02EFB0022DFF87403E4B2201841785B
:10059000DFF86803E4B2205C4FF48063DFF8605357
:1005A00003FB005000F063FBA41CD5E70024E4B279
:1005B000062C1FD24FF4E072DFF84803E4B2201893
:1005C0004178DFF84003E4B2205C4FF48063DFF849
:1005D000305303FB005000F003FB2822DFF8240314
:1005E000E4B220184178C748E4B2205C00F04CFB2C
:1005F000A41CDCE731BD10B50400E4B2012C04D02A
:10060000E4B2002C01D000F0A9F9E4B2E243D2B286
:100610000D21BD4800F02BFB2200D2B20421B848C6
:1006200000F025FB10BD10B504002200D2B200215D
:10063000B64800F01CFB10BD10B50400E4B2002C5D
:1006400002D0E4B2012C0CD14FF434720221AC4838
:1006500000F0C6FA2200D2B20221A94800F007FB3E
:1006600005E04FF4E0720221A54800F0B9FA10BD90
:1006700080B5A7480068800705D50220A449086016
:100680000020FFF7B9FEA2480068400506D54FF4E8
:1006900080609F4908600120FFF7AEFE9C4800681B
:1006A000000506D54FF40060994908600220FFF765
:1006B000A3FE01BD80B5FFF7DBFF01BD80B5FFF7ED
:1006C000D7FF01BD80B5FFF7D3FF01BD80B5FFF7B0
:1006D000CFFF01BD80B5FFF7CBFF01BD80B5FFF7B0
:1006E000C7FF01BD80B5FFF7C3FF01BD80B58948D5
:1006F000006850F480508749086040F2E5420521C7
:100700007F4800F06DFA40F2E54206217C4800F097
:1007100067FA40F2E5420721794800F061FA4FF4A8
:1007200051707D49088001BD0100C9B27B4801803C
:100730007B480088C007FBD578480088C0B2704766
:100740007848006850F48070764908607648006800
:1007500050F4807074490860734800688005FBD5C8
:100760006C48006850F004006A4908606F480068EF
:1007700050F004006D4908606D48006850F00400B6
:100780006B4908606A48006830F0040068490860F6
:100790004FF48040674908807020674908705FF017
:1007A0000070664908606648008850F0010064499E
:1007B0000880012063490880704738B500F06DF863
:1007C000614844686148056861480088C00703D5EE
:1007D0005E4800680500641C00F066F8ADB255EA9A
:1007E000044032BD10B50400FFF7E7FF0100621AB4
:1007F000012A01DA002007E01014002802D04FF689
:10080000FF7001E0100080B210BD10B504002000A0
:10081000FFF7E8FF0028FAD110BD38B504004C48B6
:1008200000884FF6FB710840494908802000FFF717
:10083000D9FF050080B2052808DA414800884FF644
:10084000FB7108403E490880012012E03F480068E3
:10085000ADB228183F4908603948008850F00400BC
:10086000374908803C48008850F010003A49088019
:10087000002032BD36480088C00704D532484068A1
:10088000401C3149486032480088400701D52C4857
:10089000008800202E490880704772B62A480068F8
:1008A000401C29490860704727480068401E2649B7
:1008B000086025480068002800D162B670471948D2
:1008C000006850F001001749086030BF704770B5EC
:1008D000082400251C4E2A002100300000F04EFAAA
:1008E000FFF7DBFFFFF72EFEFFF700FFFFF728FF04
:1008F000FFF7DAFF70BD00001C380240C411000889
:1009000000000240CC110008000802400004024030
:100910001404014020380240003001400C300140F6
:100920000830014000700040343802402C3802404A
:10093000143802400808014019E400E000E100E03A
:100940000C08014000080140B801002024080140C3
:1009500010080140380801402008014080B5FFF729
:100960009CFFFFF7ACFFFEE710F007007047C0F3F5
:10097000C100C0B27047C0F34110C0B27047C0F3AD
:10098000C01080B2704780B2000A80B2704750F841
:10099000041B61B150F8042BD30744BFA9F1010334
:1009A0009A180023091F42F8043BFAD1EFE7704779
:1009B0001B4213D1094236D12AB18446B0FBF2F072
:1009C00002FB10C2704700F00DBAFCD300220023D6
:1009D00070470B000200002100207047904271EB2D
:1009E000030CF6D370B5B1FA81F4B3FA83F52C1B7E
:1009F000A340C4F1200532FA05F63343A2405FF06C
:100A00000046E64002E05B085FEA3202841A71EBBE
:100A1000030524BF204629467641F4D302000B008B
:100A20003000002170BD012ACFD970B5140C20D040
:100A3000B1FA81F4B2FA82F5C4F120046419B4F178
:100A40002006D6D3B2405FF00044F440002502E017
:100A500052085FEA3303C61A71EB020E24BF304618
:100A6000714664416D41F3D302000B002000290060
:100A700070BD0C46B1FBF2F102FB11452D0445EAB5
:100A80001045B5FBF2F402FB145580B240EA05456F
:100A9000B5FBF2F002FB105240EA044070BD0000CA
:100AA00070B5082400254C4E2A002100300000F0CB
:100AB00065F9FFF70CFFFFF74FFC00F095F970BDEB
:100AC00080B5FFF77AFE02BD02001068002808D04A
:100AD0001068884203D108681060012002E01268A3
:100AE000F3E70020704710B50400FFF7D6FE2100A1
:100AF0003948FFF7E9FF002805D121003748FFF703
:100B0000E3FF002801D0012000E00020C0B2FFF781
:100B1000CBFE10BD70B504000D00FFF7BEFE200037
:100B2000FFF7E1FFA560002020602C480600306838
:100B3000002801D03668FAE73460FFF7B5FE70BDD3
:100B4000F8B504000D001600FFF7A7FE2000FFF720
:100B5000CAFF6560A660002020601F480700386853
:100B6000002809D038684068401B012802DB38683B
:100B7000206001E03F68F2E73C60FFF795FEF1BDC1
:100B800010B50024FFF789FE13484068002806D0FE
:100B900011484068040020680F49486013E00E487F
:100BA000006800280DD00C4800684068FFF735FE4B
:100BB000002806D00848006804002068064908603C
:100BC00001E0FFF77CFEFFF76FFE002CD9D020007C
:100BD000A1688847D5E70000C0010020C4010020BB
:100BE000F0B4C9B24B00C9B2CC1010EB8404C9B246
:100BF000CD1010EB85052D6A0F2611F00707FFB207
:100C0000BF00BE40B54392B212F00F0611F00707C5
:100C1000FFB2BF00BE4035432562046803259D40F6
:100C2000AC43C2F30115ADB29D402C43046084680F
:100C300003259D40AC43C2F38115ADB29D402C43CA
:100C40008460848801258D40AC43C2F30025ADB299
:100C50008D402C438480C46803259D40AC43C2F37F
:100C60004125ADB29D402C43C460F0BC704710B428
:100C7000838A01248C40A343D2B212F001048C4039
:100C80002343838210BC7047F0B5354B1B6853F08B
:100C90000103334C2360C9B211F003039B000F24FE
:100CA0009C40304DC9B28E1055F82650A543C0B2B5
:100CB00010FA03F635432B4EC9B28F1046F8275071
:100CC00001258D40284E3668AE43274F3E60274EA3
:100CD0003668AE43254F3E60D2B212F03806F6B207
:100CE000202E0AD0282E02D0302E0CD015E01E4E19
:100CF00036682E431C4F3E600FE01C4E36682E4374
:100D00001A4F3E6009E0184E36682E43164F3E607B
:100D1000164E36682E43154F3E60154E36682E43EC
:100D2000134F3E60C9B2052901DA8E1D05E0C9B234
:100D30000A2901DA172600E028267027DFF834C0D8
:100D4000F6B206F80C70012716F01F0C17FA0CF714
:100D5000DFF824C0F6B25FEA661E4CF82E70F0BDD4
:100D60002038024008000140080401400C04014002
:100D70000004014000E400E000E100E062F30F2223
:100D800062F31F42401810F0030308D0C91A1FD3A2
:100D9000DB0748BF00F8012D28BF20F8022D130003
:100DA00030B414461546103928BF20E93C00FAD863
:100DB000490728BF20E90C0048BF40F8042D8900EE
:100DC00028BF20F8022D48BF00F8012D30BC704725
:100DD000C91818BF00F8012DCB0728BF00F8012D56
:100DE000704700007047000040200249A1F8AC00A5
:100DF000704700000000002080B55148006850F4A2
:100E000080704F4908604F4800684F4908404D497D
:100E100008604B4800684D49084049490860484807
:100E2000006830F48020464908604648006830F485
:100E30007D004449086000204549086000F005F83D
:100E40005FF000604349086001BD82B0002001905E
:100E5000002000903A48006850F0010038490860CE
:100E60003748006810F0020000900098002803D175
:100E70000198B0F5A04FF3D131480068800702D542
:100E80000120009001E0002000900098012853D13B
:100E90003148006850F004002F4908602E4800686F
:100EA00050F002002C4908602B48006850F0010007
:100EB000294908602948006850F080502749086097
:100EC0004FF400602649086026480068C006FBD43D
:100ED0001C4800681B4908601A48006819490860E6
:100EE00018480068174908601648006830F47D000B
:100EF000144908601348006850F40800114908605C
:100F00000F48006850F080700D4908600C48006878
:100F10008001FBD50B480068800880000949086003
:100F20000848006850F0030006490860054800685A
:100F300010F00C000C28F9D102B07047000000003E
:100F400000380240083802400CC0FF88FEFFFEEE69
:100F50000C38024008ED00E0003C0240243802401A
:100F6000007000400470004080B54FF434720821D6
:100F70003348FFF735FE002000F018F831480068CC
:100F800050F480402F49086040F2E72209212C48A4
:100F9000FFF726FE40F215102B49088042F20800A8
:100FA0002A4908802A4800F030F801BD10B5040035
:100FB0002200D2B208212248FFF759FE10BD254970
:100FC00009880906FBD5C0B223490880704710B5CF
:100FD00004002248E4B22111085CFFF7F0FF1F482B
:100FE000E4B214F00F01085CFFF7E9FF10BD38B55B
:100FF000040018256DB2002D06D42000E840C0B2D0
:10100000FFF7E5FF083DF5E731BD10B50400207896
:10101000002804D02078FFF7D2FF641CF7E710BD4A
:1010200038B504000D002000FFF7EFFF2800FFF7A0
:10103000DEFF0D20FFF7C3FF0A20FFF7C0FF31BD21
:101040000000024020380240083801400C380140BE
:10105000C81000080038014004380140741100082D
:1010600010B504001448FFF7D0FF14480168144875
:10107000FFF7D6FF11480068401C104908600F4870
:10108000007810F00100FFF791FFFFF719FD0D4AFE
:1010900010F500412000FFF753FD10BDE0B5FFF74C
:1010A000FFFCFFF761FF074900A8FFF733FDFFF7DB
:1010B00067FD00200EBD000088110008C801002057
:1010C000D4110008611000080D0A3D3D3D3D3D3D35
:1010D0003D3D3D3D3D3D3D3D20444542554720532E
:1010E000544152544544203D3D3D3D3D3D3D3D3DF7
:1010F0003D3D3D3D3D0D0A0010B50749794418318D
:10110000064C7C44163404E00A68081D51188847D0
:101110000146A142F8D110BD0800000014000000F3
:101120006FF8FFFFCC01000000000020000000006D
:1011300000F00BF8002801D0FFF7DEFF0020C046CA
:10114000C046FFF7ABFF00F002F80120704700F047
:1011500001B800000746384600F002F8FBE700003F
:1011600080B5C046C046024A11001820ABBEFBE75E
:1011700026000200303132333435363738394142B7
:10118000434445460000000048656C6C6F20576F73
:10119000726C64210D0A00000000000036006A0035
:1011A000E600BE01FE0300000148804701480047F9
:1011B000F90D0008B9110008C046C046C046C04637
:1011C000FFF7B6FF01000004020D00000101010A53
:1011D000010B0000636E74203D200000C040000041
:1011E000FFF7FEBFFFF7FEBFFFF7FEBFFFF7FEBF33
:1011F000FFF7FEBFFFF7FEBFFFF7FEBFFFF7FEBF23
:10120000FFF7FEBFFFF7FEBFFFF7FEBFFFF7FEBF12
:10121000FFF7FEBFFFF7FEBFFFF7FEBFFFF7FEBF02
:10122000FFF7FEBFFFF7FEBFFFF7FEBFFFF7FEBFF2
:10123000FFF7FEBFFFF7FEBFFFF7FEBFFFF7FEBFE2
:10124000FFF7FEBFFFF7FEBFFFF7FEBFFFF7FEBFD2
:10125000FFF7FEBFFFF7FEBFFFF7FEBFFFF7FEBFC2
:10126000FFF7FEBFFFF7FEBFFFF7FEBFFFF7FEBFB2
:10127000FFF7FEBFFFF7FEBFFFF7FEBFFFF7FEBFA2
:10128000FFF7FEBFFFF7FEBFFFF7FEBFFFF7FEBF92
:08129000FFF7FEBFFFF7FEBFF0
:04000005080011B925
:00000001FF
