:10000000B0050020051C00002D1C0000311C000064
:10001000351C0000391C00003D1C000000000000E1
:10002000000000000000000000000000411C000073
:10003000451C000000000000491C00004D1C000091
:10004000F9190000511C0000551C0000591C00004B
:100050005D1C0000611C0000651C0000691C0000A4
:100060006D1C0000711C0000751C0000791C000054
:100070007D1C0000811C0000851C0000891C000004
:100080008D1C00008B130000911C0000951C0000CB
:10009000991C00009D1C0000A11C00008B0013EBAC
:1000A000401313F184431A607047DFF8BC170968E6
:1000B000080010F007010029012903D9891E012930
:1000C00004D906E0012161F3020002E0032161F39B
:1000D0000200DFF89417086070470100002904D07F
:1000E000B1F5004F01D8012200E00022D2B2B1FAEE
:1000F00081F2D2F11F0210007047DFF86C271268FE
:100100001100DFF8682790420FD3DFF86427904290
:100110000BD211F00702921E012A03D8032262F3C8
:10012000020102E0012262F30201DFF8402790425F
:100130000AD211F00702921E012A03D8022262F3AA
:10014000020101E0C908C900DFF81C2711607047EF
:10015000DFF82017096811F4E06100291BD0B1F520
:10016000807F14D0B1F5007F0DD0B1F5407F06D06F
:10017000B1F5C06F17D0B1F5E06F10D017E0DFF820
:10018000F816080015E0DFF8F416080011E0DFF8B3
:10019000F01608000DE0DFF88817080009E0DFF826
:1001A0008417080005E0DFF88417080001E000214B
:1001B0000800704738B5DFF8780700F020FA05002E
:1001C000EDB22800072805D0082807D100F0F2FB7F
:1001D000040005E0FFF7BCFF040001E0002004007C
:1001E000200032BD38B50400002C01D0012C01D113
:1001F000012000E00020C0B2DFF8380700682100CD
:10020000C9B24900C84010F00300002812D00228EB
:1002100007D002D3032808D01BE000F01FFC050024
:1002200019E000F021FC050015E000F0B6FB4008E5
:10023000050010E0DFF8FC060068A1001031C8409E
:10024000002803D000F00DFC050001E000200500AF
:1002500001E000200500280032BDDFF8CC16096857
:10026000C90704D4DFF8D01609680142FAD17047F3
:100270002DE9F04104000D00C4F303100700012F25
:1002800008D0C0F0D180032F38D01AD3042F00F04B
:10029000AF80C9E0002D04D0B5F5007F01D8012062
:1002A00000E00020C0B22800FFF717FF0500DFF8CC
:1002B00094060068000900012843DFF888160860EA
:1002C000B2E0B5F5007F01D8012000E00020C0B207
:1002D000FFF7EBFE2800FFF700FF0500DFF86806D8
:1002E0000068000900012843DFF85C16086000F090
:1002F00054FB06003000FFF700FF95E02000DFF818
:100300004C1688420CD0DFF84816884221D0DFF81E
:100310004416884236D0DFF84016884250D066E056
:10032000B5F5004F01D8012000E00020C0B2042044
:10033000FFF793FF2800FFF7D0FE0500DFF81C064B
:10034000006830F0F00050EA0510DFF81016086081
:100350004DE0B5F5004F01D8012000E00020C0B20B
:100360000420FFF77AFF2800FFF7B7FE0500DFF84B
:10037000EC05006830F4706050EA0520DFF8DC1509
:10038000086034E0102D03D3812D01D2012000E05C
:100390000020C0B20420FFF760FF2800FFF79DFE99
:1003A0000500DFF8B805006830F440581020FFF76A
:1003B00094FE281A58EA0030DFF8A015086016E00D
:1003C000092D01D2012000E00020C0B20420FFF777
:1003D00044FF2800FFF781FE0500DFF88005006874
:1003E000800880002843DFF874150860FFE71BE0F1
:1003F000DFF86C05844216D1092D01D2012000E0FE
:100400000020C0B24020FFF728FF2800FFF765FE5C
:100410000500DFF850050068800880002843DFF8F9
:1004200044150860FFE7FFE7BDE8F0812DE9F041E2
:1004300004000D005FF00008C4F30320C0B20128DF
:1004400009D024D303280ED009D3052815D00ED304
:10045000062818D01BE0DFF8EC04060018E0DFF8EF
:100460000805060014E0DFF80405060010E0DFF8D8
:1004700000050600012080460AE0DFF8F8040600C7
:100480001020804604E0DFF8F004060000E00EE0F3
:10049000C4F304300700B8F1000F02D04046FFF764
:1004A000DCFEEDB22A0039003000FFF7F7FDBDE8B1
:1004B000F08170B5040014F47810002824D0B0F551
:1004C000003F25D0B0F5802F2CD0B0F5C02F2DD017
:1004D000B0F5002F2FD0B0F5202F37D0B0F5402F3A
:1004E00040D0B0F5602F4FD0B0F5801F60D0B0F590
:1004F000901F68D0B0F5A01F6AD0B0F5C01F72D0B1
:10050000B0F5D01F73D076E000F054FA050074E027
:1005100000F050FA0500DFF82C04006810F00F001E
:10052000C5406AE000F039FA050066E00020FFF7F8
:1005300059FE050061E00020FFF754FE0500DFF8DA
:100540001C040068C0F30310C54056E00020FFF70C
:1005500049FE0500DFF804040068000A10F00F00EF
:10056000C5404AE00020FFF73DFE0500DFF8EC0340
:100570000068000B10F003061020FFF7AEFD801995
:1005800035FA00F0050038E00020FFF72BFE0500EB
:10059000DFF8C8030068000B10F00300C540DFF867
:1005A000DC03006810F00700401CB5FBF0F524E008
:1005B0000020FFF717FE0500DFF8A003006810F029
:1005C0000300C54019E00120FFF70CFE050014E010
:1005D0000120FFF707FE0500DFF88803006810F030
:1005E0000300C54009E0FFF7E5FD050005E0FFF762
:1005F000AFFD050001E000200500280070BD0100EE
:10060000012011F00F031A00012A06D06CD3032A2F
:100610003BD01CD3042A56D066E0DFF824331B6895
:1006200013F47053B3F5006F0BD0B3F5805F05D0B2
:10063000B3F5005F08D10223180007E00323180078
:1006400004E00423180001E0052318004EE0DFF861
:10065000E4321B6813F00303012B04D00CD3032BEB
:1006600007D003D308E0032318000DE0022318008D
:100670000AE00623180007E0DFF8B8321B68DB0346
:1006800002D509231800FFE730E0DFF8A8321B6825
:1006900013F00C03042B04D0082B05D00C2B06D030
:1006A00008E0032318000DE0022318000AE00623E7
:1006B000180007E0DFF87C321B68DB0202D5092353
:1006C0001800FFE712E0DFF8B8321B6813F0805320
:1006D000002B03D0B3F1805F03D004E007231800A0
:1006E00001E00823180001E000231800C0B27047A1
:1006F0002DE9F84F04000D00032603275FF0000AE0
:1007000014F00F008146B9F1010F0AD0C0F0A980A2
:10071000B9F1030F3CD03BD3B9F1040F00F0868050
:100720009FE0EDB22800022808D003280BD004284F
:100730000ED0052811D0092814D014E0042006009A
:100740000020070010E003200600012007000BE056
:10075000022006000220070006E001200600032018
:10076000070001E000E07CE0012201213800C0B276
:1007700000F088F8FFF799FCDFF8C001066000F090
:100780002AFA00F00AF980464046FFF7B6FC68E016
:10079000EDB22800012808D0022809D003280FD084
:1007A000062815D009281CD020E0002083461EE032
:1007B00001220121002000F065F80220834616E0A6
:1007C00001220121012000F05DF8012083460EE0A6
:1007D00001220221DFF89401FFF760FC0320834629
:1007E00005E0002083460120824600E039E0B9F1AF
:1007F000020F0DD1DFF83C010068DFF888110840D6
:100800005BEA000050EA0A40DFF8281108600CE0BB
:10081000DFF820010068DFF87011084050EA8B0013
:1008200050EA0A50DFF80C1108601AE0EDB2280017
:10083000072802D0082809D011E0DFF84401006839
:1008400030F08050DFF83811086009E0DFF830013F
:10085000006850F08050DFF82811086000E000E0E8
:10086000FFE7BDE8F18F000004000C400124F40014
:100870000148E80114800C4040420F00C0CF6A00DC
:10088000C0D8A7002DE9F84304000D001600E4B21B
:10089000002C24D0022C0DD01AD3042C11D002D35A
:1008A000052C26D026E00120804602208146022029
:1008B000070020E004208046082081460820070029
:1008C00019E010208046202081462020070012E0F9
:1008D0004020804680208146802007000BE04FF4B6
:1008E000807080464FF4007081464FF4007007001E
:1008F00001E013E012E0EDB2002D0AD02348C0F869
:100900000080F6B2002E07D00D480068384203D1AF
:10091000FAE71E48C0F8009000F05DF9BDE8F183E9
:10092000809FD500406F400154800C40003FAB01D8
:100930000400180028800C4050800C4024800C409B
:100940002C800C4008800C4004800C4030140800BF
:1009500030240A0030000C003004100068800C4085
:100960004005140070800C4044800C4040800C40D6
:1009700058800C4060800C4078800C407C800C409B
:1009800000800C40FCFFFEFFF3FFEFFF20800C40D7
:1009900037480068000EC0B2704710B500F00AF882
:1009A00004003448006810F00F00C440324804606E
:1009B000200010BD10B53148006810F47050B0F53B
:1009C000006F0DD0B0F5805F06D0B0F5005F0BD1A1
:1009D0002B48006804003EE04FF4004004003AE079
:1009E00028480068040036E02748006810F4E060FA
:1009F000002824D0B0F5807F17D0B0F5007F11D04B
:100A0000B0F5407F0BD0B0F5806F05D0B0F5A06F8A
:100A10001FD11E4804001EE01D4804001BE01D48B5
:100A2000040018E01C48040015E0FFF7B1FF13288C
:100A300002DB1A48040001E0194804000BE0FFF74C
:100A4000A7FF132802DB1748040001E01648040042
:100A500001E000200400200010BD70474FF400406A
:100A600070474FF47A70704705480068704700007F
:100A7000FC81E00F04800C40A80100202C800C4079
:100A800004000020000000200C800C40003FAB015F
:100A9000406F4001809FD500C0D8A70040B56400DA
:100AA000C0CF6A00804F120040420F0080B5FFF7B0
:100AB00074FF01BD4A48002101607047484845F66F
:100AC0000E010160704710B54548006810F0010044
:100AD0000400FFF7F3FF4348008810F4AA7042496E
:100AE00008604048008810F47050B0F5006F16D0D0
:100AF000B0F5805F03D0B0F5005F08D017E03B4849
:100B000000680006FBD53A48032101600FE0374832
:100B100000688005FBD536480421016007E03348B2
:100B200000680007FBD5324802210160FFE72D482D
:100B30000078C00702D42C4802210160002C01D0AB
:100B4000FFF7B8FF10BD2B49096811F03F010902FA
:100B500008002949096811F0F0010843274909688C
:100B6000C1F30311084380B2B0F5817F01DC01209D
:100B700000E00020C0B2704730B583B004001948CF
:100B80001A49096801801E48006850F004001C4999
:100B90000860FFF7D8FF0500EDB2002D07D0194817
:100BA000006819490840009018480099016030BF5A
:100BB000EDB2002D02D0134800990160E4B2002C80
:100BC00002D0FFF780FF05E006480088400501D409
:100BD000FFF76CFF37BD034804490968018070477F
:100BE00084800C40AC01002020800C402C800C4004
:100BF00024800C40E0FF0FE0E8FF0FE0ECFF0FE087
:100C000010ED00E000E100E0DC1CE4FF80E100E02A
:100C100080B5FFF7C2FE01BD7047C0B2062803DAF7
:100C2000102901D2012200E00022D2B2C0B2242257
:100C3000DFF8343302FB003201238B4053617047ED
:100C4000C0B2062803DA102901D2012200E00022F6
:100C5000D2B2C0B22422C44B02FB003201238B402B
:100C600013617047C14909680143C04A1160704768
:100C700070B504000D001600F6B2002E05D0290054
:100C80002000C0B2FFF7DCFF04E029002000C0B262
:100C9000FFF7C3FF70BD80B5FFF7BEFF0121B44869
:100CA000FFF7C4FB0121B348FFF7C0FB002301227B
:100CB0000D21022000F076F90023012205210220F7
:100CC00000F070F9002301220C21012000F06AF9E4
:100CD000002301220C21022000F064F900230122EC
:100CE0000721022000F05EF90023012206210220E4
:100CF00000F058F9012305220421032000F052F9E5
:100D0000002305220821032000F04CF901BD10B595
:100D10000400E4B2012C04D0E4B2002C01D000F0B5
:100D2000CCF810BD10B504002200D2B2032103207C
:100D3000FFF79EFF10BD704700B587B000A88E4931
:100D4000182200F0A1F901218A48FFF76FFB012169
:100D50008A48FFF76BFB01218548FFF767FB0023FB
:100D600004220021032000F01DF9002302220121AA
:100D7000032000F017F9002304220221032000F0D1
:100D800011F9012304220321032000F00BF97C4810
:100D900000F01EFA0020ADF810007A4801907A4861
:100DA000029001208DF80E0000A9754800F0CFF9DF
:100DB000764840F20B11016007B000BD10B5040089
:100DC0002100C9B26E4800F03FFA6D4800F036FAD3
:100DD00010BD80B56E484068401C6D4948600220D7
:100DE000FFF740FF012000F053FA01BD80B5FFF787
:100DF0000FFF0121022000F096FA6649012000F061
:100E0000D6FA01BD38B500F030F861484468624850
:100E1000056800F031F8ADB255EA044032BD10B5B6
:100E20000400FFF7EFFF0100621A012A01DA002037
:100E300007E01014002802D04FF6FF7001E0100008
:100E400080B210BD10B504002000FFF7E8FF0028B5
:100E5000FAD110BD10B504002000FFF7E0FF05280F
:100E600001DA012000E0002010BD72B64848006899
:100E7000401C47490860704745480068401E444987
:100E80000860002800D162B6704780B50020FFF7E7
:100E900073FE01BD80B5082200213D4800F0C0FA74
:100EA000FFF7E3FFFFF7F7FEFFF746FFFFF79EFFB1
:100EB00000F009F8FFF7E0FF01BD80B5FFF7D5FFAF
:100EC000FFF7E3FFFEE780B5002304220C2100209A
:100ED00000F068F8002000F004F8304800F029F82D
:100EE00001BD10B504002200D2B20C210020FFF792
:100EF000BFFE10BD704710B50400E4B220112849B0
:100F0000405CFFF7F7FFE4B214F00F002449405CA7
:100F1000FFF7F0FF10BD38B5040018256DB2002DA5
:100F200006D434FA05F0C0B2FFF7E5FF083DF5E757
:100F300031BD10B504002078002804D02078FFF7D8
:100F4000D9FF641CF7E710BD38B504000D00200080
:100F5000FFF7EFFF2800FFF7DEFF0D20FFF7CAFFC6
:100F60000A20FFF7C7FF31BD006000401C000840A9
:100F70000062020010810200881B000000320200A3
:100F800000C400400048E80100350C0054C4004093
:100F90008C010020D30D0000040008400C1B000051
:100FA000E01B000070B4C0B2062803DA102901D299
:100FB000012400E00024E4B2D2B2002A12D0002BB7
:100FC00008D0C0B224242F4D04FB005401258D40CD
:100FD000256107E0C0B224242A4D04FB00540125FA
:100FE0008D406561082919D2C0B22424254D04FB27
:100FF000005464680F250E00F6B2B600B540AC434D
:10100000D2B20D00EDB2AD0012FA05F52C43C0B21C
:1010100024251C4E05FB00656C601AE0C0B2242438
:10102000184D04FB0054A4680F250E00083EF6B2CC
:10103000B600B540AC43D2B20D00083DEDB2AD00F4
:1010400012FA05F52C43C0B224250E4E05FB0065AF
:10105000AC60D2B2002A12D1002B08D0C0B2242436
:10106000084D04FB005401258D40256107E0C0B206
:101070002424044D04FB005401258D40656170BC9F
:101080007047000000600040103A07D330B4B1E868
:101090003810103AA0E83810F9D230BC530724BFFA
:1010A000B1E80810A0E8081044BF51F8043B40F82C
:1010B000043BD20724BF31F8022B20F8022B44BF97
:1010C0000B7803707047083A07D3B1E80810083A64
:1010D00040F8043B40F804CBF7D25307E4E710B4E0
:1010E00050F8041B81B102681218001D50F8043B2F
:1010F000DC0744BFA9F10104E31852F8044B43F89C
:10110000044B091FF9D1EBE710BC7047F8B5040098
:101110000D001600002D03D14348FFF7CAF9050062
:1011200068000700701EC719B7FBF6F73F1F402085
:101130004743C0373F0A3F023C48874201D2012063
:1011400000E00020C0B23A4807406761F1BD38B501
:1011500004000D003748844202D03748844201D150
:10116000012000E00020C0B2200000F031F8A87B90
:10117000002802D04FF4806000E000202168B5F91B
:101180001020104350F0010008432060A87C002884
:1011900001D0102000E00020297D002902D05FF05E
:1011A000005100E000212268084310432060287BA2
:1011B00050F480506060AA6869682000FFF7A6FFBD
:1011C000687B002801D01020E0602878E06031BD05
:1011D0001849884202D01849884201D1012100E013
:1011E0000021C9B240F6AA61C1600021016041F24C
:1011F0000501416000218160002141610021C1643D
:1012000041F6F9718164002141650A49884201D1A2
:1012100000210165002181650749884201D1002133
:10122000C16570470000000010810200C1FF1F006F
:10123000C0FF1F0000C0004000C400400169090653
:10124000FCD5C069C0B2704702695206FCD5C9B26C
:10125000416370478B0013EB401313F184431A6012
:101260007047022804D211F07F4F01D1012300E022
:101270000023DBB2002802D0012803D005E0134B85
:101280001A0003E0124B1A0000E000E01160704702
:1012900010B50400E4B2220000210E48FFF7DAFF87
:1012A00010BD0278002A02D00122110001E00022C4
:1012B00011004278002A01D051F002018278002A00
:1012C00001D051F00401034A116070470800084042
:1012D0000C0008400000084010B440B24109464AE2
:1012E000012310F01F04A34042F8213010BC7047C6
:1012F00010B440B24109414A012310F01F04A34039
:1013000042F8213010BC70473D49086070473D49A4
:10131000096881433B4A116070473A4909680143B3
:10132000384A1160704738B504000D003648012175
:10133000017001213548FFF779F82100C9B234481E
:10134000FFF7D6F929003348FEF792FF3148FFF73F
:10135000B0F83149086001212E48FFF767F80020F6
:101360008DF8000000208DF8010000208DF80200AB
:1013700000A8FFF796FF0720FFF7C9FF1120FFF72E
:10138000B7FF1120FFF7A8FF31BD80B50020FFF7A0
:101390007FFF0220FFF7B8FF0220FFF7B8FF1F48CA
:1013A0000068002802D01D480068804701BD38B59C
:1013B00004000D000020FFF76BFF134800780028A1
:1013C00003D120210320FFF7AEFF1448056002205F
:1013D000FFF79AFF1048006860434FF47A71B0FB42
:1013E000F1F10020FFF73DFF0120FFF751FF022040
:1013F000FFF793FF31BD000000E100E080E200E074
:10140000180008401C000840AE0100200023040022
:101410000200060030140800A4010020A0010020F2
:1014200070B504000D0016002A003100200000F005
:1014300013F8200070BD50F8041B61B150F8042B64
:10144000D30744BFA9F101039A18002342F8043BD3
:10145000091FFAD1EFE7704762F30F2262F31F42D0
:10146000401810F0030308D0C91A1FD3DB0748BF88
:1014700000F8012D28BF20F8022D130030B41446C7
:101480001546103928BF20E93C00FAD8490728BF83
:1014900020E90C0048BF40F8042D890028BF20F83F
:1014A000022D48BF00F8012D30BC7047C91818BF85
:1014B00000F8012DCB0728BF00F8012D7047000070
:1014C00038B504000D000020FFF72CFC54F080001C
:1014D000C0B2FFF773FC2800C0B2FFF76FFC012019
:1014E000FFF720FC31BD38B504000020FFF71AFCDF
:1014F00014F07F00FFF762FC0020FFF75FFC05009F
:101500000120FFF70FFC2800C0B232BD10B5040067
:101510000120FFF7E8FF10F0F80054EA0001C9B21B
:101520000120FFF7CDFF10BD10B580242100C9B206
:101530000120FFF7C5FF10BD38B5DFF84802008A6B
:1015400000F028F90400DFF83C02008A00F025F9D9
:101550008501DFF83002008A00F023F9002805D069
:10156000022809D005D3032809D00AE055F0080560
:1015700007E055F0100504E055F0180501E055F0BE
:101580002005E4B2052C02D0E4B2062C01D155F0BE
:101590000105DFF8F001008A00F007F9002801D109
:1015A00055F00205DFF8DC01008A00F002F900289E
:1015B0000BD055F00405DFF8CC01008A00F0F9F8F3
:1015C0000100C9B22220FFF77BFF2900C9B21D200C
:1015D000FFF776FF2001603050F00401C9B21E20F1
:1015E000FFF76EFF31BD38B5DFF89801C068002104
:1015F000C90441EA5031C004DFF88C21002300F017
:10160000DDF804000D00210CC9B20620FFF758FFD9
:10161000200080B2010AC9B20720FFF751FF210064
:10162000C9B20820FFF74CFF31BD10B50400FFF729
:101630007BFF0120FFF757FF000601D4FFF73DFCB9
:101640000120FFF763FFE4B2022C08D10A211D201C
:10165000FFF736FF74211E20FFF732FF03E0FFF78C
:101660006BFFFFF7C0FF23210C20FFF729FF40216C
:101670002320FFF725FF3320FFF735FF50F040010F
:10168000C9B23320FFF71CFF3E48817C1F20FFF7C3
:1016900017FF34213920FFF713FFC0214020FFF747
:1016A0000FFFFF211220FFF70BFFE4B23748205C49
:1016B000C143C9B21120FFF703FF0020FFF727FB4A
:1016C000E4B2002C07D12F484068FFF7BBFB06208F
:1016D000FFF71CFF02E00520FFF718FF10BD2DE902
:1016E000F041FFF7C2FB0120FFF725FB00F0EBF80C
:1016F0002030FFF7A7FB0220FFF71DFB00F0E3F807
:10170000A330FFF79FFB0020FFF700FF4220FFF709
:10171000EAFE0400E4B2222C01D0FFF7CEFB022047
:10172000FFF783FF0120FFF7DEFE10F0070005281A
:10173000F8D10125102D1BDA0026082E16DA2C20F0
:10174000FFF7D1FE10F0010847465FFA88F82C2019
:10175000FFF7C9FE10F001008045F0D00C48285C6E
:1017600057EA40000A496854761CE6E76D1CE1E739
:101770000748102101700020FFF7C8FEFFF77CFB2F
:10178000BDE8F081080000200048E801281C0000A6
:101790007C01002010F007007047C0F3C100C0B208
:1017A0007047C0F34110C0B27047C0F3C01080B2A0
:1017B000704780B2000A80B2704700001B4213D10C
:1017C000094236D12AB18446B0FBF2F002FB10C2C6
:1017D000704700F007B9FCD30022002370470B00CC
:1017E0000200002100207047904271EB030CF6D3F9
:1017F00070B5B1FA81F4B3FA83F52C1BA340C4F1A0
:10180000200532FA05F63343A2405FF00046E64079
:1018100002E05B085FEA3202841A71EB030524BF21
:10182000204629467641F4D302000B003000002107
:1018300070BD012ACFD970B5140C20D0B1FA81F453
:10184000B2FA82F5C4F120046419B4F12006D6D3AB
:10185000B2405FF00044F440002502E052085FEA25
:101860003303C61A71EB020E24BF30467146644141
:101870006D41F3D302000B002000290070BD0C461F
:10188000B1FBF2F102FB11452D0445EA1045B5FB11
:10189000F2F402FB145580B240EA0545B5FBF2F0C4
:1018A00002FB105240EA044070BD000080B50822DF
:1018B00000214A48FFF7B4FDFFF7ECFAFFF70FFFEE
:1018C00000F092F801BD80B5FFF79CFA02BD02005E
:1018D0001068002808D01068884203D1086810609A
:1018E000012002E01268F3E70020704710B5040001
:1018F000FFF7BBFA21003948FFF7E9FF002805D1BF
:1019000021003748FFF7E3FF002801D0012000E065
:101910000020C0B2FFF7B0FA10BD70B504000D0092
:10192000FFF7A3FA2000FFF7E1FFA5600020206089
:101930002B4806003068002801D03668FAE734608A
:10194000FFF79AFA70BDF8B504000D001600FFF716
:101950008CFA2000FFF7CAFF6560A66000202060B7
:101960001E4807003868002808D03868406885425B
:1019700002DA3868206001E03F68F3E73C60FFF777
:101980007BFAF1BD10B50024FFF76FFA13484068E9
:10199000002806D0114840680400104821684160C2
:1019A00013E00E48006800280DD00C48006840681D
:1019B000FFF750FA002806D00848006804000748DE
:1019C0002168016001E0FFF760FAFFF755FA002C8B
:1019D000D9D02000A1688847D5E7000094010020F5
:1019E000980100207047000002484021A0F87410C0
:1019F00070470000080000202DE9F84FDFF8A00034
:101A000000688146DFF89C00006810EA0909B9F116
:101A1000000F00D5FEE7DFF8900000680090009806
:101A200010EA0900060000208046B8F1020F33DA00
:101A300000200400002E28D0F00723D5DFF85C003A
:101A4000D0F800A0012010FA04FBDFF86000C0F815
:101A500000B01AEB0410C0680500002D12D0287ADF
:101A60000700287A90F0010028722868002809D021
:101A7000002F01D0012100E000216A68C9B22000D6
:101A80002B6898477608641CD4E7009839EA000070
:101A9000060018F10108C8E7BDE8F18F08200C40E6
:101AA00000300C400C300C4038200C4008300C400A
:101AB00010B504001148FFF73CFA114801681148BD
:101AC000FFF742FA0E480068401C0D49086010F00C
:101AD0000100FFF706FAFFF7F6FE0B4A10F500418A
:101AE0002000FFF730FF10BDE0B5FFF7DFFE06492D
:101AF00000A8FFF712FFFFF745FF07BDF41B00002A
:101B00009C010020201C0000B11A00000D0A3D3D80
:101B10003D3D3D3D3D3D3D3D3D3D3D3D20444542FE
:101B200055472053544152544544203D3D3D3D3D91
:101B30003D3D3D3D3D3D3D3D3D0D0A0010B5074954
:101B400079441831064C7C44163404E00A68081DB8
:101B5000511888470146A142F8D110BD0800000085
:101B600028000000D3F8FFFFA801000008000020B3
:101B7000000000006BF5FFFF0800000028010000D6
:101B80000000002000000000050000000000000030
:101B900040420F00050100000000000000000000AE
:101BA00000F009F8002801D0FFF7C8FF0020FFF778
:101BB0009BFF00F002F80120704700F001B8000020
:101BC0000746384600F002F8FBE7000080B5C04643
:101BD000C046024A11001820ABBEFBE726000200F7
:101BE0003031323334353637383941424344454653
:101BF0000000000048656C6C6F20576F726C6421A8
:101C00000D0A000001488047014800475B0A0000B8
:101C1000151C0000C046C046C046C046FFF7C0FFC6
:101C2000636E74203D200000C0400000FFF7FEBF3F
:101C3000FFF7FEBFFFF7FEBFFFF7FEBFFFF7FEBFD8
:101C4000FFF7FEBFFFF7FEBFFFF7FEBFFFF7FEBFC8
:101C5000FFF7FEBFFFF7FEBFFFF7FEBFFFF7FEBFB8
:101C6000FFF7FEBFFFF7FEBFFFF7FEBFFFF7FEBFA8
:101C7000FFF7FEBFFFF7FEBFFFF7FEBFFFF7FEBF98
:101C8000FFF7FEBFFFF7FEBFFFF7FEBFFFF7FEBF88
:101C9000FFF7FEBFFFF7FEBFFFF7FEBFFFF7FEBF78
:0C1CA000FFF7FEBF0048E80100800000D4
:0400000500001C15C6
:00000001FF
