:020000040800F2
:10000000A80A00203D580008FD58000801590008C2
:1000100005590008095900080D59000800000000A2
:10002000000000000000000000000000115900085E
:100030001559000800000000195900081D59000852
:100040002159000825590008295900082D59000890
:1000500031590008355900085D3D0008653D00082C
:100060006D3D0008753D00087D3D000839590008C8
:100070003D590008415900084559000849590008F0
:100080004D590008515900085559000859590008A0
:100090005D5900086159000865590008853D000850
:1000A00069590008293F00086D5900087159000876
:1000B00075590008795900087D59000881590008D0
:1000C00085590008895900088D5900089159000880
:1000D00095590008995900089D590008A159000830
:1000E0008D3D0008A5590008A9590008AD59000820
:1000F000B15900080178407851EA002080B2704779
:100100000178427851EA0221827851EA0241C078AE
:1001100051EA00607047C178827851EA0221427842
:1001200051EA0241007851EA00607047017089B2DB
:100130000A0A4270704701700A0A42700A0C827003
:100140000A0EC2707047C1700A0A82700A0C4270AF
:100150000A0E02707047FF20704730B40200002082
:1001600000238B420DD29C5C80B2E4B24440E4B2E6
:10017000DFF8C85C35F8144080B294EA10205B1CAC
:10018000EFE780B230BC7047F8B504000D001600F0
:100190001F0010220021DFF8B00B02F08FF9DFF80A
:1001A000A80B49210170002E01D0012000E00020A1
:1001B000DFF8941B4871DFF8900BC7732100DFF85C
:1001C0008C0BFFF7B8FF2900DFF8740CFFF7B3FFC3
:1001D000F1BD2DE9F04704000D0016001F00DDF809
:1001E0002080DDF824904B463A0031002800FFF7CC
:1001F000CBFF10222100DFF84C0C02F06AF94A46CE
:1002000092B24146022002F0D3F9824619EB08006F
:10021000FFF781FF824501D1012000E00020C0B23C
:10022000BDE8F0872DE9F84304000D0016001F001B
:10023000DDF82080DDF824904B463A00310028009C
:10024000FFF7A2FF10222100DFF8F80B02F041F9BE
:100250004A4692B24146022002F0AAF9010019EB87
:100260000800FFF770FFBDE8F18338B504000D000A
:10027000DFF8D00B02F022FE2A0092B221000A2001
:1002800002F096F901002819FFF75DFF31BD70B546
:1002900004000D00DFF8AC0B02F010FE2A0092B251
:1002A00021000A2002F084F906002819FFF733FF25
:1002B000864201D1012000E00020C0B270BD38B5F7
:1002C00004000D00DFF87C0B02F0F8FD2A0092B26A
:1002D0002100002002F06CF931BD2DE9F843040043
:1002E0000D0016001F00DDF82080DDF82490B9F124
:1002F000010F2ADB10220021DFF84C0A02F0DEF8A1
:100300000120DFF8441AC873DFF83C1A0870002F88
:1003100001D0012000E00020DFF82C1A48712900EC
:10032000DFF8280AFFF707FF3100DFF8140BFFF7AB
:1003300002FF10222100DFF80C0B02F0CAF84A4637
:1003400092B24146042002F033F9BDE8F183F8B5DA
:1003500004000D0016001F0010220021300002F0E2
:10036000ADF80120307006222900701C02F0B1F8AF
:10037000210089B2F01DFFF7D9FE102231003800AC
:1003800002F0A7F802203870DFF8B80A02F096FDF4
:1003900010223100002002F00BF9DFF8A80A02F069
:1003A0008DFD10223900002002F002F9F1BD38B5B0
:1003B0000400200080B202F0D9FD0500200080B2C8
:1003C00002F0D7FDEDB20321DFF87C2A01FB052105
:1003D000405C8D3832BD2DE9F04704000F0020004D
:1003E00080B202F0C6FD0500200080B202F0BEFD22
:1003F0000600F6B2002E0AD1FFB217F10A005FF430
:10040000802148434CF2503190FBF1F060E0B01D88
:10041000C0B25FEA8008F6B2052E01DB082000E0DA
:100420000020B8EB0009200080B202F0A6FD0028F1
:1004300002D05FF0000A01E05FF0100A200080B2F5
:1004400002F09FFD002801D0142000E00020FFB240
:100450005FFA88F8D8EBC7011AEB01011C31B1EB48
:10046000000ABAF1010F13DB5FFA89F919EB0A00F0
:10047000401E5FFA89F990FBF9FA200080B202F081
:1004800084FD401D00FB0AF082461AF1080A01E0D3
:10049000082082465FEA8A0010F1310A701C401B76
:1004A000804643F609505FFA88F8B8F1050F04DB7F
:1004B000B8F104010841042188461AFA08F14FF402
:1004C0000042022390FBF3F302FB013191FBF0F0B9
:1004D000BDE8F08770B40200D2B2002A0AD1DFF87A
:1004E0006C49B4F97C402000DFF86049B4F97E40E3
:1004F00023000FE0DFF85449B4F97C40D2B25443F2
:10050000E4112000DFF84449B4F97E40D2B25443EC
:10051000E41123000524DFF83459B5F98050DFF8E1
:100520002C6996F8F96006FB0533C9B2DFF820594B
:1005300055F8215093FBF5F56D1DDFF81069B57482
:10054000E4B2083CC9B2DFF8085955F8211001FBA4
:10055000040070BC704770B504000D00EDB2002DB2
:1005600018D0DFF8E8080021A0F87C10DFF8DC08DC
:100570000021A0F88010DFF8D408002180F8F910DD
:10058000DFF8C80890F8600150F00C00DFF8BC18E4
:1005900081F86001DFF8B808C668E4B24FF40042A1
:1005A00040F2E7300021E2FB04014FF47A720023AD
:1005B00002F006FD90FBF6F0401DDFF8901881F880
:1005C0005101DFF88808D0F85C0110F58000DFF8F1
:1005D0007C1891F85111083906FB1100DFF86C18EE
:1005E000C1F8540170BDF8B5040010220021DFF8F5
:1005F000540801F063FF08220021DFF8580801F0D9
:100600005DFFDFF84808D0F86411DFF84C08FFF709
:1006100092FDDFF83808D0F8DC10DFF84008FFF76B
:100620008AFD1022DFF83018002001F0C1FF657844
:10063000DFF82408FFF75EFD40F6FF71D5F10702F1
:10064000114111EA0006DFF80408D0F85C711E20A1
:1006500000FB06F04FF4004181FB00014FF47A7279
:10066000002302F0ADFCC019DFF8F4170818606031
:100670000020A070676821780120A840801CC0B2CB
:10068000FFF728FF381AA060DFF8C007807CE07011
:10069000F1BD2DE9F04104000D00A068401B0028C9
:1006A00001D4012029E0A0780600C0B2802801DB37
:1006B000002022E0012094F9011010FA01F7BE1980
:1006C000A6703000C0B2802801DB002015E0606811
:1006D000F6B2DFF8901701FB06F110EBE118217874
:1006E000B819801CC0B2FFF7F5FEB8EB0000A0609F
:1006F000DFF85807807CE070CFE7BDE8F08138B5BF
:10070000040003F007F80500EDB203F003F850EA27
:10071000052189B20800B0F5004F07DD89B24FF41A
:10072000004291FBF2F303FB12131800E4B2002C19
:100730000AD00A00D2B2E4B292FBF4F304FB132213
:100740004FF4004303FB020032BD38B504000D0036
:100750002800C0B2FFF7D3FF00190400DFF8EC0651
:1007600090F86B00002805D0DFF8E006C06E201A74
:1007700001280CDBDFF8D406C466DFF8D006B0F839
:10078000740050F48070DFF8C416A1F8740031BD15
:10079000DFF8B82682F87810704710B452B212F120
:1007A000800F03D0DFF8A43683F87720DFF89C367B
:1007B00083F87810DFF89436B3F8743053F400639C
:1007C000DFF88846A4F8743010BC704738B50400D0
:1007D000DFF878063F21A0F86810E4B2002C01D0C1
:1007E000002500E006250020C0B2062814DAC0B2B9
:1007F000DFF8581611EB8001EDB2DFF85C2C52F8EF
:1008000025200A64C0B2DFF844164118502281F84E
:100810006020401C6D1CE7E7E4B2002C04D1DFF837
:100820002C06702180F86510DFF820064FF47A71ED
:100830000184DFF818060E2180F82210DFF80C067C
:1008400064210185DFF804060E2180F82A10DFF804
:10085000FC050A210186DFF8F4051B2180F832101F
:1008600003F03BF8DFF8E4154863DFF8E015C862F1
:10087000DFF8D815486231BD10B50400601EFFF7DF
:100880003FFC000A64214843DFF8701C884205D30E
:10089000DFF86C1C884201D20021080010BD10B4A2
:1008A0000300DBB2082B01DB00202EE0DFF8540C44
:1008B000814206D3DFF8500C814202D251F002018E
:1008C00011E0DFF8480C814203D3DFF8440C814289
:1008D00007D3DFF8400C814205D3DFF8240C8142B6
:1008E00001D251F00101DBB2DFF8600510EB8300AB
:1008F0000164002A01D5502000E01000DBB2DFF8CF
:100900004C451C1984F86000012010BC704710B4DD
:100910000200D2B2002A03D14FF47F40014201D03D
:1009200000201BE00020C0B2082812DA0123834017
:100930000C00A4B21C420AD0C0B2DFF8103513EB91
:1009400080031B6C002B02D1012383409943401C80
:10095000E9E7DFF8F804A0F86810012010BC704740
:1009600038B50400DFF8E40490F86A00DFF8DC141E
:1009700011EB8000056CDFF8D40490F80F11DFF85C
:10098000CC04008AFFF727FD15F00301DFF8BC2433
:1009900012EBC1012031DFF8B424AB089B00D36017
:1009A000DFF8A8248B78D3740A8802FB00424A60DF
:1009B0000022D2B2042A10DAD2B2DFF8903413EB5C
:1009C000C2035B6A1B1B002B05D5D2B2DFF87C3457
:1009D00013EBC2035C62521CEBE7DFF8702492F861
:1009E0006B20002A09D0DFF8642492F96B2010FAFA
:1009F00002F21219DFF85434DA6631BD2DE9F84FEE
:100A00000600DFF82C0D871900240020C0B204284E
:100A10001EDAC0B2DFF8341411EBC00120310A88AD
:100A2000002A13D04A68B21A002A09D464B2002CF2
:100A300001D5002400E064B2012181400C4305E0AF
:100A40004A68BA1A012A01DB49680F00401CDDE739
:100A500064B2002C01D138007AE000200500C0B259
:100A600081468046012082461FFA8AFABAF1000FB9
:100A700043D0DFF8D803B0F868001FFA8AFA50456F
:100A80003BD3DFF8C803B0F868101AEA010F2FD083
:100A900064B25FFA88F8DFF8B40310EB880090F8CE
:100AA000400010F0030054FA00F0C00720D55FFAB0
:100AB00088F8DFF8980318EB000090F860B01BF09E
:100AC0000F01DFF8880390F8780002F095FF002806
:100AD0000ED15FFA8BFB5FEA1B11DFF8700390F811
:100AE000780002F092FF002802D15AEA09096D1C31
:100AF0005FEA4A0A18F10108B6E7EDB2002D01D10C
:100B0000380025E002F006FE83465FFA8BFB02F018
:100B100001FE50EA0B2080B2EDB290FBF5F105FB2F
:100B200011050120824600208046484680B210EA26
:100B30000A0F08D0EDB2002D04D1C44880F86A80B5
:100B4000300005E06D1E5FEA4A0A18F10108ECE783
:100B5000BDE8F28F80B5BD48002180F80F11BB4879
:100B600090F85001B94911EB8000006C80088000BA
:100B7000B649C860032002F051FF012180B202F0A3
:100B800058FF182180B202F05BFFB049088201BD16
:100B900080B502F0BFFD032190FBF1F201FB1200D2
:100BA000AA4981F86A00A9480E2180F8771005212A
:100BB0000020FFF7EDFD0120FFF708FEA348B0F885
:100BC0007400000501D503F0EDF9A048406A9F4983
:100BD000086001BD80B59D48B0F874004FF2FF7108
:100BE00008409A49A1F874009848406A97490860FB
:100BF000964890F86A00032807DA944890F86A004B
:100C0000C01C924981F86A0042E0904890F8780050
:100C1000002825D105210120FFF7BAFD02F07AFD59
:100C2000032190FBF1F201FB1200884981F86A0070
:100C3000864890F80C01052806DA844890F80C01E3
:100C4000401C824981F80C010420804991F90C1163
:100C50008840401EC0B2FFF752FD50F0010019E07D
:100C60007A4890F86A00052801D1002003E077480F
:100C700090F86A00801E754981F86A00734890F800
:100C8000780003F02BFA0100C9B20120FFF780FDC4
:100C90005FF4C03002BD10B5040001F035FA10BD9C
:100CA00010B504002000C0B202F039F901F02CFAAE
:100CB00010BD00206549C1F8E4006449C1F8E000B6
:100CC0006248002180F87A100020604981F8ED0028
:100CD0005E4981F8EC005D4981F8EA005B4981F8E2
:100CE000E8000020594981F8F000584981F8F100E6
:100CF000564981F8F800554981F8EF005348002122
:100D000080F8FB105148002180F876104F487FF0A2
:100D10000B0180F8E9104D48032180F8F2104B4890
:100D2000DFF8CC1AC0F8F4104848052180F85011BB
:100D30004648DFF8BC1AC0F808114448032180F87F
:100D4000FC10704700000000640200206A020020CE
:100D500070B53E4890F80F01182801D003F022F931
:100D60003D4C14F10D00FFF7C5F905000D212000E1
:100D7000FFF7F3F9ADB2854201D000205CE0201D01
:100D8000FFF7BEF905022D0A3048006F854202D0F8
:100D90005FF0FF3050E02D4890F8600110F0FC004B
:100DA0002A4981F860010222DFF8481ADFF8480A70
:100DB00001F08FFB25484068DFF8401A08182349E6
:100DC000C1F85C0114F10900FFF79AF91F49C1F855
:100DD00064011E4890F8600150F001001B4981F841
:100DE000600114F11600FFF785F9060016212000B6
:100DF000FFF7B3F9B6B2864201D001201CE014F12E
:100E00000F00FFF77DF900121049C1F86C0114F1D1
:100E10001200FFF775F900120C49C1F870010B4878
:100E2000E17B80F86811094890F8600150F00200F9
:100E3000064981F86001022070BD000034520008AC
:100E40006E020020B401002064570008400000201A
:100E50004457000858010020500100205401002090
:100E60005C0F0100A3703D002DE9F04F8DB0DFF85D
:100E7000AC8C98F800008DF809009DF8090010F07E
:100E8000E0008DF80800DFF8A80D90F80F01099038
:100E900009980C280CDB9DF809000321084207D1B2
:100EA0009DF8080060280AD09DF80800A02806D008
:100EB000DFF87C0D002180F80F1100206EE298F819
:100EC0000500069018F10100FFF71AF90B9018F1D0
:100ED0000600FFF70FF90400069810F00F000890C5
:100EE0000698C0F3401010F001000A90089810F125
:100EF00008050998001F03900B98DFF8341DD1F8FE
:100F0000DC108842D4D10398A842D1DB5FF0FF30D7
:100F10000490002007900398854203DA15F8080032
:100F200004906D1CDFF8080DD0F8E000DFF8001D1C
:100F3000D1F8E010611A09B20C1803980190CDF8AD
:100F4000008001232200DFF8E80CD0F8DC10DFF885
:100F5000E40CFFF73EF90028AAD0DFF8D40CD0F853
:100F6000E00084421AD2DFF8C80CD0F8E000A042BA
:100F70009EDBDFF8BC0CD0F8E000401E844209D1B3
:100F8000DFF8AC0C90F8E800002803D09DF80800CA
:100F9000A02800D08CE7012007900FE0DFF8900C2C
:100FA000611CC0F8E0109DF80800A02801D12020A5
:100FB00000E00020DFF8781C81F8E800DFF8700C12
:100FC00090F8E800002802D10698C00609D5DFF89D
:100FD000600CB0F8740050F01000DFF8541CA1F859
:100FE0007400DFF84C0C002180F8EA10DFF8400CA8
:100FF0007FF00B0180F8E910DFF8340C90F908005D
:10100000B0F14006DFF8280C008AFFF7D0F9301A5B
:1010100005900598002801D5002005E00598FF28D7
:1010200001DBFE2000E00598DFF8041C81F8EB00EE
:1010300018F1080600270898874280F25881B85DA9
:10104000022812D0032812D0042800F0AF8005280F
:1010500071D0062868D0072800F0BD80112800F064
:10106000E280122800F0F28041E1FF1CE3E7B819AA
:1010700090F80190B819801CFFF73CF88246B81927
:10108000007910F0F0008DF80100B819007910F027
:101090000F008DF800007F1DDFF8940B872180F88A
:1010A000EC10514689B29DF80100FFF730FC002892
:1010B00009D1DFF87C0B90F8EC0010F0FE00DFF8AF
:1010C000701B81F8EC005FFA89F95FEA191B58463A
:1010D000C0B203F00DF800280ED1DFF8540B90F8E1
:1010E000EC0010F0FD00DFF8481B81F8EC00DFF8A1
:1010F000400B90F878008346DFF8340B9DF8001021
:1011000080F876105FFA89F919F00F00DFF8281CD3
:1011100042565946C9B20420FFF73FFBDFF8100BD7
:10112000012180F8EA1086E7DFF8040B012180F83E
:10113000ED107F1C7FE7B819407810F00F09B8193F
:10114000801CFFF799FB82467F1DDFF8E40A8021AF
:1011500080F8F8104846C0B202F0CAFF002809D053
:10116000DFF8CC0A90F8F80050F00200DFF8C01A5F
:1011700081F8F800BAF1000F09D0DFF8B40A90F84E
:10118000F80050F00100DFF8A81A81F8F800DFF845
:10119000A00A90F8F800832807D1DFF8940A80F8B5
:1011A000F290DFF88C0AC0F8F4A044E7B81990F880
:1011B0000190BF1CDFF8780A19F00F0180F86B105E
:1011C00002F08BFBDFF8681AC866DFF8640A0121B9
:1011D00080F8F0102FE7B81990F80190B819801C2A
:1011E000FFF74AFB8246B81990F805B0DFF8400ACD
:1011F000802180F8F110BAF1000F13D05FFA8BFB59
:101200005A4651464846C0B2FFF749FB002809D06C
:10121000DFF81C0A90F8F10050F00300DFF8101A14
:1012200081F8F100BF1DB819401CFFF725FB3F1DD9
:101230008021002805D051F00101DFF8F429C2F81F
:101240000801DFF8EC2982F8FB10F4E6DFF8E0098A
:1012500090F87400800748D4B819C078DFF8D01926
:1012600081F85001DFF8C809B0F8740050F00200AE
:10127000DFF8BC19A1F87400DFF8B40990F8FA009F
:10128000002801D102F08EFEDFF8A40990F80F11BA
:10129000DFF89C09008AFFF79EF88146B819401CC8
:1012A000FEF728FFDFF888194968B1EB090980B219
:1012B0000A2148434FF4004181FB00014FF47A7248
:1012C000002301F07DFE10EB0900DFF8281C081850
:1012D000DFF85C19C1F85C01DFF85409002180F8DF
:1012E000601101210A20FFF736F93F1DA3E6079898
:1012F00000281CD10498002819D40398401B012809
:1013000015DB0498012802DADFF8280901E0DFF88C
:10131000E80B0399491B019115EB0801009101238A
:101320002200DFF80C19D1F8DC10FEF7D6FFDFF849
:10133000000990F80C0100280ED00A98002801D06E
:10134000802000E04020DFF8E81891F80D110843F4
:10135000DFF8DC1881F80D010498002813D5DFF8B8
:10136000D00890F80D0150F02000DFF8C41881F883
:101370000D010020DFF8B81881F80F01DFF8B01870
:1013800081F80E0109E0DFF8A80880F80E510398F3
:10139000401BDFF89C1881F80F0101200DB0BDE85B
:1013A000F08F80B5DFF8100D022180F80D11DFF805
:1013B000080D90F8F20002F031FBDFF8FC1C088207
:1013C000DFF8F40CDFF8F01CD1F8F410C160DFF89E
:1013D000E80C002180F80F11022002F053FA01BD41
:1013E00038B504000D00DFF8D00C00682018DFF8D5
:1013F000C81C91F8F210DFF8042B52F821100322D8
:1014000002FB0100DFF8B01C48602A00DFF8A80CDE
:101410004068B0F14101DFF8D80C02F09EFA31BD0E
:1014200010B50400DFF8900C012180F80D110121A6
:10143000DFF8840C008A02F0FCFADFF87C1C0882DA
:10144000DFF8740C002180F80F11DFF86C0CC46118
:10145000022002F017FA10BDA056000870B5040073
:101460000D00DFF8CC07867CDFF8C407B0F8740005
:1014700040F20261084040F2024188420DD1DFF89B
:10148000540CFFF7B0F8DFF8A807B0F8740050F478
:101490000070DFF89C17A1F87400DFF89407807CD7
:1014A00007280CD1DFF8880700682018401FDFF8F4
:1014B00080174860DFF878070821817412E0DFF8B0
:1014C000700700682018F6B2DFF8301A51F82610BD
:1014D000032202FB0100DFF858174860DFF85007CD
:1014E000052181742A00DFF848074068B0F1410106
:1014F000DFF8FC0B02F031FA70BD0000C05570330C
:101500008125DB33C0FDD13351CED53300A1BC33AF
:10151000C1C8C533A091D63310B504000820FFF729
:10152000BFFB10BD2DE9F041DFF8040790F80D0175
:10153000012807D1DFF8F80690F80F01002801D143
:1015400002F030FDDFF8E80690F87400000601D4E0
:1015500002F028FDDFF8D80690F80F0100284BD1E3
:10156000DFF8CC0690F87400400726D4DFF8C006F8
:1015700090F87400800601D402F014FDDFF8B00684
:10158000B0F874004FF65F710840DFF8A416A1F8B8
:101590007400DFF89C0690F87A000A2808DADFF871
:1015A000900690F87A00401CDFF8841681F87A00E3
:1015B0000920FFF775FB0120B8E0DFF87406B0F8EA
:1015C00074004FF67F710840DFF86416A1F87400CC
:1015D000FFF700FB0400E00702D5DFF8185B01E02D
:1015E000DFF8145B02F079F92A002118DFF8000B0C
:1015F00002F0B3F9012099E0DFF8340690F81041C9
:10160000DFF82C0690F80F51EDB2DFF82406281809
:1016100010F58670FEF774FD0600EDB2112D02D0B4
:10162000EDB2212D04D1E4B214F0E300202800D063
:1016300096E7EDB2691EDFF8C40AFEF740FEEDB290
:10164000291FDFF8D804FEF722FE0028F0D0DFF8CB
:10165000B00AFEF755FD0700DFF8D405C0F8DC70CE
:10166000DFF8A00AFEF74CFD000ADFF8C415086792
:101670000020FFF7ABF8EDB2122D1BDB0E200500AA
:101680005FF003085FFA88F8B8F1080F12DAEDB2DC
:10169000DFF89C05281800F20F10FEF731FD5FF00F
:1016A000FF32010A4046C0B2FFF7F9F818F101080D
:1016B000ED1CE7E7DFF84038DFF87825DFF83C1A63
:1016C000DFF86C05B0F8BA00401E80B2FEF73FFEAE
:1016D000DFF85C0590F874002421084201D102F083
:1016E00061FCDFF84C0590F8740080060DD5DFF83A
:1016F000400590F87A10DFF8380590F8780002F08D
:1017000005FDDFF82C1581F87800DFF82405B0F826
:1017100074004FF659510840DFF81415A1F8740011
:10172000FFF7C7FA0620FFF7BBFA0120BDE8F081FA
:101730000000504610B50400DFF8F40490F80F01E3
:10174000002804D1DFF8E804002180F80D11FFF72C
:10175000E9FE10BD10B50400DFF8940CFFF760FE41
:1017600010BD10B50400DFF88C1C5FF42030FFF7CB
:1017700075FE10BD10B50400DFF8B40490F80F0139
:10178000002804D1DFF8A804002180F80D1100F032
:10179000D5FA10BD10B50400DFF89404DFF8581C2A
:1017A000C161FFF7FEFD10BD10B50400DFF8800435
:1017B00090F80F01002803D000F0C0FA002805D1EE
:1017C000DFF8381C5FF48030FFF70AFE10BD10B55B
:1017D0000400DFF82C0CFFF723FE10BD10B5040049
:1017E000DFF8201C4FF40040FFF738FE10BD00006A
:1017F00008E6D333480000209801002047E8FFFFA7
:10180000F0B583B0DFF8280490F8740010F01800E9
:10181000102801D0012400E00024E4B2002C04D000
:10182000DFF80C0490F8845000E000250826DFF86B
:101830000004B0F8740040F20241084040F2024156
:10184000884215D1DFF8E8033018102180F8101114
:10185000DFF8DC0390F8FC00DFF8D41391F8FD10FA
:1018600050EA0110DFF8C813711881F81101B61C95
:10187000DFF8BC0390F8F00000280BD0DFF8B003CD
:101880003018042180F81011761CDFF8A403002121
:1018900080F8F010DFF8980390F8F800002816D0D0
:1018A000DFF88C033018052180F81011DFF8800371
:1018B0003018DFF87C1391F8F81011F0030180F86C
:1018C0001111B61CDFF86803002180F8F810DFF86A
:1018D000600390F8ED0000281AD0DFF854033018A8
:1018E000062180F81011DFF848033018DFF84013A4
:1018F00091F8EB1080F81111FEF72DFCDFF8301392
:10190000711881F81201F61CC948002180F8ED1009
:10191000C74890F8EC00002812D0C54830180321C1
:1019200080F81011C2483018C14991F8EC1011F03C
:10193000070180F81111B61CBD48002180F8EC1099
:10194000BB4890F8FA00002805D0B9483018122199
:1019500080F81011761CB64890F8EA00002810D0E4
:10196000B34890F9E900002801D5002002E0B04812
:1019700090F9E900AE4981F8E900AD48002180F80E
:10198000EA10AB4890F8FB00002812D0A8483018A5
:10199000112180F81011A6483018A54991F8FB10C4
:1019A00011F0010180F81111B61CA148002180F846
:1019B000FB109F4890F8F100002810D09C48301888
:1019C000072180F810119A483018994991F8F110C0
:1019D00080F81111B61C9648002180F8F110192EDC
:1019E00001DB02F0DFFAE4B2002C02D0EDB2681D98
:1019F00000E004208719FFB2412F03DB0020040020
:101A0000301D07008A48402180F81011884890F95D
:101A1000E900002801D4402000E00020844991F82A
:101A2000E810834A92F8EE20114308433100083948
:101A300008437F4981F815017D48D0F8DC10DFF8B4
:101A4000BC06FEF778FB7A4890F80C01002806D116
:101A50007748D0F8E400401C7549C1F8E4007448A8
:101A6000D0F8E400411E89B2DFF8080AFEF75EFBF9
:101A70006F48002180F8E810E4B2002C3AD06C489E
:101A800090F8830000280AD06948802180F810115E
:101A9000674890F80C01401C654981F80C016448C6
:101AA0003018634991F8821080F81011EDB22A00C5
:101AB000DFF8C4195E48301800F2111000F009FD7B
:101AC0005B4890F88200002801D15A4801E0DFF815
:101AD0002804EDB201955649711801F211110091D7
:101AE00000235349D1F8E4104A1E5149D1F8DC10C3
:101AF000FEF7F3FBFFB2381F019008480090002367
:101B00004B48D0F8E400421E4948D0F8DC10494860
:101B1000FEF788FB464880F80F71F7BD50010020A2
:101B200010B50400002001F0ADFEDFF8C40501F09F
:101B3000E7FE3F4890F80F0100280CD13C48B0F870
:101B400074004FF6FC7108403949A1F87400012077
:101B5000FFF7A6F82CE0FFF7FBF8012810DA34486D
:101B6000002180F80F11032001F08CFEDFF80C2912
:101B70002F48D0F85C11DFF8780501F0EEFE17E091
:101B800001210D20FEF7E7FC2948B0F874004FF65C
:101B9000FE7108402649A1F874002548B0F8740089
:101BA00050F002002249A1F874000220FFF778F8F3
:101BB00010BD80B51E48D0F8DC00002804D01C48B9
:101BC00090F87400400701D502F0ECF9184890F83D
:101BD000740040062AD40020154981F86001144998
:101BE00081F8E800124981F80C011148B0F874003E
:101BF0004FF67F71084050F001000D49A1F87400C4
:101C0000FEF7A8FF01F069FE10F581000849C1F850
:101C10005C0107494860DFF8642805484168DFF83F
:101C2000D00401F09AFE032001F02CFE01BD00005B
:101C300040000020FC00002038B50400DFF84458C4
:101C40002C70681C01F02AF915F1090001F02EF939
:101C5000DFF82C08B0F8BA1015F11100FEF766FA9B
:101C600013212800FEF701FBDFF81408172180F884
:101C70000F11DFF80C08B0F8BA00401CDFF80018AC
:101C8000A1F8BA0031BD10B504000520FFF708F82F
:101C900010BD80B5DFF82004D0F8DC00002830D17A
:101CA000DFF8140490F874009021084201D002F08B
:101CB00079F9DFF80404B0F874004EF2DE710840E0
:101CC000DFF8F413A1F874000020DFF8EC1381F8BA
:101CD0000C01DFF8E41381F87A00FEF759FFDFF812
:101CE000D803B0F8740050F00400DFF8CC13A1F86A
:101CF0007400DFF89417DFF8F80301F018FE0120F4
:101D000000E0002002BD10B50400DFF8740790F871
:101D10000F0100280CD0DFF86807042180F80D11AE
:101D2000FFF7A2F8002803D00D20FEF7B9FF01E06D
:101D300000F0EAF910BD00000C58000880B5DFF88B
:101D4000400790F87400000601D402F02BF9DFF888
:101D5000300790F80F01002840F0B180DFF820072D
:101D600090F80C01002820D0DFF8140790F80C013F
:101D7000092814DA0321DFF808074068FEF7E5FCBC
:101D8000DFF8FC06B0F874004FF67F710840DFF80A
:101D9000F016A1F8740000F0B7F90120A8E0DFF810
:101DA000E006602180F80D1104E0DFF8D406202160
:101DB00080F80D11DFF8C80690F8E900401CDFF844
:101DC000C01681F8E9000020DFF8B41681F80F0191
:101DD000DFF8AC1681F80E01DFF8A406B0F8740045
:101DE0004FF677710840DFF89816A1F87400DFF815
:101DF000900690F80D010721084213D0DFF8800605
:101E0000B0F87400C0040DD5DFF87406B0F87400A3
:101E10004EF6FF710840DFF86816A1F874000F2035
:101E2000FEF73EFF0A20FEF73BFFDFF8540690F96D
:101E3000E9000D281EDBDFF8480690F8780002F074
:101E40004DF97FF07F020100C9B20320FEF7A5FC27
:101E5000DFF82C06062180F8E910DFF82406B0F838
:101E6000740050F48150DFF81816A1F874000E20A9
:101E7000FEF716FFDFF8080690F8FA0000281CD0DD
:101E8000DFF8FC0590F87400800708D50220FEF703
:101E900007FFDFF8EC05002180F8FA100DE0DFF80D
:101EA000E00590F8FA00401EDFF8D41581F8FA003A
:101EB000C0B2002801D1FFF77CFE012018E0FEF738
:101EC000D3FF002808D1DFF8B80590F80D01C0074E
:101ED00001D500200CE041E7DFF8A4057FF00B01FD
:101EE00080F8E910DFF89805002180F87A1073E790
:101EF00002BD0000A400C0FF0C01002044570008F0
:101F00002DE9F04104006C48D0F85C516A4890F823
:101F10006061694890F80F01002868D0FEF718FF4B
:101F2000012864DB042007000320064204D10021BD
:101F30000D20FEF710FBB0E05F48D0F85C01404296
:101F400015EB00085C4890F8F900002811D05A48B9
:101F5000B0F87C000FFA88F85749B1F97C10B8EB5B
:101F60000101554A92F8F920521C91FBF2F111EB54
:101F70000008514890F8600140071DD44E48B0F861
:101F80007C00B0EB080000B2002801D500B240424E
:101F90004949A1F87E004849B1F9801000B2814258
:101FA00002DA4549A1F88000434991F8601111F027
:101FB000F701414A82F860113F48A0F87C80002078
:101FC0003D4981F87A003C4981F8F9003A4890F897
:101FD000600110F0FB00384981F86001364890F844
:101FE00060010321084246D101F0DCFF43E00320F9
:101FF00007003148D0F85C0110F580002E49B1F996
:102000007C10401A2C49C1F85C012B48D0F86401BF
:1020100080302949C1F86401274890F8F900401C34
:10202000254981F8F90004212348D0F85C01DFF844
:102030005C241018FEF789FB1F4890F8F90015285A
:1020400007DB1D48B0F8740050F020001A49A1F8D1
:102050007400194890F8510165280CDB1648B0F857
:1020600074004FF6DD1108401349A1F874000B20ED
:10207000FEF716FE1EE003210020FEF72BFA0E49A4
:10208000D1F85C1111F58001081A0B49C1F854010F
:1020900009480949897C80F851110748B0F8740053
:1020A000800503D5DFF8E803FEF79DFA3800C0B2DB
:1020B000FEF7F6FDBDE8F0814000002010B50400F9
:1020C000DFF8BC03DFF8CC13C161022001F0DAFBBA
:1020D00010BD00003C01002010B50400DFF8A00393
:1020E000DFF8B413C161022001F0CCFB10BD000089
:1020F0005400002019150008970C00085101002019
:1021000057010020530100202DE9F843DFF8700348
:1021100090F87400C121084240F06881DFF8600344
:10212000D0F8DC00002808D1DFF8540390F87400E0
:10213000400702D4FFF7ADFD58E101F0CEFB0400EB
:1021400000250026DFF8380390F87400800710D5CA
:1021500014F14100DFF82813D1F85411401A012876
:1021600001DB01F01FFFDFF81803D0F854014138FC
:102170000500DFF80C0390F874003C21084200F0E1
:10218000CA80DFF8FC0290F874002421084201D0D4
:10219000012700E00027DFF8E802B0F8740000052E
:1021A00012D52000FEF72AFCDFF8D41208600600E2
:1021B000DFF8CC02B0F874004FF2FF710840DFF88E
:1021C000C012A1F8740003E0DFF8B4020068060052
:1021D000DFF8AC0290F86B00002805D1DFF8A00210
:1021E000B0F87400C00509D5DFF89402C06E301A4B
:1021F000002803D5DFF88802C06E0600DFF88002F1
:1022000090F87400800714D5FFB2002F02D05FF45D
:10221000902001E05FF440308019401B012808DB6A
:102220001021DFF868024019FEF78FFA002006003F
:1022300076E0301B4138002864D5DFF8440290F87E
:102240007880FFB2002F1DD0DFF8340290F87400C0
:1022500080060BD5DFF8280290F87A104046C0B20D
:1022600001F054FF8046C020814601E000208146F5
:102270004846C0B2FFF7E0FCDFF80402DFF81C12AA
:10228000C1611EE07E48D0F8E40010F1010F09D1D1
:102290007B480021C0F8DC10FFF7FBFC0C20FEF7A8
:1022A000FFFCA3E0FFF7ACFA754890F80C017C49FD
:1022B000415C4046C0B201F029FF80467048794930
:1022C000C1614046C0B201F033FF6D4991F8791009
:1022D00080B201F035FF6A490882694880F81280AF
:1022E0006748B0F874004FF6EF61084050F408609A
:1022F0006349A1F874003000FEF732FB012001F0C1
:10230000C1FA73E05E4890F87400800768D5002E2B
:1023100006D1761C04E05A4890F87400800765D511
:102320005748B0F87400800539D514F14101584878
:10233000FEF7AFF9002832D0002E05D05048D0F873
:102340000401301A00284BD44D484D4991F8FF1034
:1023500081744B484A49D1F80411416048484849C2
:10236000D1F80811C160464890F8FC0001F056FB16
:10237000434908824248002180F80F1140484068D4
:10238000001B4130002801D501F00CFE464A3C48B4
:102390004068B0F14101454801F0DFFA26E0002E27
:1023A00002D0701B00281BD4FEF7D4FB34483449FC
:1023B00091F85111817432483149D1F8541141607A
:1023C000601B002806D42E483249C161022001F06A
:1023D00059FA0BE0364A2900344801F0BEFA05E00C
:1023E000344AB6F14101314801F0B7FABDE8F18352
:1023F00035170008551700087517000895170008CD
:10240000A9170008CF17000810B5002001F03AFA0C
:10241000264801F075FA4FF4BA720021184800F00E
:102420004DF817480021C0F8DC1001F073F90400E2
:10243000E4B201F06FF950EA04201149A1F8BA00A2
:102440000F480021A0F874100D48002180F8791081
:102450000B48802180F8EE100948032180F8F21023
:1024600007481549C0F8F41010BD05484021A0F8F0
:102470007410704756010020C5000020211B000881
:102480004000002050010020871C00085C0F010064
:102490003C010020011F0008071D00086317000809
:1024A000A0580008DD170008D920000854000020BB
:1024B000BD200008970C000808E6D33370B504006F
:1024C0000D0016002A003100200001F041FE20001E
:1024D00070BD70B504000D00160032002900200008
:1024E00001F06AFE200070BD10B400221000042824
:1024F00020DADFF8882952F82020DFF8803953F8F5
:10250000203013F47F431B0253EA0262DFF86C3978
:1025100053F820301B0A13F47F431A43DFF85C3969
:1025200053F8203052EA1362DFF8503943F8202084
:10253000401CDCE7DFF84429D26811002C2835DA8A
:10254000042290FBF2F303FB1203002B21D10A0CAF
:10255000D2B2DFF82C39D25C0B0ADBB2DFF82049AB
:102560001B5D1B0493EA02620B00DBB2DFF810492B
:102570001B5D92EA0322090EDFF80439C95C514061
:10258000021F042392FBF3F2DFF8F83853F82220FD
:102590005140DFF8E82812EB800252F8102C51402D
:1025A000DFF8D82842F82010401CC7E710BC70475D
:1025B0002DE9F84F04000D001600FFF795FF2007E6
:1025C0000DD50020DFF8C018C860DFF8BC1888609F
:1025D000DFF8B4184860DFF8B018086067E0DFF88B
:1025E000A8080068DFF8A018096811F47F41090203
:1025F00051EA0060DFF890180968090A11F47F4178
:102600000843DFF88418096850EA1160DFF8781889
:102610000860DFF874084068DFF86C18496811F446
:102620007F41090251EA0060DFF85C184968090A35
:1026300011F47F410843DFF85018496850EA1160EF
:10264000DFF844184860DFF840088068DFF8381881
:10265000896811F47F41090251EA0060DFF8281807
:102660008968090A11F47F410843DFF81C1889685A
:1026700050EA1160DFF810188860DFF80C08C068B5
:10268000DFF80418C96811F47F41090251EA0060BB
:10269000DFF8F417C968090A11F47F410843DFF82D
:1026A000E817C96850EA1160DFF8DC17C86030002D
:1026B00040B20128C0F2DD835FEA447C04D414F008
:1026C0000A0CBCF1020F14D1DFF8BCC7DCF800C063
:1026D0006046DFF8B4C7DCF804C06146DFF8A8C77D
:1026E000DCF808C06246DFF8A0C7DCF80CC063461F
:1026F00053E05FEA847C13D5B6B2112E10DA5FF096
:10270000000C6346624661466046B6B2102E02D1A6
:102710005FF0010C01E05FF0020C54EA0C143CE0A5
:102720005FF0000CE246BAF1100F1BD2B6B2B24510
:1027300002D21AF805C007E0B6B2B24502D15FF086
:10274000800C01E05FF0000C5CEA09291AF0030C30
:10275000BCF1030F03D1080011001A004B461AF117
:10276000010AE0E75FEA847C17D5DFF81CC7DCF8D4
:1027700000C09CEA0000DFF810C7DCF804C09CEA47
:102780000101DFF804C7DCF808C09CEA0202DFF8A8
:10279000F8C6DCF80CC09CEA0303DFF8E0C6E046AC
:1027A00018F1800BCDF800B0D8F800C09CEA00000A
:1027B000D8F804C09CEA0101D8F808C09CEA0202DB
:1027C000D8F80CC09CEA0303D8F814C0E146D8F846
:1027D00018C06746D8F81CC0E646D8F810C0E246D4
:1027E00084465FFA8CFCDFF8A4B65BF82CC09CEA48
:1027F00009095FEA102C5FFA8CFCDFF894B65BF8ED
:102800002CC09CEA07075FEA104C5FFA8CFCDFF8EB
:1028100084B65BF82CC09CEA0E0E5FEA106CDFF801
:1028200078B65BF82CC09CEA0A0A8C465FFA8CFCEE
:10283000DFF858B65BF82CC09CEA07075FEA112C5A
:102840005FFA8CFCDFF848B65BF82CC09CEA0E0EF1
:102850005FEA114C5FFA8CFCDFF838B65BF82CC0ED
:102860009CEA0A0A5FEA116CDFF82CB65BF82CC010
:102870009CEA090994465FFA8CFCDFF810B65BF815
:102880002CC09CEA0E0E5FEA122C5FFA8CFCDFF87B
:1028900000B65BF82CC09CEA0A0A5FEA124C5FFAA9
:1028A0008CFCDFF8F0B55BF82CC09CEA09095FEA04
:1028B000126CDFF8E4B55BF82CC09CEA07079C4675
:1028C0005FFA8CFCDFF8C4B55BF82CC09CEA0A0AFE
:1028D0005FEA132C5FFA8CFCDFF8B4B55BF82CC010
:1028E0009CEA09095FEA134C5FFA8CFCDFF8A4B597
:1028F0005BF82CC09CEA07075FEA136CDFF898B519
:102900005BF82CC09CEA0E0ED8F824C06146D8F8BB
:1029100028C06246D8F82CC06346D8F820C060466C
:10292000D4465FFA8CFCDFF864B55BF82CC09CEAF7
:1029300001015FEA1A2C5FFA8CFCDFF854B55BF8F2
:102940002CC09CEA02025FEA1A4C5FFA8CFCDFF8AA
:1029500044B55BF82CC09CEA03035FEA1A6CDFF80D
:1029600038B55BF82CC09CEA0000CC465FFA8CFCC2
:10297000DFF818B55BF82CC09CEA02025FEA192C5C
:102980005FFA8CFCDFF808B55BF82CC09CEA030307
:102990005FEA194C5FFA8CFCDFF8F8B45BF82CC0E6
:1029A0009CEA00005FEA196CDFF8ECB45BF82CC01D
:1029B0009CEA0101BC465FFA8CFCDFF8D0B45BF8FE
:1029C0002CC09CEA03035FEA172C5FFA8CFCDFF84B
:1029D000C0B45BF82CC09CEA00005FEA174C5FFAB9
:1029E0008CFCDFF8B0B45BF82CC09CEA01015FEA14
:1029F000176CDFF8A4B45BF82CC09CEA0202F44622
:102A00005FFA8CFCDFF884B45BF82CC09CEA000011
:102A10005FEA1E2C5FFA8CFCDFF874B45BF82CC004
:102A20009CEA01015FEA1E4C5FFA8CFCDFF864B49B
:102A30005BF82CC09CEA02025FEA1E6CDFF858B417
:102A40005BF82CC09CEA030318F12008DDF800C0F5
:102A5000E045FFF4B9AED8F814C0E146D8F818C084
:102A60006746D8F81CC0E646D8F810C0E24684464F
:102A70005FFA8CFCDFF814B45BF82CC09CEA0909FF
:102A80005FEA102C5FFA8CFCDFF804B45BF82CC012
:102A90009CEA07075FEA104C5FFA8CFCDFF8F4B39E
:102AA0005BF82CC09CEA0E0E5FEA106CDFF8E8B30E
:102AB0005BF82CC09CEA0A0A8C465FFA8CFCDFF8B3
:102AC000CCB35BF82CC09CEA07075FEA112C5FFAD5
:102AD0008CFCDFF8BCB35BF82CC09CEA0E0E5FEAFE
:102AE000114C5FFA8CFCDFF8ACB35BF82CC09CEAAD
:102AF0000A0A5FEA116CDFF8A0B35BF82CC09CEA0D
:102B0000090994465FFA8CFCDFF880B35BF82CC0AF
:102B10009CEA0E0E5FEA122C5FFA8CFCDFF870B3B1
:102B20005BF82CC09CEA0A0A5FEA124C5FFA8CFC44
:102B3000DFF860B35BF82CC09CEA09095FEA126C0D
:102B4000DFF854B35BF82CC09CEA07079C465FFA99
:102B50008CFCDFF838B35BF82CC09CEA0A0A5FEA09
:102B6000132C5FFA8CFCDFF828B35BF82CC09CEACE
:102B700009095FEA134C5FFA8CFCDFF818B35BF8C5
:102B80002CC09CEA07075FEA136CDFF80CB35BF814
:102B90002CC09CEA0E0ED8F820C060465FEA1A6C82
:102BA000DFF8DCB21CF80BC090EA0C605FEA194C4D
:102BB0005FFA8CFCDFF8C8B21CF80BC090EA0C403E
:102BC0005FEA172C5FFA8CFCDFF8B4B21CF80BC07C
:102BD00090EA0C20F4465FFA8CFCDFF8A4B21CF8F3
:102BE0000BC09CEA0000D8F824C061465FEA196C6B
:102BF000DFF88CB21CF80BC091EA0C615FEA174C4D
:102C00005FFA8CFCDFF878B21CF80BC091EA0C413B
:102C10005FEA1E2C5FFA8CFCDFF864B21CF80BC074
:102C200091EA0C21D4465FFA8CFCDFF854B21CF810
:102C30000BC09CEA0101D8F828C062465FEA176C15
:102C4000DFF83CB21CF80BC092EA0C625FEA1E4C43
:102C50005FFA8CFCDFF828B21CF80BC092EA0C4239
:102C60005FEA1A2C5FFA8CFCDFF814B21CF80BC078
:102C700092EA0C22CC465FFA8CFCDFF804B21CF816
:102C80000BC09CEA0202D8F82CC063465FEA1E6CB7
:102C9000DFF8ECB11CF80BC093EA0C635FEA1A4C46
:102CA0005FFA8CFCDFF8D8B11CF80BC093EA0C4338
:102CB0005FEA192C5FFA8CFCDFF8C4B11CF80BC07A
:102CC00093EA0C23BC465FFA8CFCDFF8B4B11CF825
:102CD0000BC09CEA03035FEA847C5DD5C4F3011C4E
:102CE0005FFA8CFCE146BCF1000F44D05FEAD07C77
:102CF000E2465FEAD17C5CEA40005FEAD27C5CEAB3
:102D000041015FEAD37C5CEA42025B00BAF1000F4A
:102D100001D093F08703B9F10109B9F1000FE5D1B2
:102D2000DFF864C1DCF800C090EA0C0CDFF858B1A1
:102D3000CBF800C0DFF850C1DCF804C091EA0C0CFD
:102D4000DFF844B1CBF804C0DFF83CC1DCF808C0C0
:102D500092EA0C0CDFF830B1CBF808C0DFF828C1DC
:102D6000DCF80CC093EA0C0CDFF81CB1CBF80CC0FB
:102D700014F0CF04D4E4DFF810C1CCF80000DFF881
:102D800008C1CCF80410DFF800C1CCF80820DFF847
:102D9000F8C0CCF80C3062E05FEA447C2BD5B6B2C8
:102DA000112E02DB5FF0100A01E0B6B2B2465FF00E
:102DB000000CE146D14513D219F805C05FEA106B4B
:102DC0009BEA0C0C09F805C0000219F0030CBCF1D9
:102DD000030F02D1080011001A0019F10109E9E7F7
:102DE000DFF8A4C0DCF80CC01CF1010CDFF898B0CF
:102DF000CBF80CC033E05FEA106C85F800C05FEAE6
:102E0000104C85F801C05FEA102C85F802C0E8700C
:102E10005FEA116C85F804C05FEA114C85F805C0C3
:102E20005FEA112C85F806C0E9715FEA126C85F83B
:102E300008C05FEA124C85F809C05FEA122C85F8D9
:102E40000AC0EA725FEA136C85F80CC05FEA134CA3
:102E500085F80DC05FEA132C85F80EC0EB7314F0F3
:102E60000A0CBCF1020F01D01035103E54F00804DA
:102E70001DE405480068BDE8F28F0000B4010020A1
:102E800070550008D056000864020020344E000837
:102E9000344A0008344600083442000810B50400E3
:102EA00008222B492000FFF714FB10BD10B50400C9
:102EB000082228492000FFF70CFB10BD10B50400C4
:102EC000102225492000FFF704FB10BD10B50400B7
:102ED000FFF79AFAFEF7DDFE10BDE0B500F0F0FC5A
:102EE0001E4900A800F023FD00F056FD07BD10B5F7
:102EF00004001B480078002801D1012000E00020D8
:102F0000174908701648007801F074F800F0E5FCE5
:102F1000144A00F6CC41200000F01FFD10BD10B592
:102F20000400E4B2200001F081F8E4B2200005289A
:102F300002D0062804D009E00B48FFF7D8FF05E0CF
:102F4000094800F0DDFC012001F054F810BD00003C
:102F5000E8580008F05800081C580008CD2E00085A
:102F6000A0020020EF2E00088402002010F00700CD
:102F70007047C0F3C100C0B27047C0F3C01080B248
:102F8000704780B2000A80B27047C0F34110C0B2EF
:102F9000704710B450F8041B81B102681218001D6C
:102FA00050F8043BDC0744BFA9F10104E31852F8D0
:102FB000044B43F8044B091FF9D1EBE710BC7047F1
:102FC00013F0004C03D55B42524263F100039CEACC
:102FD000210C00F0178010B5644603D349424042EB
:102FE00061F1000100F00EF8640004D34942404250
:102FF00061F10001244203D55B42524263F10003B8
:1030000010BD00001B4213D1094236D12AB18446BB
:10301000B0FBF2F002FB10C2704701F009B9FCD31B
:103020000022002370470B0002000021002070479F
:10303000904271EB030CF6D370B5B1FA81F4B3FA98
:1030400083F52C1BA340C4F1200532FA05F6334367
:10305000A2405FF00046E64002E05B085FEA320211
:10306000841A71EB030524BF204629467641F4D328
:1030700002000B003000002170BD012ACFD970B5CD
:10308000140C20D0B1FA81F4B2FA82F5C4F1200414
:103090006419B4F12006D6D3B2405FF00044F44086
:1030A000002502E052085FEA3303C61A71EB020EF4
:1030B00024BF3046714664416D41F3D302000B00DA
:1030C0002000290070BD0C46B1FBF2F102FB114556
:1030D0002D0445EA1045B5FBF2F402FB145580B20D
:1030E00040EA0545B5FBF2F002FB105240EA04400D
:1030F00070BD50F8041B61B150F8042BD30744BFD6
:10310000A9F101039A18002342F8043B091FFAD1E0
:10311000EFE7704738B504000D00002000F0CDFD4A
:1031200054F08000C0B200F058FE2800C0B200F099
:1031300054FE012000F0C1FD31BD38B5040000206F
:1031400000F0BBFD14F07F0000F047FE002000F00F
:1031500044FE0500012000F0B0FD2800C0B232BDE1
:10316000F8B504000D001600002000F0A6FD54F094
:103170008000C0B200F031FE0027FFB2F6B2B742C5
:1031800005D2FFB2785D00F028FE7F1CF5E7012034
:1031900000F093FDF1BDF8B504000D00160000200D
:1031A00000F08BFD14F07F0000F017FE0027FFB247
:1031B000F6B2B74206D2002000F00FFEFFB27855FB
:1031C0007F1CF4E7012000F078FDF1BD10B504008C
:1031D0000120FFF7B2FF10F0F80054EA0001C9B275
:1031E0000120FFF797FF10BD10B580242100C9B260
:1031F0000120FFF78FFF10BD10B500242100C9B2D8
:103200000120FFF787FF10BD38B5DFF85C06008AA4
:10321000FFF7ACFE0400DFF85006008AFFF7A9FEB6
:103220008501DFF84406008AFFF7AFFE002805D0CD
:10323000022809D005D3032809D00AE055F0080573
:1032400007E055F0100504E055F0180501E055F0D1
:103250002005E4B2052C02D0E4B2062C01D155F0D1
:103260000105DFF80406008AFFF787FE002801D178
:1032700055F00205DFF8F005008AFFF782FE00280E
:103280000BD055F00405DFF8E005008AFFF779FE62
:103290000100C9B22220FFF73DFF2900C9B21D205D
:1032A000FFF738FF2001603050F00401C9B21E2042
:1032B000FFF730FF31BD38B5DFF8AC05C06800213D
:1032C000C90441EA5031C004DFF8A0250023FFF70C
:1032D00099FE04000D00210CC9B20620FFF71AFF69
:1032E000200080B2010AC9B20720FFF713FF2100B6
:1032F000C9B20820FFF70EFF31BD10B5DFF8680531
:1033000090F9134064B2122C02DB1120040004E097
:1033100064B2022C01DA02200400A01E50F08001E9
:10332000C9B20920FFF7F6FE10BD80B510210120BB
:10333000FFF7F0FE0120FFF700FF102801D000F09A
:1033400031FE0120FFF742FF02210220FFF7E2FEDB
:1033500080210320FFF7DEFE01210420FFF7DAFEC3
:1033600099210520FFF7D6FE00212520FFF7D2FE88
:1033700005212620FFF7CEFE12212720FFF7CAFEE7
:10338000D0213020FFF7C6FE40213120FFF7C2FEDA
:10339000C1212820FFF7BEFE94212920FFF7BAFEA5
:1033A000C1212A20FFF7B6FEFFF785FFFFF7A5FF33
:1033B00034214020FFF7AEFEDFF8AC0490F80F0197
:1033C000411CC9B23220FFF7A5FEDFF89C0490F83B
:1033D0000F110020FFF79EFEDFF88C0490F80F21FC
:1033E000DFF88C140020FFF7BBFE012000F04BFC3F
:1033F0000320FFF7EBFE01BD80B5FFF7F5FE0120CE
:10340000FFF79BFE000601D400F0CCFD0120FFF782
:10341000DDFEFFF7F9FEFFF74EFF0A20FFF78DFEF6
:1034200010F0F00050F00801C9B20A20FFF772FE58
:10343000FFF763FF34213920FFF76CFEF0214020B5
:10344000FFF768FEFF211220FFF764FEF72111202D
:10345000FFF760FE00210E20FFF75CFE00210D202B
:10346000FFF758FEDFF8000490F80F112220FFF755
:1034700051FEDFF8F40390F80F21DFF8F413002079
:10348000FFF76EFE012000F0FEFB0320FFF79EFE1B
:1034900001BD80B50120FFF750FE0721084201D091
:1034A00000F080FDDFF8C003008AFFF75FFD002811
:1034B00002D1FFF73AFF01E0FFF79EFF01BD10B513
:1034C0000400FFF791FE0120FFF737FE000601D44C
:1034D00000F068FD0120FFF779FEE4B2022C08D16C
:1034E0000A211D20FFF716FE74211E20FFF712FE91
:1034F00003E0FFF789FEFFF7DEFE23210C20FFF734
:1035000009FE40212320FFF705FE3320FFF715FEBB
:1035100050F04001C9B23320FFF7FCFDD248817C56
:103520001F20FFF7F7FD34213920FFF7F3FDC021FD
:103530004020FFF7EFFDFF211220FFF7EBFDE4B283
:10354000CC48205CC143C9B21120FFF7E3FD002045
:1035500000F099FBE4B2002C07D1C348406800F0AA
:10356000AEFC0620FFF732FE02E00520FFF72EFE3C
:1035700010BD10B50400E4B2002C01D000F012FD23
:10358000FFF73AFE0120FFF7D8FD000601D500F055
:1035900009FD0120FFF71AFEFFF78DFE23210C2005
:1035A000FFF7B8FD1E210D20FFF7B4FD0B211220FF
:1035B000FFF7B0FD12211320FFF7ACFDAA211F2059
:1035C000FFF7A8FD12212720FFF7A4FDD821302006
:1035D000FFF7A0FD40213120FFF79CFDC1212820ED
:1035E000FFF798FD94212920FFF794FDC1212A209F
:1035F000FFF790FDFF212120FFF78CFD0221022023
:10360000FFF788FD80210320FFF784FD01210420BE
:10361000FFF780FD99210520FFF77CFD3821402030
:10362000FFF778FD002000F02EFB8F48406800F087
:1036300046FC0520FFF7CAFD10BD10B504000120AF
:10364000FFF77BFD0721084201D000F0ABFC864864
:10365000008AFFF78BFC002804D12000C0B2FFF7DE
:1036600088FF03E02000C0B2FFF729FF10BD2DE95D
:10367000F04100F06CFC012000F029FB00F02DF976
:10368000203000F01CFC022000F021FB00F025F9A6
:10369000A33000F014FC0020FFF798FD4220FFF754
:1036A0004CFD0400E4B2222C01D000F07BFC02208F
:1036B000FFF705FF0120FFF740FD10F00700052888
:1036C000F8D10125102D1BDA0026082E16DA2C2041
:1036D000FFF733FD10F0010847465FFA88F82C2009
:1036E000FFF72BFD10F001008045F0D06248285C08
:1036F00057EA400060496854761CE6E76D1CE1E734
:103700005D48102101700020FFF760FD00F026FCED
:10371000BDE8F08110B558480478E4B2002C01D11E
:1037200000F040FCE4B2102C06D1102252490020D7
:10373000FEF73EFF00200400E4B24F48205C641C0A
:103740004D490C70C0B210BDF8B5040000F0C5F8CA
:1037500005000120FFF7F1FC00064ED51220FFF70F
:10376000ECFC0600300703D5681E3F4908603BE0CB
:10377000700633D53C48008AFFF7F8FB3F4931F823
:103780001000281A384948601D20FFF7D6FC400772
:1037900003D52220FFF7D1FC02E01320FFF7CDFC78
:1037A000314981F80F011020FFF7C7FC0100C9B2B1
:1037B0000D20FFF7AFFC2C4890F80F212C4900207A
:1037C000FFF7E9FC1920FFF7B8FC274948721A20D7
:1037D000FFF7B3FC3D382449087205E0300603D5F5
:1037E0002148002180F80F11FF211120FFF792FCE2
:1037F000FF211220FFF78EFC2CE03E20FFF79DFCFE
:1038000006003F20FFF799FC0700380702D516484D
:1038100005601FE0780715D5134845603220FFF793
:103820008CFC114981F80F010F4890F80F211049C5
:103830000020FFF7B0FC0C48002141720A4800212B
:10384000017207E0700704D50748002180F80F11C6
:1038500000E0FEE70020FFF7B9FC0348C169084813
:1038600000F065F8F1BD0000400000200048E801CC
:1038700050010020F8580008740200202C5800085D
:103880005400002010B5040000F061FBE4B2002CED
:1038900005D0022C0AD006D3032C0BD00DE000205B
:1038A000FFF794FC09E0FFF7F4FD06E00020FFF7C6
:1038B000C4FE02E00120FFF7C0FE00F04FFB10BD88
:1038C00080B5082200214A48FEF7F8FD00F057FBBA
:1038D000FFF7CDFEFEF7C9FD01BD80B500F0C7FAC8
:1038E00002BD02001068002808D01068884203D189
:1038F00008681060012002E01268F3E700207047BA
:1039000010B5040000F023FB21003948FFF7E9FF60
:10391000002805D121003748FFF7E3FF002801D038
:10392000012000E00020C0B200F018FB10BD70B50F
:1039300004000D0000F00BFB2000FFF7E1FFA56085
:10394000002020602B4806003068002801D036682F
:10395000FAE7346000F002FB70BDF8B504000D001A
:10396000160000F0F4FA2000FFF7CAFF6560A660B9
:10397000002020601E4807003868002808D03868FA
:103980004068854202DA3868206001E03F68F3E76A
:103990003C6000F0E3FAF1BD10B5002400F0D7FA66
:1039A00013484068002806D01148406804001048B9
:1039B0002168416013E00E48006800280DD00C48D3
:1039C0000068406800F083FA002806D008480068C4
:1039D000040007482168016001E000F0C8FA00F027
:1039E000BDFA002CD9D02000A1688847D5E7000097
:1039F000980200209C020020C0B2C9B2884201D2C5
:103A0000012000E00020C0B27047C9B2C0B28142BC
:103A100001D2012000E00020C0B2704710B50400C0
:103A20002000C0B200F084FB012180B200F001F858
:103A300010BD4FF67F72104050EAC11080B270473F
:103A4000C0B250EA012080B270470000F0B4C9B2A1
:103A50004B00C9B2CC1010EB8404C9B2CD1010EBEE
:103A600085052D6A0F2611F00707FFB2BF00BE4083
:103A7000B54392B212F00F0611F00707FFB2BF0074
:103A8000BE4035432562046803259D40AC43C2F324
:103A90000115ADB29D402C430460846803259D4010
:103AA000AC43C2F38115ADB29D402C438460848841
:103AB00001258D40AC43C2F30025ADB28D402C43AF
:103AC0008480C46803259D40AC43C2F34125ADB258
:103AD0009D402C43C460F0BC70472DE9F041DFF8F5
:103AE0006C351B6853F00103DFF860452360C9B2F1
:103AF00011F003039B000F249C40C9B28D10DFF826
:103B0000506556F82550A543C0B210FA03F6354368
:103B1000C9B28E10DFF8387547F8265001258D4060
:103B2000DFF830653668AE43DFF828753E60DFF8B1
:103B300028653668AE43DFF820753E60D2B212F0D9
:103B40003806F6B2202E09D0282E0ED1DFF80465F3
:103B500036682E43DFF8FC743E6006E0DFF8F86458
:103B600036682E43DFF8F0743E60DFF8F0643668A4
:103B70002E43DFF8E8743E60C9B2052901DA8E1DD4
:103B800005E0C9B20A2901DA172600E02826F6B2B4
:103B9000DFF8CC745FF0700C06F807C0F6B277114E
:103BA000DFF8C0C45FF0010E16F01F081EFA08FE11
:103BB0004CF827E0BDE8F08110B4838A01248C40E2
:103BC000A343D2B212F001048C402343838210BC81
:103BD000704738B5DFF89004006850F00700DFF850
:103BE000881408600024E4B2062C26D24FF4347204
:103BF000E4B2DFF8780420184178E4B2DFF86C040E
:103C0000205C4FF48063DFF8685403FB0050FFF73B
:103C10001DFF0022E4B2DFF8540420184178E4B21A
:103C2000DFF84804205C4FF48063DFF8445403FB62
:103C30000050FFF7C1FFA41CD5E70024E4B2062C16
:103C400020D24FF4E072E4B2DFF828042018417863
:103C5000E4B2DFF82004205C4FF48063DFF81054F6
:103C600003FB0050FFF7F2FE2822E4B2DFF8040461
:103C700020184178E4B2DFF8FC03205CFFF72DFF49
:103C8000A41CDBE731BD10B50400E4B2012C04D064
:103C9000E4B2002C01D000F085F9E4B2E243D2B2E4
:103CA0000D21DFF8D403FFF787FF2200D2B20421F1
:103CB000DFF8BC03FFF780FF10BD10B50400220041
:103CC000D2B20021DFF8B403FFF776FF10BD10B5C4
:103CD0000400E4B2002C02D0E4B2012C0ED14FF467
:103CE00034720221DFF88803FFF7B0FE2200D2B25F
:103CF0000221DFF87C03FFF75FFF06E04FF4E0727C
:103D00000221DFF86C03FFF7A1FE10BD80B5DFF8DC
:103D100070030068800706D5DFF8640302210160A4
:103D20000020FFF711FDDFF858030068400507D5B4
:103D3000DFF84C034FF4806101600120FFF704FDC0
:103D4000DFF83C030068000507D5DFF834034FF4C3
:103D5000006101600220FFF7F7FC01BD80B5FFF7AD
:103D6000D5FF01BD80B5FFF7D1FF01BD80B5FFF7DD
:103D7000CDFF01BD80B5FFF7C9FF01BD80B5FFF7DD
:103D8000C5FF01BD80B5FFF7C1FF01BD80B5FFF7DD
:103D9000BDFF01BD80B5DFF8B402006850F480506B
:103DA000DFF8A812086040F2E5420521DFF8C00202
:103DB000FFF74CFE40F2E5420621DFF8B402FFF7C0
:103DC00045FE40F2E5420721A948FFF73FFEDFF834
:103DD000B4024FF45171018001BD0100DFF8A80267
:103DE000C9B20180A9480088C007FBD5A648008851
:103DF000C0B27047A648006850F48070A4490860BB
:103E0000A448006850F48070A2490860A148006886
:103E10008005FBD58D48006850F004008B49086090
:103E20009D48006850F004009B4908609B4800686A
:103E300050F00400994908609848006830F0040088
:103E40009649086096484FF480410180954870215A
:103E5000017084485FF0007101609348008850F061
:103E6000010091490880914801210180704738B5CF
:103E700000F06DF88E4844688E4805688E480088CA
:103E8000C00703D58B4800680500641C00F066F885
:103E9000ADB255EA044032BD10B50400FFF7E7FFAC
:103EA0000100621A012A01DA002007E0101400283C
:103EB00002D04FF6FF7001E0100080B210BD10B5C7
:103EC00004002000FFF7E8FF0028FAD110BD38B544
:103ED0000400794800884FF6FB7108407649088055
:103EE0002000FFF7D9FF050080B2052808DA6E48E8
:103EF00000884FF6FB7108406B490880012012E0F2
:103F00006C480068ADB228186C49086066480088A3
:103F100050F00400644908806948008850F010009F
:103F200067490880002032BD63480088C00704D577
:103F30005F484068401C5E4948605F480088400711
:103F400001D5594800885C4800210180704772B64D
:103F500057480068401C564908607047544800683C
:103F6000401E53490860002800D162B67047484897
:103F7000006850F001004649086030BF704780B5C6
:103F8000082200214A48FEF799FAFFF7E0FFFFF701
:103F900020FEFFF7FFFEFFF72DFF00F009F8FFF707
:103FA000DDFF01BD80B5FFF7D2FFFFF7E0FFFEE7C1
:103FB00080B54FF4347208212D48FFF747FD0020EB
:103FC00000F018F82148006850F480401F4908604C
:103FD00040F2E72209212648FFF738FD394840F230
:103FE00015110180384842F208010180374800F07D
:103FF00012F801BD10B504002200D2B208211C48FD
:10400000FFF7DAFD10BD324909880906FBD53149B1
:10401000C0B20880704710B504002078002804D092
:104020002078FFF7F0FF641CF7E710BD10B504001F
:10403000294850F82400FFF7EEFF0D20FFF7E3FFBB
:104040000A20FFF7E0FF10BD00000000203802400A
:1040500008000140080401400C0401400004014034
:1040600000E400E000E100E01C380240D8580008FD
:1040700000000240E058000800080240000402402E
:1040800014040140003001400C3001400830014070
:1040900000700040343802402C380240143802408E
:1040A0000808014019E400E00C0801400008014044
:1040B0009002002024080140100801403808014007
:1040C00020080140083801400C38014070560008B3
:1040D000003801400438014000000020C0B203490C
:1040E000415CFF2900D0401EC0B2704794580008C0
:1040F000C0B2054940184078FF2801D0012000E0F7
:104100000020C0B2704700BF9458000838B50400C2
:104110000D002800451EC0B2002805D02000C0B206
:10412000FFF7DCFF0400F4E72000C0B232BD00005E
:10413000C0B202494018407880B2704794580008D5
:104140004FF69F721040C9B250EA411080B27047DA
:1041500062F30F2262F31F42401810F0030308D0ED
:10416000C91A1FD3DB0748BF00F8012D28BF20F86C
:10417000022D130030B414461546103928BF20E92B
:104180003C00FAD8490728BF20E90C0048BF40F896
:10419000042D890028BF20F8022D48BF00F8012D0A
:1041A00030BC7047C91818BF00F8012DCB0728BFD5
:1041B00000F8012D7047000062B38B0708D0521E33
:1041C00011F8013B00F8013B00F024808B07F6D189
:1041D000830740F0208000BF103A07D330B4B1E825
:1041E0003810103AA0E83810F9D230BC530724BF79
:1041F000B1E80810A0E8081044BF51F8043B40F8AB
:10420000043BD20724BF31F8022B20F8022B44BF15
:104210000B7803707047083A07D3B1E80810083AE2
:1042200040F8043B40F804CBF7D25307E4E7000022
:1042300070470000A56363C6847C7CF8997777EEAD
:104240008D7B7BF60DF2F2FFBD6B6BD6B16F6FDE2F
:1042500054C5C5915030306003010102A96767CE93
:104260007D2B2B5619FEFEE762D7D7B5E6ABAB4DDB
:104270009A7676EC45CACA8F9D82821F40C9C98949
:10428000877D7DFA15FAFAEFEB5959B2C947478E87
:104290000BF0F0FBECADAD4167D4D4B3FDA2A25F4F
:1042A000EAAFAF45BF9C9C23F7A4A453967272E477
:1042B0005BC0C09BC2B7B7751CFDFDE1AE93933DDB
:1042C0006A26264C5A36366C413F3F7E02F7F7F598
:1042D0004FCCCC835C343468F4A5A55134E5E5D1EA
:1042E00008F1F1F9937171E273D8D8AB53313162AF
:1042F0003F15152A0C04040852C7C79565232346A9
:104300005EC3C39D28181830A19696370F05050A7D
:10431000B59A9A2F0907070E361212249B80801B2C
:104320003DE2E2DF26EBEBCD6927274ECDB2B27F2F
:104330009F7575EA1B0909129E83831D742C2C58E6
:104340002E1A1A342D1B1B36B26E6EDCEE5A5AB47E
:10435000FBA0A05BF65252A44D3B3B7661D6D6B78C
:10436000CEB3B37D7B2929523EE3E3DD712F2F5E6F
:1043700097848413F55353A668D1D1B90000000087
:104380002CEDEDC1602020401FFCFCE3C8B1B179E9
:10439000ED5B5BB6BE6A6AD446CBCB8DD9BEBE6739
:1043A0004B393972DE4A4A94D44C4C98E85858B08C
:1043B0004ACFCF856BD0D0BB2AEFEFC5E5AAAA4F75
:1043C00016FBFBEDC5434386D74D4D9A55333366F7
:1043D00094858511CF45458A10F9F9E90602020452
:1043E000817F7FFEF05050A0443C3C78BA9F9F25CF
:1043F000E3A8A84BF35151A2FEA3A35DC0404080A7
:104400008A8F8F05AD92923FBC9D9D2148383870B0
:1044100004F5F5F1DFBCBC63C1B6B67775DADAAF87
:1044200063212142301010201AFFFFE50EF3F3FD47
:104430006DD2D2BF4CCDCD81140C0C183513132680
:104440002FECECC3E15F5FBEA2979735CC44448864
:104450003917172E57C4C493F2A7A755827E7EFC46
:10446000473D3D7AAC6464C8E75D5DBA2B191932EB
:10447000957373E6A06060C098818119D14F4F9EFB
:104480007FDCDCA3662222447E2A2A54AB90903B38
:104490008388880BCA46468C29EEEEC7D3B8B86B22
:1044A0003C14142879DEDEA7E25E5EBC1D0B0B1601
:1044B00076DBDBAD3BE0E0DB563232644E3A3A74F9
:1044C0001E0A0A14DB4949920A06060C6C24244889
:1044D000E45C5CB85DC2C29F6ED3D3BDEFACAC43AD
:1044E000A66262C4A8919139A495953137E4E4D3CA
:1044F0008B7979F232E7E7D543C8C88B5937376EE5
:10450000B76D6DDA8C8D8D0164D5D5B1D24E4E9CD0
:10451000E0A9A949B46C6CD8FA5656AC07F4F4F388
:1045200025EAEACFAF6565CA8E7A7AF4E9AEAE477E
:1045300018080810D5BABA6F887878F06F25254A20
:10454000722E2E5C241C1C38F1A6A657C7B4B47377
:1045500051C6C69723E8E8CB7CDDDDA19C7474E8E6
:10456000211F1F3EDD4B4B96DCBDBD61868B8B0D45
:10457000858A8A0F907070E0423E3E7CC4B5B5716A
:10458000AA6666CCD84848900503030601F6F6F7FC
:10459000120E0E1CA36161C25F35356AF95757AE22
:1045A000D0B9B9699186861758C1C199271D1D3A9E
:1045B000B99E9E2738E1E1D913F8F8EBB398982B10
:1045C00033111122BB6969D270D9D9A9898E8E079E
:1045D000A7949433B69B9B2D221E1E3C9287871571
:1045E00020E9E9C949CECE87FF5555AA7828285039
:1045F0007ADFDFA58F8C8C03F8A1A1598089890906
:10460000170D0D1ADABFBF6531E6E6D7C642428400
:10461000B86868D0C3414182B0999929772D2D5A45
:10462000110F0F1ECBB0B07BFC5454A8D6BBBB6D92
:104630003A16162C6363C6A57C7CF8847777EE99CE
:104640007B7BF68DF2F2FF0D6B6BD6BD6F6FDEB12B
:10465000C5C5915430306050010102036767CEA98F
:104660002B2B567DFEFEE719D7D7B562ABAB4DE6D7
:104670007676EC9ACACA8F4582821F9DC9C9894045
:104680007D7DFA87FAFAEF155959B2EB47478EC983
:10469000F0F0FB0BADAD41ECD4D4B367A2A25FFD4B
:1046A000AFAF45EA9C9C23BFA4A453F77272E49673
:1046B000C0C09B5BB7B775C2FDFDE11C93933DAED7
:1046C00026264C6A36366C5A3F3F7E41F7F7F50294
:1046D000CCCC834F3434685CA5A551F4E5E5D134E6
:1046E000F1F1F9087171E293D8D8AB7331316253AB
:1046F00015152A3F0404080CC7C7955223234665A5
:10470000C3C39D5E18183028969637A105050A0F79
:104710009A9A2FB507070E091212243680801B9B28
:10472000E2E2DF3DEBEBCD2627274E69B2B27FCD2B
:104730007575EA9F0909121B83831D9E2C2C5874E2
:104740001A1A342E1B1B362D6E6EDCB25A5AB4EE7A
:10475000A0A05BFB5252A4F63B3B764DD6D6B76188
:10476000B3B37DCE2929527BE3E3DD3E2F2F5E716B
:10477000848413975353A6F5D1D1B9680000000083
:10478000EDEDC12C20204060FCFCE31FB1B179C8E5
:104790005B5BB6ED6A6AD4BECBCB8D46BEBE67D935
:1047A0003939724B4A4A94DE4C4C98D45858B0E888
:1047B000CFCF854AD0D0BB6BEFEFC52AAAAA4FE571
:1047C000FBFBED16434386C54D4D9AD733336655F3
:1047D0008585119445458ACFF9F9E910020204064E
:1047E0007F7FFE815050A0F03C3C78449F9F25BACB
:1047F000A8A84BE35151A2F3A3A35DFE404080C0A3
:104800008F8F058A92923FAD9D9D21BC38387048AC
:10481000F5F5F104BCBC63DFB6B677C1DADAAF7583
:104820002121426310102030FFFFE51AF3F3FD0E43
:10483000D2D2BF6DCDCD814C0C0C1814131326357C
:10484000ECECC32F5F5FBEE1979735A2444488CC60
:1048500017172E39C4C49357A7A755F27E7EFC8242
:104860003D3D7A476464C8AC5D5DBAE71919322BE7
:104870007373E6956060C0A0818119984F4F9ED1F7
:10488000DCDCA37F222244662A2A547E90903BAB34
:1048900088880B8346468CCAEEEEC729B8B86BD31E
:1048A0001414283CDEDEA7795E5EBCE20B0B161DFD
:1048B000DBDBAD76E0E0DB3B323264563A3A744EF5
:1048C0000A0A141E494992DB06060C0A2424486C85
:1048D0005C5CB8E4C2C29F5DD3D3BD6EACAC43EFA9
:1048E0006262C4A6919139A8959531A4E4E4D337C6
:1048F0007979F28BE7E7D532C8C88B4337376E59E1
:104900006D6DDAB78D8D018CD5D5B1644E4E9CD2CC
:10491000A9A949E06C6CD8B45656ACFAF4F4F30784
:10492000EAEACF256565CAAF7A7AF48EAEAE47E97A
:1049300008081018BABA6FD57878F08825254A6F1C
:104940002E2E5C721C1C3824A6A657F1B4B473C773
:10495000C6C69751E8E8CB23DDDDA17C7474E89CE2
:104960001F1F3E214B4B96DDBDBD61DC8B8B0D8641
:104970008A8A0F857070E0903E3E7C42B5B571C466
:104980006666CCAA484890D803030605F6F6F701F8
:104990000E0E1C126161C2A335356A5F5757AEF91E
:1049A000B9B969D086861791C1C199581D1D3A279A
:1049B0009E9E27B9E1E1D938F8F8EB1398982BB30C
:1049C000111122336969D2BBD9D9A9708E8E07899A
:1049D000949433A79B9B2DB61E1E3C22878715926D
:1049E000E9E9C920CECE87495555AAFF2828507835
:1049F000DFDFA57A8C8C038FA1A159F88989098002
:104A00000D0D1A17BFBF65DAE6E6D731424284C6FC
:104A10006868D0B8414182C3999929B02D2D5A7741
:104A20000F0F1E11B0B07BCB5454A8FCBBBB6DD68E
:104A300016162C3A63C6A5637CF8847C77EE9977CA
:104A40007BF68D7BF2FF0DF26BD6BD6B6FDEB16F27
:104A5000C59154C5306050300102030167CEA9678B
:104A60002B567D2BFEE719FED7B562D7AB4DE6ABD3
:104A700076EC9A76CA8F45CA821F9D82C98940C941
:104A80007DFA877DFAEF15FA59B2EB59478EC9477F
:104A9000F0FB0BF0AD41ECADD4B367D4A25FFDA247
:104AA000AF45EAAF9C23BF9CA453F7A472E496726F
:104AB000C09B5BC0B775C2B7FDE11CFD933DAE93D3
:104AC000264C6A26366C5A363F7E413FF7F502F790
:104AD000CC834FCC34685C34A551F4A5E5D134E5E2
:104AE000F1F908F171E29371D8AB73D831625331A7
:104AF000152A3F1504080C04C79552C723466523A1
:104B0000C39D5EC3183028189637A196050A0F0575
:104B10009A2FB59A070E090712243612801B9B8024
:104B2000E2DF3DE2EBCD26EB274E6927B27FCDB227
:104B300075EA9F7509121B09831D9E832C58742CDE
:104B40001A342E1A1B362D1B6EDCB26E5AB4EE5A76
:104B5000A05BFBA052A4F6523B764D3BD6B761D684
:104B6000B37DCEB329527B29E3DD3EE32F5E712F67
:104B70008413978453A6F553D1B968D1000000007F
:104B8000EDC12CED20406020FCE31FFCB179C8B1E1
:104B90005BB6ED5B6AD4BE6ACB8D46CBBE67D9BE31
:104BA00039724B394A94DE4A4C98D44C58B0E85884
:104BB000CF854ACFD0BB6BD0EFC52AEFAA4FE5AA6D
:104BC000FBED16FB4386C5434D9AD74D33665533EF
:104BD00085119485458ACF45F9E910F9020406024A
:104BE0007FFE817F50A0F0503C78443C9F25BA9FC7
:104BF000A84BE3A851A2F351A35DFEA34080C0409F
:104C00008F058A8F923FAD929D21BC9D38704838A8
:104C1000F5F104F5BC63DFBCB677C1B6DAAF75DA7F
:104C20002142632110203010FFE51AFFF3FD0EF33F
:104C3000D2BF6DD2CD814CCD0C18140C1326351378
:104C4000ECC32FEC5FBEE15F9735A2974488CC445C
:104C5000172E3917C49357C4A755F2A77EFC827E3E
:104C60003D7A473D64C8AC645DBAE75D19322B19E3
:104C700073E6957360C0A060811998814F9ED14FF3
:104C8000DCA37FDC224466222A547E2A903BAB9030
:104C9000880B8388468CCA46EEC729EEB86BD3B81A
:104CA00014283C14DEA779DE5EBCE25E0B161D0BF9
:104CB000DBAD76DBE0DB3BE0326456323A744E3AF1
:104CC0000A141E0A4992DB49060C0A0624486C2481
:104CD0005CB8E45CC29F5DC2D3BD6ED3AC43EFACA5
:104CE00062C4A6629139A8919531A495E4D337E4C2
:104CF00079F28B79E7D532E7C88B43C8376E5937DD
:104D00006DDAB76D8D018C8DD5B164D54E9CD24EC8
:104D1000A949E0A96CD8B46C56ACFA56F4F307F480
:104D2000EACF25EA65CAAF657AF48E7AAE47E9AE76
:104D300008101808BA6FD5BA78F08878254A6F2518
:104D40002E5C722E1C38241CA657F1A6B473C7B46F
:104D5000C69751C6E8CB23E8DDA17CDD74E89C74DE
:104D60001F3E211F4B96DD4BBD61DCBD8B0D868B3D
:104D70008A0F858A70E090703E7C423EB571C4B562
:104D800066CCAA664890D84803060503F6F701F6F4
:104D90000E1C120E61C2A361356A5F3557AEF9571A
:104DA000B969D0B986179186C19958C11D3A271D96
:104DB0009E27B99EE1D938E1F8EB13F8982BB39808
:104DC0001122331169D2BB69D9A970D98E07898E96
:104DD0009433A7949B2DB69B1E3C221E8715928769
:104DE000E9C920E9CE8749CE55AAFF552850782831
:104DF000DFA57ADF8C038F8CA159F8A189098089FE
:104E00000D1A170DBF65DABFE6D731E64284C642F8
:104E100068D0B8684182C3419929B0992D5A772D3D
:104E20000F1E110FB07BCBB054A8FC54BB6DD6BB8A
:104E3000162C3A16C6A56363F8847C7CEE997777C6
:104E4000F68D7B7BFF0DF2F2D6BD6B6BDEB16F6F23
:104E50009154C5C56050303002030101CEA9676787
:104E6000567D2B2BE719FEFEB562D7D74DE6ABABCF
:104E7000EC9A76768F45CACA1F9D82828940C9C93D
:104E8000FA877D7DEF15FAFAB2EB59598EC947477B
:104E9000FB0BF0F041ECADADB367D4D45FFDA2A243
:104EA00045EAAFAF23BF9C9C53F7A4A4E49672726B
:104EB0009B5BC0C075C2B7B7E11CFDFD3DAE9393CF
:104EC0004C6A26266C5A36367E413F3FF502F7F78C
:104ED000834FCCCC685C343451F4A5A5D134E5E5DE
:104EE000F908F1F1E2937171AB73D8D862533131A3
:104EF0002A3F1515080C04049552C7C7466523239D
:104F00009D5EC3C33028181837A196960A0F050571
:104F10002FB59A9A0E090707243612121B9B808020
:104F2000DF3DE2E2CD26EBEB4E6927277FCDB2B223
:104F3000EA9F7575121B09091D9E838358742C2CDA
:104F4000342E1A1A362D1B1BDCB26E6EB4EE5A5A72
:104F50005BFBA0A0A4F65252764D3B3BB761D6D680
:104F60007DCEB3B3527B2929DD3EE3E35E712F2F63
:104F700013978484A6F55353B968D1D1000000007B
:104F8000C12CEDED40602020E31FFCFC79C8B1B1DD
:104F9000B6ED5B5BD4BE6A6A8D46CBCB67D9BEBE2D
:104FA000724B393994DE4A4A98D44C4CB0E8585880
:104FB000854ACFCFBB6BD0D0C52AEFEF4FE5AAAA69
:104FC000ED16FBFB86C543439AD74D4D66553333EB
:104FD000119485858ACF4545E910F9F90406020246
:104FE000FE817F7FA0F0505078443C3C25BA9F9FC3
:104FF0004BE3A8A8A2F351515DFEA3A380C040409B
:10500000058A8F8F3FAD929221BC9D9D70483838A4
:10501000F104F5F563DFBCBC77C1B6B6AF75DADA7B
:105020004263212120301010E51AFFFFFD0EF3F33B
:10503000BF6DD2D2814CCDCD18140C0C2635131374
:10504000C32FECECBEE15F5F35A2979788CC444458
:105050002E3917179357C4C455F2A7A7FC827E7E3A
:105060007A473D3DC8AC6464BAE75D5D322B1919DF
:10507000E6957373C0A06060199881819ED14F4FEF
:10508000A37FDCDC44662222547E2A2A3BAB90902C
:105090000B8388888CCA4646C729EEEE6BD3B8B816
:1050A000283C1414A779DEDEBCE25E5E161D0B0BF5
:1050B000AD76DBDBDB3BE0E064563232744E3A3AED
:1050C000141E0A0A92DB49490C0A0606486C24247D
:1050D000B8E45C5C9F5DC2C2BD6ED3D343EFACACA1
:1050E000C4A6626239A8919131A49595D337E4E4BE
:1050F000F28B7979D532E7E78B43C8C86E593737D9
:10510000DAB76D6D018C8D8DB164D5D59CD24E4EC4
:1051100049E0A9A9D8B46C6CACFA5656F307F4F47C
:10512000CF25EAEACAAF6565F48E7A7A47E9AEAE72
:10513000101808086FD5BABAF08878784A6F252514
:105140005C722E2E38241C1C57F1A6A673C7B4B46B
:105150009751C6C6CB23E8E8A17CDDDDE89C7474DA
:105160003E211F1F96DD4B4B61DCBDBD0D868B8B39
:105170000F858A8AE09070707C423E3E71C4B5B55E
:10518000CCAA666690D8484806050303F701F6F6F0
:105190001C120E0EC2A361616A5F3535AEF9575716
:1051A00069D0B9B9179186869958C1C13A271D1D92
:1051B00027B99E9ED938E1E1EB13F8F82BB3989804
:1051C00022331111D2BB6969A970D9D907898E8E92
:1051D00033A794942DB69B9B3C221E1E1592878765
:1051E000C920E9E98749CECEAAFF5555507828282D
:1051F000A57ADFDF038F8C8C59F8A1A109808989FA
:105200001A170D0D65DABFBFD731E6E684C64242F4
:10521000D0B8686882C3414129B099995A772D2D39
:105220001E110F0F7BCBB0B0A8FC54546DD6BBBB86
:105230002C3A16160000891112239B322446AD57D2
:105240003665BF74488CC19D5AAFD3BE6CCAE5DBCE
:105250007EE9F7F88110080193331A22A5562C47EE
:10526000B7753E64C99C408DDBBF52AEEDDA64CBAE
:10527000FFF976E802218B30100299132667AF768A
:105280003444BD554AADC3BC588ED19F6EEBE7FA8E
:105290007CC8F5D983310A2091121803A7772E66AE
:1052A000B5543C45CBBD42ACD99E508FEFFB66EA6E
:1052B000FDD874C904428D5316619F702004A9154E
:1052C0003227BB364CCEC5DF5EEDD7FC6888E1994E
:1052D0007AABF3BA85520C4397711E60A11428056E
:1052E000B3373A26CDDE44CFDFFD56ECE99860892E
:1052F000FBBB72AA06638F7214409D512225AB340A
:105300003006B9174EEFC7FE5CCCD5DD6AA9E3B80D
:10531000788AF19B87730E6295501C41A3352A242D
:10532000B1163807CFFF46EEDDDC54CDEBB962A8ED
:10533000F99A708B088481951AA793B62CC2A5D3CD
:105340003EE1B7F04008C919522BDB3A644EED5FDD
:10535000766DFF7C899400859BB712A6ADD224C3DD
:10536000BFF136E0C1184809D33B5A2AE55E6C4FBD
:10537000F77D7E6C0AA583B4188691972EE3A7F279
:105380003CC0B5D14229CB38500AD91B666FEF7E9D
:10539000744CFD5D8BB502A499961087AFF326E29D
:1053A000BDD034C1C3394A28D11A580BE77F6E6E7D
:1053B000F55C7C4D0CC685D71EE597F42880A1913D
:1053C0003AA3B3B2444ACD5B5669DF78600CE91D5D
:1053D000722FFB3E8DD604C79FF516E4A99020815D
:1053E000BBB332A2C55A4C4BD7795E68E11C680D3D
:1053F000F33F7A2E0EE787F61CC495D52AA1A3B0F9
:105400003882B193466BCF7A5448DD59622DEB3C1C
:10541000700EF91F8FF706E69DD414C5ABB122A01C
:10542000B9923083C77B4E6AD5585C49E33D6A2CFC
:10543000F11E780F80B54348006850F480704149F0
:10544000086041480068414908403F4908603D48BC
:1054500000683F4908403B4908603A48006830F41A
:105460008020384908603848006830F47D003649AB
:10547000086038480021016000F004F836483749D8
:10548000016001BD2F48006850F001002D490860FF
:105490002C4800688007FBD53148006850F00400B4
:1054A0002F4908602E48006850F002002C4908601F
:1054B0002B48006850F0010029490860294800681D
:1054C00050F080502749086027484FF40061016080
:1054D00026480068C006FBD41B481B4909680160C8
:1054E0001948194909680160174817490968016096
:1054F0001548006830F47D001349086012480068C0
:1055000050F40800104908600E48006850F08070A0
:105510000C4908600B4800688001FBD50A48006808
:1055200080088000084908600748006850F00300C0
:10553000054908600448006810F00C000C28F9D1F7
:105540007047000000380240083802400CC0FF8855
:10555000FEFFFEEE0C38024008ED00E000000008FF
:10556000003C0240243802400070004004700040BB
:10557000637C777BF26B6FC53001672BFED7AB7610
:10558000CA82C97DFA5947F0ADD4A2AF9CA472C0BB
:10559000B7FD9326363FF7CC34A5E5F171D8311528
:1055A00004C723C31896059A071280E2EB27B27549
:1055B00009832C1A1B6E5AA0523BD6B329E32F84C1
:1055C00053D100ED20FCB15B6ACBBE394A4C58CFB9
:1055D000D0EFAAFB434D338545F9027F503C9FA88D
:1055E00051A3408F929D38F5BCB6DA2110FFF3D25B
:1055F000CD0C13EC5F974417C4A77E3D645D19730F
:1056000060814FDC222A908846EEB814DE5E0BDB08
:10561000E0323A0A4906245CC2D3AC629195E4793F
:10562000E7C8376D8DD54EA96C56F4EA657AAE0899
:10563000BA78252E1CA6B4C6E8DD741F4BBD8B8A34
:10564000703EB5664803F60E613557B986C11D9E9A
:10565000E1F8981169D98E949B1E87E9CE5528DF11
:105660008CA1890DBFE6426841992D0FB054BB163D
:105670000D0A3D3D3D3D3D3D3D3D3D3D3D3D3D3DBD
:105680002044454255472053544152544544203DFF
:105690003D3D3D3D3D3D3D3D3D3D3D3D3D0D0A00DA
:1056A000A027BE33E034C1332042C433A01E81336F
:1056B000E02B843320398733A127BE33E134C13353
:1056C0002142C4335099C93390A6CC330AE6D33370
:1056D00000000001000000020000000400000008BB
:1056E00000000010000000200000004000000080CA
:1056F0000000001B0000003610B50749794418313E
:10570000064C7C44163404E00A68081D511888478A
:105710000146A142F8D110BD080000002800000099
:10572000D3D9FFFF64020000400000200000000009
:1057300063D8FFFF400000007C0200000000002052
:1057400000000000190200000C01000086000000AB
:1057500043000000220000001100000008000000CB
:10576000030000002020200E11140C0F12090C0F52
:1057700006090C03060900030600000000F009F802
:10578000002801D0FFF7B8FF0020FDF7A6FB00F0CE
:1057900002F80120704700F001B8000007463846C3
:1057A00000F002F8FBE7000080B5C046C046024AA0
:1057B00011001820ABBEFBE7260002005343414E08
:1057C0005F54494D454F5554000000004245414348
:1057D0004F4E5F464F554E44000000004245414346
:1057E0004F4E5F4D495353454400000042454143ED
:1057F0004F4E5F545241434B4544000052454A4F7F
:10580000494E5F4641494C4544000000140E0B08C8
:10581000050200000000000000000000AB89EFCD91
:105820002301674554761032DCFE98BA0000000070
:1058300036006A00E600BE01FE0300000148804712
:105840000148004735540008AD5800084A4F494EFA
:105850005F4641494C4544005458434F4D504C45D8
:10586000544500004C4F53545F5453594E4300006D
:105870005258434F4D504C45544500004C494E4BF7
:105880005F444541440000004C494E4B5F414C4948
:1058900056450000FF0605040302010900FF000051
:1058A000000000000000010101020000C046C046E7
:1058B000C046C046FFF762FF4A4F494E494E470077
:1058C0004A4F494E45440000524655310000000001
:1058D000524553455400000001000004020D000031
:1058E0000101010A010B00000200000000EEFFC0F0
:1058F0000123456789ABCDEFC0400000FFF7FEBF35
:10590000FFF7FEBFFFF7FEBFFFF7FEBFFFF7FEBFCB
:10591000FFF7FEBFFFF7FEBFFFF7FEBFFFF7FEBFBB
:10592000FFF7FEBFFFF7FEBFFFF7FEBFFFF7FEBFAB
:10593000FFF7FEBFFFF7FEBFFFF7FEBFFFF7FEBF9B
:10594000FFF7FEBFFFF7FEBFFFF7FEBFFFF7FEBF8B
:10595000FFF7FEBFFFF7FEBFFFF7FEBFFFF7FEBF7B
:10596000FFF7FEBFFFF7FEBFFFF7FEBFFFF7FEBF6B
:10597000FFF7FEBFFFF7FEBFFFF7FEBFFFF7FEBF5B
:10598000FFF7FEBFFFF7FEBFFFF7FEBFFFF7FEBF4B
:10599000FFF7FEBFFFF7FEBFFFF7FEBFFFF7FEBF3B
:1059A000FFF7FEBFFFF7FEBFFFF7FEBFFFF7FEBF2B
:1059B000FFF7FEBF00000000BC570008CC570008EE
:1059C000DC570008EC570008B8580008C058000819
:1059D000C85800084C580008FC57000858580008E0
:1059E00064580008D0580008705800087C58000817
:0459F00088580008CB
:04000005080058ADEA
:00000001FF
